{
	"contracts/1.Filing.sol": {
		"Filling": {
			"abi": [
				{
					"inputs": [
						{
							"internalType": "address",
							"name": "_setFoTokenAddress",
							"type": "address"
						}
					],
					"stateMutability": "nonpayable",
					"type": "constructor"
				},
				{
					"inputs": [],
					"name": "SetfoToken",
					"outputs": [
						{
							"internalType": "contract IERC20",
							"name": "",
							"type": "address"
						}
					],
					"stateMutability": "view",
					"type": "function"
				},
				{
					"inputs": [
						{
							"internalType": "uint256",
							"name": "",
							"type": "uint256"
						}
					],
					"name": "filers",
					"outputs": [
						{
							"internalType": "address",
							"name": "",
							"type": "address"
						}
					],
					"stateMutability": "view",
					"type": "function"
				},
				{
					"inputs": [],
					"name": "filingFee",
					"outputs": [
						{
							"internalType": "uint256",
							"name": "",
							"type": "uint256"
						}
					],
					"stateMutability": "view",
					"type": "function"
				},
				{
					"inputs": [
						{
							"internalType": "address",
							"name": "",
							"type": "address"
						},
						{
							"internalType": "uint256",
							"name": "",
							"type": "uint256"
						}
					],
					"name": "filings",
					"outputs": [
						{
							"internalType": "address",
							"name": "filingOwner",
							"type": "address"
						},
						{
							"internalType": "string",
							"name": "securedInterestType",
							"type": "string"
						},
						{
							"internalType": "uint256",
							"name": "partySize",
							"type": "uint256"
						},
						{
							"internalType": "string",
							"name": "contractNumber",
							"type": "string"
						},
						{
							"internalType": "uint256",
							"name": "valueOfLoan",
							"type": "uint256"
						},
						{
							"internalType": "string",
							"name": "securingPartyType",
							"type": "string"
						},
						{
							"internalType": "string",
							"name": "securingPartyFullname",
							"type": "string"
						},
						{
							"internalType": "string",
							"name": "securingPartyNationalID",
							"type": "string"
						},
						{
							"internalType": "string",
							"name": "securedPartyName",
							"type": "string"
						},
						{
							"internalType": "string",
							"name": "securedPartyAddress",
							"type": "string"
						},
						{
							"internalType": "string",
							"name": "securedPartyCountry",
							"type": "string"
						},
						{
							"internalType": "string",
							"name": "collateralCategory",
							"type": "string"
						},
						{
							"internalType": "string",
							"name": "collateralDescription",
							"type": "string"
						},
						{
							"internalType": "uint256",
							"name": "timestamp",
							"type": "uint256"
						}
					],
					"stateMutability": "view",
					"type": "function"
				},
				{
					"inputs": [],
					"name": "getAllFilers",
					"outputs": [
						{
							"internalType": "address[]",
							"name": "",
							"type": "address[]"
						}
					],
					"stateMutability": "view",
					"type": "function"
				},
				{
					"inputs": [],
					"name": "getAllFilings",
					"outputs": [
						{
							"components": [
								{
									"internalType": "address",
									"name": "filingOwner",
									"type": "address"
								},
								{
									"internalType": "string",
									"name": "securedInterestType",
									"type": "string"
								},
								{
									"internalType": "uint256",
									"name": "partySize",
									"type": "uint256"
								},
								{
									"internalType": "string",
									"name": "contractNumber",
									"type": "string"
								},
								{
									"internalType": "uint256",
									"name": "valueOfLoan",
									"type": "uint256"
								},
								{
									"internalType": "string",
									"name": "securingPartyType",
									"type": "string"
								},
								{
									"internalType": "string",
									"name": "securingPartyFullname",
									"type": "string"
								},
								{
									"internalType": "string",
									"name": "securingPartyNationalID",
									"type": "string"
								},
								{
									"internalType": "string",
									"name": "securedPartyName",
									"type": "string"
								},
								{
									"internalType": "string",
									"name": "securedPartyAddress",
									"type": "string"
								},
								{
									"internalType": "string",
									"name": "securedPartyCountry",
									"type": "string"
								},
								{
									"internalType": "string",
									"name": "collateralCategory",
									"type": "string"
								},
								{
									"internalType": "string",
									"name": "collateralDescription",
									"type": "string"
								},
								{
									"internalType": "uint256",
									"name": "timestamp",
									"type": "uint256"
								}
							],
							"internalType": "struct Filling.FilingInfo[]",
							"name": "",
							"type": "tuple[]"
						}
					],
					"stateMutability": "view",
					"type": "function"
				},
				{
					"inputs": [
						{
							"internalType": "uint256",
							"name": "_id",
							"type": "uint256"
						}
					],
					"name": "getFiling",
					"outputs": [
						{
							"components": [
								{
									"internalType": "address",
									"name": "filingOwner",
									"type": "address"
								},
								{
									"internalType": "string",
									"name": "securedInterestType",
									"type": "string"
								},
								{
									"internalType": "uint256",
									"name": "partySize",
									"type": "uint256"
								},
								{
									"internalType": "string",
									"name": "contractNumber",
									"type": "string"
								},
								{
									"internalType": "uint256",
									"name": "valueOfLoan",
									"type": "uint256"
								},
								{
									"internalType": "string",
									"name": "securingPartyType",
									"type": "string"
								},
								{
									"internalType": "string",
									"name": "securingPartyFullname",
									"type": "string"
								},
								{
									"internalType": "string",
									"name": "securingPartyNationalID",
									"type": "string"
								},
								{
									"internalType": "string",
									"name": "securedPartyName",
									"type": "string"
								},
								{
									"internalType": "string",
									"name": "securedPartyAddress",
									"type": "string"
								},
								{
									"internalType": "string",
									"name": "securedPartyCountry",
									"type": "string"
								},
								{
									"internalType": "string",
									"name": "collateralCategory",
									"type": "string"
								},
								{
									"internalType": "string",
									"name": "collateralDescription",
									"type": "string"
								},
								{
									"internalType": "uint256",
									"name": "timestamp",
									"type": "uint256"
								}
							],
							"internalType": "struct Filling.FilingInfo",
							"name": "",
							"type": "tuple"
						}
					],
					"stateMutability": "view",
					"type": "function"
				},
				{
					"inputs": [
						{
							"internalType": "address",
							"name": "_owner",
							"type": "address"
						}
					],
					"name": "getFilingByOwner",
					"outputs": [
						{
							"components": [
								{
									"internalType": "address",
									"name": "filingOwner",
									"type": "address"
								},
								{
									"internalType": "string",
									"name": "securedInterestType",
									"type": "string"
								},
								{
									"internalType": "uint256",
									"name": "partySize",
									"type": "uint256"
								},
								{
									"internalType": "string",
									"name": "contractNumber",
									"type": "string"
								},
								{
									"internalType": "uint256",
									"name": "valueOfLoan",
									"type": "uint256"
								},
								{
									"internalType": "string",
									"name": "securingPartyType",
									"type": "string"
								},
								{
									"internalType": "string",
									"name": "securingPartyFullname",
									"type": "string"
								},
								{
									"internalType": "string",
									"name": "securingPartyNationalID",
									"type": "string"
								},
								{
									"internalType": "string",
									"name": "securedPartyName",
									"type": "string"
								},
								{
									"internalType": "string",
									"name": "securedPartyAddress",
									"type": "string"
								},
								{
									"internalType": "string",
									"name": "securedPartyCountry",
									"type": "string"
								},
								{
									"internalType": "string",
									"name": "collateralCategory",
									"type": "string"
								},
								{
									"internalType": "string",
									"name": "collateralDescription",
									"type": "string"
								},
								{
									"internalType": "uint256",
									"name": "timestamp",
									"type": "uint256"
								}
							],
							"internalType": "struct Filling.FilingInfo[]",
							"name": "",
							"type": "tuple[]"
						}
					],
					"stateMutability": "view",
					"type": "function"
				},
				{
					"inputs": [],
					"name": "owner",
					"outputs": [
						{
							"internalType": "address",
							"name": "",
							"type": "address"
						}
					],
					"stateMutability": "view",
					"type": "function"
				},
				{
					"inputs": [
						{
							"internalType": "string",
							"name": "_securedInterestType",
							"type": "string"
						},
						{
							"internalType": "uint256",
							"name": "_partySize",
							"type": "uint256"
						},
						{
							"internalType": "string",
							"name": "_contractNumber",
							"type": "string"
						},
						{
							"internalType": "uint256",
							"name": "_valueOfLoan",
							"type": "uint256"
						},
						{
							"internalType": "string",
							"name": "_securingPartyType",
							"type": "string"
						},
						{
							"internalType": "string",
							"name": "_securingPartyFullname",
							"type": "string"
						},
						{
							"internalType": "string",
							"name": "_securingPartyNationalID",
							"type": "string"
						},
						{
							"internalType": "string",
							"name": "_securedPartyName",
							"type": "string"
						},
						{
							"internalType": "string",
							"name": "_securedPartyAddress",
							"type": "string"
						},
						{
							"internalType": "string",
							"name": "_securedPartyCountry",
							"type": "string"
						},
						{
							"internalType": "string",
							"name": "_collateralCategory",
							"type": "string"
						},
						{
							"internalType": "string",
							"name": "_collateralDescription",
							"type": "string"
						}
					],
					"name": "submitFilingInfo",
					"outputs": [],
					"stateMutability": "payable",
					"type": "function"
				}
			],
			"devdoc": {
				"kind": "dev",
				"methods": {},
				"version": 1
			},
			"evm": {
				"assembly": "    /* \"contracts/1.Filing.sol\":267:4092  contract Filling{... */\n  0x80\n  jumpi(tag_7, callvalue)\n  0x1f\n  bytecodeSize\n  codesize\n  dup2\n  swap1\n  sub\n  swap2\n  dup3\n  add\n  not(0x1f)\n  and\n  dup4\n  add\n  swap2\n  sub(shl(0x40, 0x01), 0x01)\n  dup4\n  gt\n  dup5\n  dup5\n  lt\n  or\n  tag_3\n  jumpi\n  dup1\n  dup5\n  swap3\n  0x20\n  swap5\n  0x40\n  mstore\n  dup4\n  codecopy\n  dup2\n  add\n  sub\n  slt\n  tag_7\n  jumpi\n  mload\n  sub(shl(0xa0, 0x01), 0x01)\n  dup2\n  and\n  swap1\n  dup2\n  swap1\n  sub\n  tag_7\n  jumpi\n    /* \"contracts/1.Filing.sol\":348:360  100 * 10**18 */\n  0x056bc75e2d63100000\n  0x01\n    /* \"contracts/1.Filing.sol\":267:4092  contract Filling{... */\n  sstore\n    /* \"contracts/1.Filing.sol\":992:1010  owner = msg.sender */\n  0x02\n    /* \"contracts/1.Filing.sol\":267:4092  contract Filling{... */\n  dup1\n  sload\n  not(sub(shl(0xa0, 0x01), 0x01))\n  swap1\n  dup2\n  and\n    /* \"contracts/1.Filing.sol\":1000:1010  msg.sender */\n  caller\n    /* \"contracts/1.Filing.sol\":267:4092  contract Filling{... */\n  or\n  swap1\n  swap2\n  sstore\n  0x00\n  dup1\n  sload\n  swap1\n  swap2\n  and\n  swap2\n  swap1\n  swap2\n  or\n  swap1\n  sstore\n  mload(0x40)\n  dataSize(sub_0)\n  swap1\n  dup2\n  dataOffset(sub_0)\n  dup3\n  codecopy\n  return\ntag_7:\n  0x00\n  dup1\n  revert\ntag_3:\n  mstore(0x00, shl(0xe0, 0x4e487b71))\n  mstore(0x04, 0x41)\n  revert(0x00, 0x24)\nstop\n\nsub_0: assembly {\n        /* \"contracts/1.Filing.sol\":267:4092  contract Filling{... */\n      0x80\n      dup1\n      0x40\n      mstore\n      jumpi(tag_17, iszero(lt(calldatasize, 0x04)))\n      0x00\n      dup1\n      revert\n    tag_17:\n      shr(0xe0, calldataload(0x00))\n      swap1\n      dup2\n      0x307d9826\n      eq\n      tag_19\n      jumpi\n      pop\n      dup1\n      0x43449476\n      eq\n      tag_21\n      jumpi\n      dup1\n      0x4434dabb\n      eq\n      tag_23\n      jumpi\n      dup1\n      0x73169cf8\n      eq\n      tag_25\n      jumpi\n      dup1\n      0x73ba1217\n      eq\n      tag_27\n      jumpi\n      dup1\n      0x8da5cb5b\n      eq\n      tag_29\n      jumpi\n      dup1\n      0xaf600d3e\n      eq\n      tag_31\n      jumpi\n      dup1\n      0xe2ec869c\n      eq\n      tag_33\n      jumpi\n      dup1\n      0xe60f117f\n      eq\n      tag_35\n      jumpi\n      0xeb1c1412\n      eq\n      tag_37\n      jumpi\n      0x00\n      dup1\n      revert\n    tag_37:\n      jumpi(tag_41, callvalue)\n      jumpi(tag_41, slt(add(not(0x03), calldatasize), 0x20))\n      tag_43\n      tag_14\n      jump\t// in\n    tag_43:\n      pop\n        /* \"contracts/1.Filing.sol\":4063:4073  msg.sender */\n      caller\n        /* \"contracts/1.Filing.sol\":267:4092  contract Filling{... */\n      0x00\n      mstore\n      mstore(0x20, 0x04)\n      tag_44\n      tag_45\n        /* \"contracts/1.Filing.sol\":4055:4079  filings[msg.sender][_id] */\n      tag_46\n        /* \"contracts/1.Filing.sol\":267:4092  contract Filling{... */\n      calldataload(0x04)\n      keccak256(0x00, 0x40)\n        /* \"contracts/1.Filing.sol\":4055:4079  filings[msg.sender][_id] */\n      tag_9\n      jump\t// in\n    tag_46:\n        /* \"contracts/1.Filing.sol\":267:4092  contract Filling{... */\n      pop\n      tag_16\n      jump\t// in\n    tag_45:\n      mload(0x40)\n      swap2\n      dup3\n      swap2\n      0x20\n      dup4\n      mstore\n      0x20\n      dup4\n      add\n      swap1\n      tag_3\n      jump\t// in\n    tag_44:\n      sub\n      swap1\n      return\n    tag_41:\n      0x00\n      dup1\n      revert\n    tag_35:\n      jumpi(tag_41, callvalue)\n      jumpi(tag_41, slt(add(not(0x03), calldatasize), 0x40))\n      tag_51\n      tag_8\n      jump\t// in\n    tag_51:\n      sub(shl(0xa0, 0x01), 0x01)\n      and\n      0x00\n      swap1\n      dup2\n      mstore\n      mstore(0x20, 0x04)\n      0x40\n      swap1\n      keccak256\n      dup1\n      sload\n      calldataload(0x24)\n      swap1\n        /* \"contracts/1.Filing.sol\":1076:1123  mapping(address => FilingInfo[]) public filings */\n      dup2\n      lt\n      iszero\n      tag_41\n      jumpi\n      tag_54\n      swap2\n      tag_9\n      jump\t// in\n    tag_54:\n      pop\n        /* \"contracts/1.Filing.sol\":267:4092  contract Filling{... */\n      dup1\n      sload\n      sub(shl(0xa0, 0x01), 0x01)\n      and\n        /* \"contracts/1.Filing.sol\":1076:1123  mapping(address => FilingInfo[]) public filings */\n      tag_55\n        /* \"contracts/1.Filing.sol\":267:4092  contract Filling{... */\n      0x01\n        /* \"contracts/1.Filing.sol\":1076:1123  mapping(address => FilingInfo[]) public filings */\n      dup4\n      add\n      tag_11\n      jump\t// in\n    tag_55:\n      swap1\n      0x02\n      dup4\n      add\n        /* \"contracts/1.Filing.sol\":267:4092  contract Filling{... */\n      sload\n        /* \"contracts/1.Filing.sol\":1076:1123  mapping(address => FilingInfo[]) public filings */\n      swap3\n      0x03\n      dup2\n      add\n      tag_56\n      swap1\n      tag_11\n      jump\t// in\n    tag_56:\n        /* \"contracts/1.Filing.sol\":267:4092  contract Filling{... */\n      0x04\n        /* \"contracts/1.Filing.sol\":1076:1123  mapping(address => FilingInfo[]) public filings */\n      dup3\n      add\n        /* \"contracts/1.Filing.sol\":267:4092  contract Filling{... */\n      sload\n        /* \"contracts/1.Filing.sol\":1076:1123  mapping(address => FilingInfo[]) public filings */\n      tag_57\n      0x05\n      dup5\n      add\n      tag_11\n      jump\t// in\n    tag_57:\n      tag_58\n      0x06\n      dup6\n      add\n      tag_11\n      jump\t// in\n    tag_58:\n      tag_59\n      0x07\n      dup7\n      add\n      tag_11\n      jump\t// in\n    tag_59:\n      tag_60\n      0x08\n      dup8\n      add\n      tag_11\n      jump\t// in\n    tag_60:\n      swap2\n      tag_61\n      0x09\n      dup9\n      add\n      tag_11\n      jump\t// in\n    tag_61:\n      swap4\n      tag_62\n      0x0a\n      dup10\n      add\n      tag_11\n      jump\t// in\n    tag_62:\n      swap6\n      tag_63\n      0x0b\n      dup11\n      add\n      tag_11\n      jump\t// in\n    tag_63:\n      swap8\n      tag_64\n      0x0c\n      dup12\n      add\n      tag_11\n      jump\t// in\n    tag_64:\n      swap10\n      0x0d\n      add\n        /* \"contracts/1.Filing.sol\":267:4092  contract Filling{... */\n      sload\n      swap11\n      mload(0x40)\n      swap14\n      dup15\n      swap14\n      dup15\n      swap3\n      dup4\n      mstore\n      0x20\n      dup4\n      add\n      0x01c0\n      swap1\n      mstore\n      0x01c0\n      dup4\n      add\n      tag_65\n      swap2\n      tag_2\n      jump\t// in\n    tag_65:\n      swap2\n      0x40\n      add\n      mstore\n      dup13\n      dup1\n      dup3\n      sub\n      swap1\n      0x60\n      add\n      mstore\n      tag_66\n      swap2\n      tag_2\n      jump\t// in\n    tag_66:\n      swap1\n      0x80\n      dup13\n      add\n      mstore\n      dup11\n      dup2\n      sub\n      0xa0\n      dup13\n      add\n      mstore\n      tag_67\n      swap2\n      tag_2\n      jump\t// in\n    tag_67:\n      dup10\n      dup2\n      sub\n      0xc0\n      dup12\n      add\n      mstore\n      tag_68\n      swap2\n      tag_2\n      jump\t// in\n    tag_68:\n      dup9\n      dup2\n      sub\n      0xe0\n      dup11\n      add\n      mstore\n      tag_69\n      swap2\n      tag_2\n      jump\t// in\n    tag_69:\n      dup8\n      dup2\n      sub\n      0x0100\n      dup10\n      add\n      mstore\n      tag_70\n      swap2\n      tag_2\n      jump\t// in\n    tag_70:\n      dup7\n      dup2\n      sub\n      0x0120\n      dup9\n      add\n      mstore\n      tag_71\n      swap2\n      tag_2\n      jump\t// in\n    tag_71:\n      dup6\n      dup2\n      sub\n      0x0140\n      dup8\n      add\n      mstore\n      tag_72\n      swap2\n      tag_2\n      jump\t// in\n    tag_72:\n      dup5\n      dup2\n      sub\n      0x0160\n      dup7\n      add\n      mstore\n      tag_73\n      swap2\n      tag_2\n      jump\t// in\n    tag_73:\n      dup4\n      dup2\n      sub\n      0x0180\n      dup6\n      add\n      mstore\n      tag_74\n      swap2\n      tag_2\n      jump\t// in\n    tag_74:\n      swap1\n      0x01a0\n      dup4\n      add\n      mstore\n      sub\n      swap1\n      return\n    tag_33:\n      jumpi(tag_41, callvalue)\n      jumpi(tag_41, slt(add(not(0x03), calldatasize), 0x20))\n      tag_79\n      tag_8\n      jump\t// in\n    tag_79:\n        /* \"contracts/1.Filing.sol\":1164:1229  require(msg.sender == owner, \"Only owner can call this function\") */\n      tag_80\n        /* \"contracts/1.Filing.sol\":267:4092  contract Filling{... */\n      0x01\n      dup1\n      0xa0\n      shl\n      sub\n        /* \"contracts/1.Filing.sol\":1186:1191  owner */\n      0x02\n        /* \"contracts/1.Filing.sol\":267:4092  contract Filling{... */\n      sload\n      and\n        /* \"contracts/1.Filing.sol\":1172:1182  msg.sender */\n      caller\n        /* \"contracts/1.Filing.sol\":1172:1191  msg.sender == owner */\n      eq\n        /* \"contracts/1.Filing.sol\":1164:1229  require(msg.sender == owner, \"Only owner can call this function\") */\n      tag_12\n      jump\t// in\n    tag_80:\n      sub(shl(0xa0, 0x01), 0x01)\n        /* \"contracts/1.Filing.sol\":267:4092  contract Filling{... */\n      and\n      0x00\n      swap1\n      dup2\n      mstore\n      mstore(0x20, 0x04)\n      0x40\n      swap1\n      keccak256\n      dup1\n      sload\n      tag_81\n      dup2\n      tag_13\n      jump\t// in\n    tag_81:\n      swap2\n      tag_82\n      mload(0x40)\n      swap4\n      dup5\n      tag_6\n      jump\t// in\n    tag_82:\n      dup2\n      dup4\n      mstore\n      0x20\n      dup4\n      add\n      swap1\n      0x00\n      mstore\n      keccak256(0x00, 0x20)\n      0x00\n      swap2\n    tag_83:\n      dup4\n      dup4\n      lt\n      tag_84\n      jumpi\n      mload(0x40)\n      dup1\n      tag_44\n      dup8\n      dup3\n      tag_4\n      jump\t// in\n    tag_84:\n      0x0e\n      0x20\n      0x01\n      swap3\n      tag_87\n      dup6\n      tag_16\n      jump\t// in\n    tag_87:\n      dup2\n      mstore\n      add\n      swap3\n      add\n      swap3\n      add\n      swap2\n      swap1\n      jump(tag_83)\n    tag_31:\n      jumpi(tag_41, slt(add(not(0x03), calldatasize), 0x0180))\n      calldataload(0x04)\n      sub(shl(0x40, 0x01), 0x01)\n      dup2\n      gt\n      tag_41\n      jumpi\n      tag_92\n      swap1\n      calldatasize\n      swap1\n      0x04\n      add\n      tag_7\n      jump\t// in\n    tag_92:\n      calldataload(0x44)\n      sub(shl(0x40, 0x01), 0x01)\n      dup2\n      gt\n      tag_41\n      jumpi\n      tag_95\n      swap1\n      calldatasize\n      swap1\n      0x04\n      add\n      tag_7\n      jump\t// in\n    tag_95:\n      calldataload(0x84)\n      sub(shl(0x40, 0x01), 0x01)\n      dup2\n      gt\n      tag_41\n      jumpi\n      tag_98\n      swap1\n      calldatasize\n      swap1\n      0x04\n      add\n      tag_7\n      jump\t// in\n    tag_98:\n      swap2\n      calldataload(0xa4)\n      sub(shl(0x40, 0x01), 0x01)\n      dup2\n      gt\n      tag_41\n      jumpi\n      tag_101\n      swap1\n      calldatasize\n      swap1\n      0x04\n      add\n      tag_7\n      jump\t// in\n    tag_101:\n      calldataload(0xc4)\n      sub(shl(0x40, 0x01), 0x01)\n      dup2\n      gt\n      tag_41\n      jumpi\n      tag_104\n      swap1\n      calldatasize\n      swap1\n      0x04\n      add\n      tag_7\n      jump\t// in\n    tag_104:\n      calldataload(0xe4)\n      sub(shl(0x40, 0x01), 0x01)\n      dup2\n      gt\n      tag_41\n      jumpi\n      tag_107\n      swap1\n      calldatasize\n      swap1\n      0x04\n      add\n      tag_7\n      jump\t// in\n    tag_107:\n      calldataload(0x0104)\n      sub(shl(0x40, 0x01), 0x01)\n      dup2\n      gt\n      tag_41\n      jumpi\n      tag_110\n      swap1\n      calldatasize\n      swap1\n      0x04\n      add\n      tag_7\n      jump\t// in\n    tag_110:\n      swap1\n      calldataload(0x0124)\n      sub(shl(0x40, 0x01), 0x01)\n      dup2\n      gt\n      tag_41\n      jumpi\n      tag_113\n      swap1\n      calldatasize\n      swap1\n      0x04\n      add\n      tag_7\n      jump\t// in\n    tag_113:\n      swap3\n      calldataload(0x0144)\n      sub(shl(0x40, 0x01), 0x01)\n      dup2\n      gt\n      tag_41\n      jumpi\n      tag_116\n      swap1\n      calldatasize\n      swap1\n      0x04\n      add\n      tag_7\n      jump\t// in\n    tag_116:\n      swap5\n      calldataload(0x0164)\n      sub(shl(0x40, 0x01), 0x01)\n      dup2\n      gt\n      tag_41\n      jumpi\n      tag_119\n      swap1\n      calldatasize\n      swap1\n      0x04\n      add\n      tag_7\n      jump\t// in\n    tag_119:\n      swap9\n      0x01\n      dup1\n      0xa0\n      shl\n      sub\n      sload(0x00)\n      and\n      mload(0x40)\n      shl(0xe0, 0x70a08231)\n        /* \"contracts/1.Filing.sol\":1835:1867  SetfoToken.balanceOf(msg.sender) */\n      dup2\n      mstore\n        /* \"contracts/1.Filing.sol\":1856:1866  msg.sender */\n      caller\n        /* \"contracts/1.Filing.sol\":267:4092  contract Filling{... */\n      0x04\n        /* \"contracts/1.Filing.sol\":1835:1867  SetfoToken.balanceOf(msg.sender) */\n      dup3\n      add\n        /* \"contracts/1.Filing.sol\":267:4092  contract Filling{... */\n      mstore\n      0x20\n        /* \"contracts/1.Filing.sol\":1835:1867  SetfoToken.balanceOf(msg.sender) */\n      dup2\n        /* \"contracts/1.Filing.sol\":267:4092  contract Filling{... */\n      0x24\n        /* \"contracts/1.Filing.sol\":1835:1867  SetfoToken.balanceOf(msg.sender) */\n      dup2\n      dup6\n      gas\n      staticcall\n      swap1\n      dup2\n      iszero\n      tag_126\n      jumpi\n        /* \"contracts/1.Filing.sol\":267:4092  contract Filling{... */\n      0x00\n        /* \"contracts/1.Filing.sol\":1835:1867  SetfoToken.balanceOf(msg.sender) */\n      swap2\n      tag_122\n      jumpi\n        /* \"contracts/1.Filing.sol\":267:4092  contract Filling{... */\n    tag_123:\n      pop\n      sload(0x01)\n        /* \"contracts/1.Filing.sol\":1835:1880  SetfoToken.balanceOf(msg.sender) >= filingFee */\n      dup1\n      swap2\n      lt\n        /* \"contracts/1.Filing.sol\":267:4092  contract Filling{... */\n      tag_124\n      jumpi\n      0x00\n      swap2\n      0x64\n      0x20\n      swap3\n      mload(0x40)\n      swap5\n      dup6\n      swap4\n      dup5\n      swap3\n      shl(0xe0, 0x23b872dd)\n        /* \"contracts/1.Filing.sol\":1990:2051  SetfoToken.transferFrom(msg.sender, address(this), filingFee) */\n      dup5\n      mstore\n        /* \"contracts/1.Filing.sol\":1856:1866  msg.sender */\n      caller\n        /* \"contracts/1.Filing.sol\":267:4092  contract Filling{... */\n      0x04\n        /* \"contracts/1.Filing.sol\":1990:2051  SetfoToken.transferFrom(msg.sender, address(this), filingFee) */\n      dup6\n      add\n        /* \"contracts/1.Filing.sol\":267:4092  contract Filling{... */\n      mstore\n        /* \"contracts/1.Filing.sol\":2034:2038  this */\n      address\n        /* \"contracts/1.Filing.sol\":267:4092  contract Filling{... */\n      0x24\n      dup6\n      add\n      mstore\n      0x44\n      dup5\n      add\n      mstore\n        /* \"contracts/1.Filing.sol\":1990:2051  SetfoToken.transferFrom(msg.sender, address(this), filingFee) */\n      gas\n      call\n      swap1\n      dup2\n      iszero\n      tag_126\n      jumpi\n        /* \"contracts/1.Filing.sol\":267:4092  contract Filling{... */\n      0x00\n        /* \"contracts/1.Filing.sol\":1990:2051  SetfoToken.transferFrom(msg.sender, address(this), filingFee) */\n      swap2\n      tag_128\n      jumpi\n        /* \"contracts/1.Filing.sol\":267:4092  contract Filling{... */\n    tag_129:\n      pop\n      iszero\n      tag_130\n      jumpi\n        /* \"contracts/1.Filing.sol\":1856:1866  msg.sender */\n      caller\n        /* \"contracts/1.Filing.sol\":267:4092  contract Filling{... */\n      0x00\n      mstore\n      mstore(0x20, 0x04)\n      sload(keccak256(0x00, 0x40))\n        /* \"contracts/1.Filing.sol\":2093:2124  filings[msg.sender].length == 0 */\n      iszero\n        /* \"contracts/1.Filing.sol\":2090:2175  if(filings[msg.sender].length == 0){... */\n      tag_132\n      jumpi\n        /* \"contracts/1.Filing.sol\":267:4092  contract Filling{... */\n    tag_133:\n      mload(0x40)\n      swap9\n      tag_134\n      dup11\n      tag_5\n      jump\t// in\n    tag_134:\n        /* \"contracts/1.Filing.sol\":1856:1866  msg.sender */\n      caller\n        /* \"contracts/1.Filing.sol\":267:4092  contract Filling{... */\n      dup11\n      mstore\n      0x20\n        /* \"contracts/1.Filing.sol\":2217:2949  FilingInfo({... */\n      dup11\n      add\n        /* \"contracts/1.Filing.sol\":267:4092  contract Filling{... */\n      swap9\n      dup10\n      mstore\n      0x40\n        /* \"contracts/1.Filing.sol\":2217:2949  FilingInfo({... */\n      dup11\n      add\n        /* \"contracts/1.Filing.sol\":267:4092  contract Filling{... */\n      swap1\n      calldataload(0x24)\n      dup3\n      mstore\n      0x60\n        /* \"contracts/1.Filing.sol\":2217:2949  FilingInfo({... */\n      dup12\n      add\n        /* \"contracts/1.Filing.sol\":267:4092  contract Filling{... */\n      swap1\n      dup2\n      mstore\n      0x80\n        /* \"contracts/1.Filing.sol\":2217:2949  FilingInfo({... */\n      dup12\n      add\n        /* \"contracts/1.Filing.sol\":267:4092  contract Filling{... */\n      swap2\n      calldataload(0x64)\n      dup4\n      mstore\n      0xa0\n        /* \"contracts/1.Filing.sol\":2217:2949  FilingInfo({... */\n      dup13\n      add\n        /* \"contracts/1.Filing.sol\":267:4092  contract Filling{... */\n      swap4\n      dup5\n      mstore\n      0xc0\n        /* \"contracts/1.Filing.sol\":2217:2949  FilingInfo({... */\n      dup13\n      add\n        /* \"contracts/1.Filing.sol\":267:4092  contract Filling{... */\n      swap5\n      dup6\n      mstore\n      0xe0\n        /* \"contracts/1.Filing.sol\":2217:2949  FilingInfo({... */\n      dup13\n      add\n        /* \"contracts/1.Filing.sol\":267:4092  contract Filling{... */\n      swap6\n      dup7\n      mstore\n      0x0100\n        /* \"contracts/1.Filing.sol\":2217:2949  FilingInfo({... */\n      dup13\n      add\n        /* \"contracts/1.Filing.sol\":267:4092  contract Filling{... */\n      swap7\n      dup8\n      mstore\n      0x0120\n        /* \"contracts/1.Filing.sol\":2217:2949  FilingInfo({... */\n      dup13\n      add\n        /* \"contracts/1.Filing.sol\":267:4092  contract Filling{... */\n      swap8\n      dup9\n      mstore\n      0x0140\n        /* \"contracts/1.Filing.sol\":2217:2949  FilingInfo({... */\n      dup13\n      add\n        /* \"contracts/1.Filing.sol\":267:4092  contract Filling{... */\n      swap9\n      dup10\n      mstore\n      0x0160\n        /* \"contracts/1.Filing.sol\":2217:2949  FilingInfo({... */\n      dup13\n      add\n        /* \"contracts/1.Filing.sol\":267:4092  contract Filling{... */\n      swap10\n      dup11\n      mstore\n      0x0180\n        /* \"contracts/1.Filing.sol\":2217:2949  FilingInfo({... */\n      dup13\n      add\n        /* \"contracts/1.Filing.sol\":267:4092  contract Filling{... */\n      swap13\n      dup14\n      mstore\n        /* \"contracts/1.Filing.sol\":2217:2949  FilingInfo({... */\n      0x01a0\n      dup13\n      add\n        /* \"contracts/1.Filing.sol\":2922:2937  block.timestamp */\n      swap11\n      timestamp\n        /* \"contracts/1.Filing.sol\":267:4092  contract Filling{... */\n      dup13\n      mstore\n        /* \"contracts/1.Filing.sol\":1856:1866  msg.sender */\n      caller\n        /* \"contracts/1.Filing.sol\":267:4092  contract Filling{... */\n      0x00\n      mstore\n      mstore(0x20, 0x04)\n      keccak256(0x00, 0x40)\n      dup1\n      sload\n      shl(0x40, 0x01)\n      dup2\n      lt\n      iszero\n      tag_230\n      jumpi\n      tag_137\n      swap2\n      0x01\n      dup3\n      add\n      dup2\n      sstore\n      tag_9\n      jump\t// in\n    tag_137:\n      swap14\n      swap1\n      swap14\n      tag_138\n      jumpi\n      mload\n      dup14\n      sload\n      not(sub(shl(0xa0, 0x01), 0x01))\n      and\n      sub(shl(0xa0, 0x01), 0x01)\n      swap2\n      swap1\n      swap2\n      and\n      or\n      dup14\n      sstore\n      mload\n      dup1\n      mload\n      0x01\n      dup15\n      add\n      swap2\n      sub(shl(0x40, 0x01), 0x01)\n      dup3\n      gt\n      tag_230\n      jumpi\n      dup2\n      swap1\n      tag_142\n      dup5\n      sload\n      tag_10\n      jump\t// in\n    tag_142:\n      0x1f\n      dup2\n      gt\n      tag_143\n      jumpi\n    tag_144:\n      pop\n      0x20\n      swap1\n      0x1f\n      dup4\n      gt\n      0x01\n      eq\n      tag_145\n      jumpi\n      0x00\n      swap3\n      tag_147\n      jumpi\n    tag_148:\n      pop\n      pop\n      dup2\n      0x01\n      shl\n      swap2\n      not(0x00)\n      swap1\n      0x03\n      shl\n      shr\n      not\n      and\n      or\n      swap1\n      sstore\n    tag_149:\n      mload\n      0x02\n      dup13\n      add\n      sstore\n      mload\n      dup1\n      mload\n      0x03\n      dup13\n      add\n      swap2\n      sub(shl(0x40, 0x01), 0x01)\n      dup3\n      gt\n      tag_230\n      jumpi\n      dup2\n      swap1\n      tag_152\n      dup5\n      sload\n      tag_10\n      jump\t// in\n    tag_152:\n      0x1f\n      dup2\n      gt\n      tag_153\n      jumpi\n    tag_154:\n      pop\n      0x20\n      swap1\n      0x1f\n      dup4\n      gt\n      0x01\n      eq\n      tag_155\n      jumpi\n      0x00\n      swap3\n      tag_157\n      jumpi\n    tag_158:\n      pop\n      pop\n      dup2\n      0x01\n      shl\n      swap2\n      not(0x00)\n      swap1\n      0x03\n      shl\n      shr\n      not\n      and\n      or\n      swap1\n      sstore\n    tag_159:\n      mload\n      0x04\n      dup11\n      add\n      sstore\n      mload\n      dup1\n      mload\n      0x05\n      dup11\n      add\n      swap2\n      sub(shl(0x40, 0x01), 0x01)\n      dup3\n      gt\n      tag_230\n      jumpi\n      dup2\n      swap1\n      tag_162\n      dup5\n      sload\n      tag_10\n      jump\t// in\n    tag_162:\n      0x1f\n      dup2\n      gt\n      tag_163\n      jumpi\n    tag_164:\n      pop\n      0x20\n      swap1\n      0x1f\n      dup4\n      gt\n      0x01\n      eq\n      tag_165\n      jumpi\n      0x00\n      swap3\n      tag_167\n      jumpi\n    tag_168:\n      pop\n      pop\n      dup2\n      0x01\n      shl\n      swap2\n      not(0x00)\n      swap1\n      0x03\n      shl\n      shr\n      not\n      and\n      or\n      swap1\n      sstore\n    tag_169:\n      mload\n      dup1\n      mload\n      0x06\n      dup10\n      add\n      swap2\n      sub(shl(0x40, 0x01), 0x01)\n      dup3\n      gt\n      tag_230\n      jumpi\n      dup2\n      swap1\n      tag_172\n      dup5\n      sload\n      tag_10\n      jump\t// in\n    tag_172:\n      0x1f\n      dup2\n      gt\n      tag_173\n      jumpi\n    tag_174:\n      pop\n      0x20\n      swap1\n      0x1f\n      dup4\n      gt\n      0x01\n      eq\n      tag_175\n      jumpi\n      0x00\n      swap3\n      tag_177\n      jumpi\n    tag_178:\n      pop\n      pop\n      dup2\n      0x01\n      shl\n      swap2\n      not(0x00)\n      swap1\n      0x03\n      shl\n      shr\n      not\n      and\n      or\n      swap1\n      sstore\n    tag_179:\n      mload\n      dup1\n      mload\n      0x07\n      dup9\n      add\n      swap2\n      sub(shl(0x40, 0x01), 0x01)\n      dup3\n      gt\n      tag_230\n      jumpi\n      dup2\n      swap1\n      tag_182\n      dup5\n      sload\n      tag_10\n      jump\t// in\n    tag_182:\n      0x1f\n      dup2\n      gt\n      tag_183\n      jumpi\n    tag_184:\n      pop\n      0x20\n      swap1\n      0x1f\n      dup4\n      gt\n      0x01\n      eq\n      tag_185\n      jumpi\n      0x00\n      swap3\n      tag_187\n      jumpi\n    tag_188:\n      pop\n      pop\n      dup2\n      0x01\n      shl\n      swap2\n      not(0x00)\n      swap1\n      0x03\n      shl\n      shr\n      not\n      and\n      or\n      swap1\n      sstore\n    tag_189:\n      mload\n      dup1\n      mload\n      0x08\n      dup8\n      add\n      swap2\n      sub(shl(0x40, 0x01), 0x01)\n      dup3\n      gt\n      tag_230\n      jumpi\n      dup2\n      swap1\n      tag_192\n      dup5\n      sload\n      tag_10\n      jump\t// in\n    tag_192:\n      0x1f\n      dup2\n      gt\n      tag_193\n      jumpi\n    tag_194:\n      pop\n      0x20\n      swap1\n      0x1f\n      dup4\n      gt\n      0x01\n      eq\n      tag_195\n      jumpi\n      0x00\n      swap3\n      tag_197\n      jumpi\n    tag_198:\n      pop\n      pop\n      dup2\n      0x01\n      shl\n      swap2\n      not(0x00)\n      swap1\n      0x03\n      shl\n      shr\n      not\n      and\n      or\n      swap1\n      sstore\n    tag_199:\n      mload\n      dup1\n      mload\n      0x09\n      dup7\n      add\n      swap2\n      sub(shl(0x40, 0x01), 0x01)\n      dup3\n      gt\n      tag_230\n      jumpi\n      dup2\n      swap1\n      tag_202\n      dup5\n      sload\n      tag_10\n      jump\t// in\n    tag_202:\n      0x1f\n      dup2\n      gt\n      tag_203\n      jumpi\n    tag_204:\n      pop\n      0x20\n      swap1\n      0x1f\n      dup4\n      gt\n      0x01\n      eq\n      tag_205\n      jumpi\n      0x00\n      swap3\n      tag_207\n      jumpi\n    tag_208:\n      pop\n      pop\n      dup2\n      0x01\n      shl\n      swap2\n      not(0x00)\n      swap1\n      0x03\n      shl\n      shr\n      not\n      and\n      or\n      swap1\n      sstore\n    tag_209:\n      mload\n      dup1\n      mload\n      0x0a\n      dup6\n      add\n      swap2\n      sub(shl(0x40, 0x01), 0x01)\n      dup3\n      gt\n      tag_230\n      jumpi\n      dup2\n      swap1\n      tag_212\n      dup5\n      sload\n      tag_10\n      jump\t// in\n    tag_212:\n      0x1f\n      dup2\n      gt\n      tag_213\n      jumpi\n    tag_214:\n      pop\n      0x20\n      swap1\n      0x1f\n      dup4\n      gt\n      0x01\n      eq\n      tag_215\n      jumpi\n      0x00\n      swap3\n      tag_217\n      jumpi\n    tag_218:\n      pop\n      pop\n      dup2\n      0x01\n      shl\n      swap2\n      not(0x00)\n      swap1\n      0x03\n      shl\n      shr\n      not\n      and\n      or\n      swap1\n      sstore\n    tag_219:\n      mload\n      dup1\n      mload\n      0x0b\n      dup5\n      add\n      swap2\n      sub(shl(0x40, 0x01), 0x01)\n      dup3\n      gt\n      tag_230\n      jumpi\n      dup2\n      swap1\n      tag_222\n      dup5\n      sload\n      tag_10\n      jump\t// in\n    tag_222:\n      0x1f\n      dup2\n      gt\n      tag_223\n      jumpi\n    tag_224:\n      pop\n      0x20\n      swap1\n      0x1f\n      dup4\n      gt\n      0x01\n      eq\n      tag_225\n      jumpi\n      0x00\n      swap3\n      tag_227\n      jumpi\n    tag_228:\n      pop\n      pop\n      dup2\n      0x01\n      shl\n      swap2\n      not(0x00)\n      swap1\n      0x03\n      shl\n      shr\n      not\n      and\n      or\n      swap1\n      sstore\n    tag_229:\n      0x0c\n      dup3\n      add\n      swap3\n      mload\n      swap3\n      dup4\n      mload\n      sub(shl(0x40, 0x01), 0x01)\n      dup2\n      gt\n      tag_230\n      jumpi\n      tag_232\n      dup3\n      sload\n      tag_10\n      jump\t// in\n    tag_232:\n      0x1f\n      dup2\n      gt\n      tag_233\n      jumpi\n    tag_234:\n      pop\n      0x20\n      0x1f\n      dup3\n      gt\n      0x01\n      eq\n      tag_235\n      jumpi\n      dup2\n      swap1\n      0x0d\n      swap6\n      swap7\n      0x00\n      swap3\n      tag_237\n      jumpi\n    tag_238:\n      pop\n      pop\n      dup2\n      0x01\n      shl\n      swap2\n      not(0x00)\n      swap1\n      0x03\n      shl\n      shr\n      not\n      and\n      or\n      swap1\n      sstore\n    tag_239:\n      mload\n      swap2\n      add\n      sstore\n      stop\n    tag_237:\n      add\n      mload\n      swap1\n      pop\n      dup7\n      dup1\n      jump(tag_238)\n    tag_235:\n      not(0x1f)\n      dup3\n      and\n      swap6\n      dup4\n      0x00\n      mstore\n      dup2\n      0x00\n      keccak256\n      swap7\n      0x00\n    tag_240:\n      dup2\n      dup2\n      lt\n      tag_241\n      jumpi\n      pop\n      swap2\n      0x0d\n      swap7\n      swap8\n      swap2\n      dup5\n      0x01\n      swap6\n      swap5\n      lt\n      tag_243\n      jumpi\n    tag_244:\n      pop\n      pop\n      pop\n      dup2\n      shl\n      add\n      swap1\n      sstore\n      jump(tag_239)\n    tag_243:\n      add\n      mload\n      not(0x00)\n      0xf8\n      dup5\n      0x03\n      shl\n      and\n      shr\n      not\n      and\n      swap1\n      sstore\n      dup7\n      dup1\n      dup1\n      jump(tag_244)\n    tag_241:\n      dup4\n      dup4\n      add\n      mload\n      dup10\n      sstore\n      0x01\n      swap1\n      swap9\n      add\n      swap8\n      0x20\n      swap4\n      dup5\n      add\n      swap4\n      add\n      jump(tag_240)\n    tag_233:\n      dup3\n      0x00\n      mstore\n      keccak256(0x00, 0x20)\n      0x1f\n      dup4\n      add\n      0x05\n      shr\n      dup2\n      add\n      swap2\n      0x20\n      dup5\n      lt\n      tag_245\n      jumpi\n    tag_246:\n      0x1f\n      add\n      0x05\n      shr\n      add\n      swap1\n    tag_247:\n      dup2\n      dup2\n      lt\n      tag_248\n      jumpi\n      pop\n      jump(tag_234)\n    tag_248:\n      0x00\n      dup2\n      sstore\n      0x01\n      add\n      jump(tag_247)\n    tag_245:\n      swap1\n      swap2\n      pop\n      dup2\n      swap1\n      jump(tag_246)\n    tag_230:\n      mstore(0x00, shl(0xe0, 0x4e487b71))\n      mstore(0x04, 0x41)\n      revert(0x00, 0x24)\n    tag_227:\n      add\n      mload\n      swap1\n      pop\n      dup7\n      dup1\n      jump(tag_228)\n    tag_225:\n      0x00\n      dup6\n      dup2\n      mstore\n      dup3\n      dup2\n      keccak256\n      swap4\n      pop\n      not(0x1f)\n      dup6\n      and\n      swap1\n    tag_250:\n      dup2\n      dup2\n      lt\n      tag_251\n      jumpi\n      pop\n      swap1\n      dup5\n      0x01\n      swap6\n      swap5\n      swap4\n      swap3\n      lt\n      tag_253\n      jumpi\n    tag_254:\n      pop\n      pop\n      pop\n      dup2\n      shl\n      add\n      swap1\n      sstore\n      jump(tag_229)\n    tag_253:\n      add\n      mload\n      not(0x00)\n      0xf8\n      dup5\n      0x03\n      shl\n      and\n      shr\n      not\n      and\n      swap1\n      sstore\n      dup7\n      dup1\n      dup1\n      jump(tag_254)\n    tag_251:\n      swap3\n      swap4\n      0x20\n      0x01\n      dup2\n      swap3\n      dup8\n      dup7\n      add\n      mload\n      dup2\n      sstore\n      add\n      swap6\n      add\n      swap4\n      add\n      jump(tag_250)\n    tag_223:\n      swap1\n      swap2\n      pop\n      dup4\n      0x00\n      mstore\n      keccak256(0x00, 0x20)\n      0x1f\n      dup5\n      add\n      0x05\n      shr\n      dup2\n      add\n      swap2\n      0x20\n      dup6\n      lt\n      tag_255\n      jumpi\n    tag_256:\n      swap1\n      0x1f\n      dup6\n      swap5\n      swap4\n      swap3\n      add\n      0x05\n      shr\n      add\n      swap1\n    tag_257:\n      dup2\n      dup2\n      lt\n      tag_258\n      jumpi\n      pop\n      jump(tag_224)\n    tag_258:\n      0x00\n      dup2\n      sstore\n      dup5\n      swap4\n      pop\n      0x01\n      add\n      jump(tag_257)\n    tag_255:\n      swap1\n      swap2\n      pop\n      dup2\n      swap1\n      jump(tag_256)\n    tag_217:\n      add\n      mload\n      swap1\n      pop\n      dup8\n      dup1\n      jump(tag_218)\n    tag_215:\n      0x00\n      dup6\n      dup2\n      mstore\n      dup3\n      dup2\n      keccak256\n      swap4\n      pop\n      not(0x1f)\n      dup6\n      and\n      swap1\n    tag_260:\n      dup2\n      dup2\n      lt\n      tag_261\n      jumpi\n      pop\n      swap1\n      dup5\n      0x01\n      swap6\n      swap5\n      swap4\n      swap3\n      lt\n      tag_263\n      jumpi\n    tag_264:\n      pop\n      pop\n      pop\n      dup2\n      shl\n      add\n      swap1\n      sstore\n      jump(tag_219)\n    tag_263:\n      add\n      mload\n      not(0x00)\n      0xf8\n      dup5\n      0x03\n      shl\n      and\n      shr\n      not\n      and\n      swap1\n      sstore\n      dup8\n      dup1\n      dup1\n      jump(tag_264)\n    tag_261:\n      swap3\n      swap4\n      0x20\n      0x01\n      dup2\n      swap3\n      dup8\n      dup7\n      add\n      mload\n      dup2\n      sstore\n      add\n      swap6\n      add\n      swap4\n      add\n      jump(tag_260)\n    tag_213:\n      swap1\n      swap2\n      pop\n      dup4\n      0x00\n      mstore\n      keccak256(0x00, 0x20)\n      0x1f\n      dup5\n      add\n      0x05\n      shr\n      dup2\n      add\n      swap2\n      0x20\n      dup6\n      lt\n      tag_265\n      jumpi\n    tag_266:\n      swap1\n      0x1f\n      dup6\n      swap5\n      swap4\n      swap3\n      add\n      0x05\n      shr\n      add\n      swap1\n    tag_267:\n      dup2\n      dup2\n      lt\n      tag_268\n      jumpi\n      pop\n      jump(tag_214)\n    tag_268:\n      0x00\n      dup2\n      sstore\n      dup5\n      swap4\n      pop\n      0x01\n      add\n      jump(tag_267)\n    tag_265:\n      swap1\n      swap2\n      pop\n      dup2\n      swap1\n      jump(tag_266)\n    tag_207:\n      add\n      mload\n      swap1\n      pop\n      dup9\n      dup1\n      jump(tag_208)\n    tag_205:\n      0x00\n      dup6\n      dup2\n      mstore\n      dup3\n      dup2\n      keccak256\n      swap4\n      pop\n      not(0x1f)\n      dup6\n      and\n      swap1\n    tag_270:\n      dup2\n      dup2\n      lt\n      tag_271\n      jumpi\n      pop\n      swap1\n      dup5\n      0x01\n      swap6\n      swap5\n      swap4\n      swap3\n      lt\n      tag_273\n      jumpi\n    tag_274:\n      pop\n      pop\n      pop\n      dup2\n      shl\n      add\n      swap1\n      sstore\n      jump(tag_209)\n    tag_273:\n      add\n      mload\n      not(0x00)\n      0xf8\n      dup5\n      0x03\n      shl\n      and\n      shr\n      not\n      and\n      swap1\n      sstore\n      dup9\n      dup1\n      dup1\n      jump(tag_274)\n    tag_271:\n      swap3\n      swap4\n      0x20\n      0x01\n      dup2\n      swap3\n      dup8\n      dup7\n      add\n      mload\n      dup2\n      sstore\n      add\n      swap6\n      add\n      swap4\n      add\n      jump(tag_270)\n    tag_203:\n      swap1\n      swap2\n      pop\n      dup4\n      0x00\n      mstore\n      keccak256(0x00, 0x20)\n      0x1f\n      dup5\n      add\n      0x05\n      shr\n      dup2\n      add\n      swap2\n      0x20\n      dup6\n      lt\n      tag_275\n      jumpi\n    tag_276:\n      swap1\n      0x1f\n      dup6\n      swap5\n      swap4\n      swap3\n      add\n      0x05\n      shr\n      add\n      swap1\n    tag_277:\n      dup2\n      dup2\n      lt\n      tag_278\n      jumpi\n      pop\n      jump(tag_204)\n    tag_278:\n      0x00\n      dup2\n      sstore\n      dup5\n      swap4\n      pop\n      0x01\n      add\n      jump(tag_277)\n    tag_275:\n      swap1\n      swap2\n      pop\n      dup2\n      swap1\n      jump(tag_276)\n    tag_197:\n      add\n      mload\n      swap1\n      pop\n      dup10\n      dup1\n      jump(tag_198)\n    tag_195:\n      0x00\n      dup6\n      dup2\n      mstore\n      dup3\n      dup2\n      keccak256\n      swap4\n      pop\n      not(0x1f)\n      dup6\n      and\n      swap1\n    tag_280:\n      dup2\n      dup2\n      lt\n      tag_281\n      jumpi\n      pop\n      swap1\n      dup5\n      0x01\n      swap6\n      swap5\n      swap4\n      swap3\n      lt\n      tag_283\n      jumpi\n    tag_284:\n      pop\n      pop\n      pop\n      dup2\n      shl\n      add\n      swap1\n      sstore\n      jump(tag_199)\n    tag_283:\n      add\n      mload\n      not(0x00)\n      0xf8\n      dup5\n      0x03\n      shl\n      and\n      shr\n      not\n      and\n      swap1\n      sstore\n      dup10\n      dup1\n      dup1\n      jump(tag_284)\n    tag_281:\n      swap3\n      swap4\n      0x20\n      0x01\n      dup2\n      swap3\n      dup8\n      dup7\n      add\n      mload\n      dup2\n      sstore\n      add\n      swap6\n      add\n      swap4\n      add\n      jump(tag_280)\n    tag_193:\n      swap1\n      swap2\n      pop\n      dup4\n      0x00\n      mstore\n      keccak256(0x00, 0x20)\n      0x1f\n      dup5\n      add\n      0x05\n      shr\n      dup2\n      add\n      swap2\n      0x20\n      dup6\n      lt\n      tag_285\n      jumpi\n    tag_286:\n      swap1\n      0x1f\n      dup6\n      swap5\n      swap4\n      swap3\n      add\n      0x05\n      shr\n      add\n      swap1\n    tag_287:\n      dup2\n      dup2\n      lt\n      tag_288\n      jumpi\n      pop\n      jump(tag_194)\n    tag_288:\n      0x00\n      dup2\n      sstore\n      dup5\n      swap4\n      pop\n      0x01\n      add\n      jump(tag_287)\n    tag_285:\n      swap1\n      swap2\n      pop\n      dup2\n      swap1\n      jump(tag_286)\n    tag_187:\n      add\n      mload\n      swap1\n      pop\n      dup11\n      dup1\n      jump(tag_188)\n    tag_185:\n      0x00\n      dup6\n      dup2\n      mstore\n      dup3\n      dup2\n      keccak256\n      swap4\n      pop\n      not(0x1f)\n      dup6\n      and\n      swap1\n    tag_290:\n      dup2\n      dup2\n      lt\n      tag_291\n      jumpi\n      pop\n      swap1\n      dup5\n      0x01\n      swap6\n      swap5\n      swap4\n      swap3\n      lt\n      tag_293\n      jumpi\n    tag_294:\n      pop\n      pop\n      pop\n      dup2\n      shl\n      add\n      swap1\n      sstore\n      jump(tag_189)\n    tag_293:\n      add\n      mload\n      not(0x00)\n      0xf8\n      dup5\n      0x03\n      shl\n      and\n      shr\n      not\n      and\n      swap1\n      sstore\n      dup11\n      dup1\n      dup1\n      jump(tag_294)\n    tag_291:\n      swap3\n      swap4\n      0x20\n      0x01\n      dup2\n      swap3\n      dup8\n      dup7\n      add\n      mload\n      dup2\n      sstore\n      add\n      swap6\n      add\n      swap4\n      add\n      jump(tag_290)\n    tag_183:\n      swap1\n      swap2\n      pop\n      dup4\n      0x00\n      mstore\n      keccak256(0x00, 0x20)\n      0x1f\n      dup5\n      add\n      0x05\n      shr\n      dup2\n      add\n      swap2\n      0x20\n      dup6\n      lt\n      tag_295\n      jumpi\n    tag_296:\n      swap1\n      0x1f\n      dup6\n      swap5\n      swap4\n      swap3\n      add\n      0x05\n      shr\n      add\n      swap1\n    tag_297:\n      dup2\n      dup2\n      lt\n      tag_298\n      jumpi\n      pop\n      jump(tag_184)\n    tag_298:\n      0x00\n      dup2\n      sstore\n      dup5\n      swap4\n      pop\n      0x01\n      add\n      jump(tag_297)\n    tag_295:\n      swap1\n      swap2\n      pop\n      dup2\n      swap1\n      jump(tag_296)\n    tag_177:\n      add\n      mload\n      swap1\n      pop\n      dup12\n      dup1\n      jump(tag_178)\n    tag_175:\n      0x00\n      dup6\n      dup2\n      mstore\n      dup3\n      dup2\n      keccak256\n      swap4\n      pop\n      not(0x1f)\n      dup6\n      and\n      swap1\n    tag_300:\n      dup2\n      dup2\n      lt\n      tag_301\n      jumpi\n      pop\n      swap1\n      dup5\n      0x01\n      swap6\n      swap5\n      swap4\n      swap3\n      lt\n      tag_303\n      jumpi\n    tag_304:\n      pop\n      pop\n      pop\n      dup2\n      shl\n      add\n      swap1\n      sstore\n      jump(tag_179)\n    tag_303:\n      add\n      mload\n      not(0x00)\n      0xf8\n      dup5\n      0x03\n      shl\n      and\n      shr\n      not\n      and\n      swap1\n      sstore\n      dup12\n      dup1\n      dup1\n      jump(tag_304)\n    tag_301:\n      swap3\n      swap4\n      0x20\n      0x01\n      dup2\n      swap3\n      dup8\n      dup7\n      add\n      mload\n      dup2\n      sstore\n      add\n      swap6\n      add\n      swap4\n      add\n      jump(tag_300)\n    tag_173:\n      swap1\n      swap2\n      pop\n      dup4\n      0x00\n      mstore\n      keccak256(0x00, 0x20)\n      0x1f\n      dup5\n      add\n      0x05\n      shr\n      dup2\n      add\n      swap2\n      0x20\n      dup6\n      lt\n      tag_305\n      jumpi\n    tag_306:\n      swap1\n      0x1f\n      dup6\n      swap5\n      swap4\n      swap3\n      add\n      0x05\n      shr\n      add\n      swap1\n    tag_307:\n      dup2\n      dup2\n      lt\n      tag_308\n      jumpi\n      pop\n      jump(tag_174)\n    tag_308:\n      0x00\n      dup2\n      sstore\n      dup5\n      swap4\n      pop\n      0x01\n      add\n      jump(tag_307)\n    tag_305:\n      swap1\n      swap2\n      pop\n      dup2\n      swap1\n      jump(tag_306)\n    tag_167:\n      add\n      mload\n      swap1\n      pop\n      dup13\n      dup1\n      jump(tag_168)\n    tag_165:\n      0x00\n      dup6\n      dup2\n      mstore\n      dup3\n      dup2\n      keccak256\n      swap4\n      pop\n      not(0x1f)\n      dup6\n      and\n      swap1\n    tag_310:\n      dup2\n      dup2\n      lt\n      tag_311\n      jumpi\n      pop\n      swap1\n      dup5\n      0x01\n      swap6\n      swap5\n      swap4\n      swap3\n      lt\n      tag_313\n      jumpi\n    tag_314:\n      pop\n      pop\n      pop\n      dup2\n      shl\n      add\n      swap1\n      sstore\n      jump(tag_169)\n    tag_313:\n      add\n      mload\n      not(0x00)\n      0xf8\n      dup5\n      0x03\n      shl\n      and\n      shr\n      not\n      and\n      swap1\n      sstore\n      dup13\n      dup1\n      dup1\n      jump(tag_314)\n    tag_311:\n      swap3\n      swap4\n      0x20\n      0x01\n      dup2\n      swap3\n      dup8\n      dup7\n      add\n      mload\n      dup2\n      sstore\n      add\n      swap6\n      add\n      swap4\n      add\n      jump(tag_310)\n    tag_163:\n      swap1\n      swap2\n      pop\n      dup4\n      0x00\n      mstore\n      keccak256(0x00, 0x20)\n      0x1f\n      dup5\n      add\n      0x05\n      shr\n      dup2\n      add\n      swap2\n      0x20\n      dup6\n      lt\n      tag_315\n      jumpi\n    tag_316:\n      swap1\n      0x1f\n      dup6\n      swap5\n      swap4\n      swap3\n      add\n      0x05\n      shr\n      add\n      swap1\n    tag_317:\n      dup2\n      dup2\n      lt\n      tag_318\n      jumpi\n      pop\n      jump(tag_164)\n    tag_318:\n      0x00\n      dup2\n      sstore\n      dup5\n      swap4\n      pop\n      0x01\n      add\n      jump(tag_317)\n    tag_315:\n      swap1\n      swap2\n      pop\n      dup2\n      swap1\n      jump(tag_316)\n    tag_157:\n      add\n      mload\n      swap1\n      pop\n      dup15\n      dup1\n      jump(tag_158)\n    tag_155:\n      0x00\n      dup6\n      dup2\n      mstore\n      dup3\n      dup2\n      keccak256\n      swap4\n      pop\n      not(0x1f)\n      dup6\n      and\n      swap1\n    tag_320:\n      dup2\n      dup2\n      lt\n      tag_321\n      jumpi\n      pop\n      swap1\n      dup5\n      0x01\n      swap6\n      swap5\n      swap4\n      swap3\n      lt\n      tag_323\n      jumpi\n    tag_324:\n      pop\n      pop\n      pop\n      dup2\n      shl\n      add\n      swap1\n      sstore\n      jump(tag_159)\n    tag_323:\n      add\n      mload\n      not(0x00)\n      0xf8\n      dup5\n      0x03\n      shl\n      and\n      shr\n      not\n      and\n      swap1\n      sstore\n      dup15\n      dup1\n      dup1\n      jump(tag_324)\n    tag_321:\n      swap3\n      swap4\n      0x20\n      0x01\n      dup2\n      swap3\n      dup8\n      dup7\n      add\n      mload\n      dup2\n      sstore\n      add\n      swap6\n      add\n      swap4\n      add\n      jump(tag_320)\n    tag_153:\n      swap1\n      swap2\n      pop\n      dup4\n      0x00\n      mstore\n      keccak256(0x00, 0x20)\n      0x1f\n      dup5\n      add\n      0x05\n      shr\n      dup2\n      add\n      swap2\n      0x20\n      dup6\n      lt\n      tag_325\n      jumpi\n    tag_326:\n      swap1\n      0x1f\n      dup6\n      swap5\n      swap4\n      swap3\n      add\n      0x05\n      shr\n      add\n      swap1\n    tag_327:\n      dup2\n      dup2\n      lt\n      tag_328\n      jumpi\n      pop\n      jump(tag_154)\n    tag_328:\n      0x00\n      dup2\n      sstore\n      dup5\n      swap4\n      pop\n      0x01\n      add\n      jump(tag_327)\n    tag_325:\n      swap1\n      swap2\n      pop\n      dup2\n      swap1\n      jump(tag_326)\n    tag_147:\n      add\n      mload\n      swap1\n      pop\n      0x00\n      dup1\n      jump(tag_148)\n    tag_145:\n      0x00\n      dup6\n      dup2\n      mstore\n      dup3\n      dup2\n      keccak256\n      swap4\n      pop\n      not(0x1f)\n      dup6\n      and\n      swap1\n    tag_330:\n      dup2\n      dup2\n      lt\n      tag_331\n      jumpi\n      pop\n      swap1\n      dup5\n      0x01\n      swap6\n      swap5\n      swap4\n      swap3\n      lt\n      tag_333\n      jumpi\n    tag_334:\n      pop\n      pop\n      pop\n      dup2\n      shl\n      add\n      swap1\n      sstore\n      jump(tag_149)\n    tag_333:\n      add\n      mload\n      not(0x00)\n      0xf8\n      dup5\n      0x03\n      shl\n      and\n      shr\n      not\n      and\n      swap1\n      sstore\n      0x00\n      dup1\n      dup1\n      jump(tag_334)\n    tag_331:\n      swap3\n      swap4\n      0x20\n      0x01\n      dup2\n      swap3\n      dup8\n      dup7\n      add\n      mload\n      dup2\n      sstore\n      add\n      swap6\n      add\n      swap4\n      add\n      jump(tag_330)\n    tag_143:\n      swap1\n      swap2\n      pop\n      dup4\n      0x00\n      mstore\n      keccak256(0x00, 0x20)\n      0x1f\n      dup5\n      add\n      0x05\n      shr\n      dup2\n      add\n      swap2\n      0x20\n      dup6\n      lt\n      tag_335\n      jumpi\n    tag_336:\n      swap1\n      0x1f\n      dup6\n      swap5\n      swap4\n      swap3\n      add\n      0x05\n      shr\n      add\n      swap1\n    tag_337:\n      dup2\n      dup2\n      lt\n      tag_338\n      jumpi\n      pop\n      jump(tag_144)\n    tag_338:\n      0x00\n      dup2\n      sstore\n      dup5\n      swap4\n      pop\n      0x01\n      add\n      jump(tag_337)\n    tag_335:\n      swap1\n      swap2\n      pop\n      dup2\n      swap1\n      jump(tag_336)\n    tag_138:\n      mstore(0x00, shl(0xe0, 0x4e487b71))\n      mstore(0x04, 0x00)\n      revert(0x00, 0x24)\n        /* \"contracts/1.Filing.sol\":2090:2175  if(filings[msg.sender].length == 0){... */\n    tag_132:\n        /* \"contracts/1.Filing.sol\":2140:2146  filers */\n      0x03\n        /* \"contracts/1.Filing.sol\":267:4092  contract Filling{... */\n      sload\n      shl(0x40, 0x01)\n      dup2\n      lt\n      iszero\n      tag_230\n      jumpi\n      dup1\n      0x01\n      tag_342\n      swap3\n      add\n        /* \"contracts/1.Filing.sol\":2140:2146  filers */\n      0x03\n        /* \"contracts/1.Filing.sol\":267:4092  contract Filling{... */\n      sstore\n      tag_1\n      jump\t// in\n    tag_342:\n      dup2\n      sload\n      sub(shl(0xa0, 0x01), 0x01)\n        /* \"contracts/1.Filing.sol\":2140:2146  filers */\n      0x03\n        /* \"contracts/1.Filing.sol\":267:4092  contract Filling{... */\n      swap3\n      swap1\n      swap3\n      shl\n      swap2\n      dup3\n      shl\n      not\n      and\n        /* \"contracts/1.Filing.sol\":1856:1866  msg.sender */\n      caller\n        /* \"contracts/1.Filing.sol\":267:4092  contract Filling{... */\n      swap1\n      swap2\n      shl\n      or\n      swap1\n      sstore\n        /* \"contracts/1.Filing.sol\":2090:2175  if(filings[msg.sender].length == 0){... */\n      jump(tag_133)\n        /* \"contracts/1.Filing.sol\":267:4092  contract Filling{... */\n    tag_130:\n      mload(0x40)\n      shl(0xe5, 0x461bcd)\n      dup2\n      mstore\n      0x20\n      0x04\n      dup3\n      add\n      mstore\n      0x15\n      0x24\n      dup3\n      add\n      mstore\n      shl(0x5a, 0x151bdad95b881d1c985b9cd9995c8819985a5b1959)\n      0x44\n      dup3\n      add\n      mstore\n      0x64\n      swap1\n      revert\n        /* \"contracts/1.Filing.sol\":1990:2051  SetfoToken.transferFrom(msg.sender, address(this), filingFee) */\n    tag_128:\n      swap1\n      pop\n        /* \"contracts/1.Filing.sol\":267:4092  contract Filling{... */\n      0x20\n        /* \"contracts/1.Filing.sol\":1990:2051  SetfoToken.transferFrom(msg.sender, address(this), filingFee) */\n      dup2\n      returndatasize\n        /* \"contracts/1.Filing.sol\":267:4092  contract Filling{... */\n      0x20\n        /* \"contracts/1.Filing.sol\":1990:2051  SetfoToken.transferFrom(msg.sender, address(this), filingFee) */\n      gt\n      tag_343\n      jumpi\n    tag_344:\n      dup2\n      tag_345\n        /* \"contracts/1.Filing.sol\":267:4092  contract Filling{... */\n      0x20\n        /* \"contracts/1.Filing.sol\":1990:2051  SetfoToken.transferFrom(msg.sender, address(this), filingFee) */\n      swap4\n      dup4\n      tag_6\n      jump\t// in\n    tag_345:\n      dup2\n      add\n        /* \"contracts/1.Filing.sol\":267:4092  contract Filling{... */\n      sub\n      slt\n      tag_41\n      jumpi\n      mload\n      dup1\n      iszero\n      iszero\n      dup2\n      sub\n      tag_41\n      jumpi\n        /* \"contracts/1.Filing.sol\":1990:2051  SetfoToken.transferFrom(msg.sender, address(this), filingFee) */\n      dup12\n      jump(tag_129)\n    tag_343:\n      returndatasize\n      swap2\n      pop\n      jump(tag_344)\n    tag_126:\n        /* \"contracts/1.Filing.sol\":267:4092  contract Filling{... */\n      mload(0x40)\n      returndatasize\n      0x00\n      dup3\n      returndatacopy\n      returndatasize\n      swap1\n      revert\n    tag_124:\n      mload(0x40)\n      shl(0xe5, 0x461bcd)\n      dup2\n      mstore\n      0x20\n      0x04\n      dup3\n      add\n      mstore\n      0x17\n      0x24\n      dup3\n      add\n      mstore\n      0x496e73756666696369656e742043545220746f6b656e73000000000000000000\n      0x44\n      dup3\n      add\n      mstore\n      0x64\n      swap1\n      revert\n        /* \"contracts/1.Filing.sol\":1835:1867  SetfoToken.balanceOf(msg.sender) */\n    tag_122:\n      swap1\n      pop\n        /* \"contracts/1.Filing.sol\":267:4092  contract Filling{... */\n      0x20\n        /* \"contracts/1.Filing.sol\":1835:1867  SetfoToken.balanceOf(msg.sender) */\n      dup2\n      returndatasize\n        /* \"contracts/1.Filing.sol\":267:4092  contract Filling{... */\n      0x20\n        /* \"contracts/1.Filing.sol\":1835:1867  SetfoToken.balanceOf(msg.sender) */\n      gt\n      tag_350\n      jumpi\n    tag_351:\n      dup2\n      tag_352\n        /* \"contracts/1.Filing.sol\":267:4092  contract Filling{... */\n      0x20\n        /* \"contracts/1.Filing.sol\":1835:1867  SetfoToken.balanceOf(msg.sender) */\n      swap4\n      dup4\n      tag_6\n      jump\t// in\n    tag_352:\n      dup2\n      add\n        /* \"contracts/1.Filing.sol\":267:4092  contract Filling{... */\n      sub\n      slt\n      tag_41\n      jumpi\n      mload\n        /* \"contracts/1.Filing.sol\":1835:1867  SetfoToken.balanceOf(msg.sender) */\n      dup13\n      jump(tag_123)\n    tag_350:\n      returndatasize\n      swap2\n      pop\n      jump(tag_351)\n        /* \"contracts/1.Filing.sol\":267:4092  contract Filling{... */\n    tag_29:\n      jumpi(tag_41, callvalue)\n      jumpi(tag_41, slt(add(not(0x03), calldatasize), 0x00))\n        /* \"contracts/1.Filing.sol\":367:387  address public owner */\n      0x02\n        /* \"contracts/1.Filing.sol\":267:4092  contract Filling{... */\n      sload\n      mload(0x40)\n      sub(shl(0xa0, 0x01), 0x01)\n      swap1\n      swap2\n      and\n      dup2\n      mstore\n      0x20\n      swap1\n      return\n    tag_27:\n      jumpi(tag_41, callvalue)\n      jumpi(tag_41, slt(add(not(0x03), calldatasize), 0x00))\n        /* \"contracts/1.Filing.sol\":1164:1229  require(msg.sender == owner, \"Only owner can call this function\") */\n      tag_363\n        /* \"contracts/1.Filing.sol\":267:4092  contract Filling{... */\n      0x01\n      dup1\n      0xa0\n      shl\n      sub\n        /* \"contracts/1.Filing.sol\":1186:1191  owner */\n      0x02\n        /* \"contracts/1.Filing.sol\":267:4092  contract Filling{... */\n      sload\n      and\n        /* \"contracts/1.Filing.sol\":1172:1182  msg.sender */\n      caller\n        /* \"contracts/1.Filing.sol\":1172:1191  msg.sender == owner */\n      eq\n        /* \"contracts/1.Filing.sol\":1164:1229  require(msg.sender == owner, \"Only owner can call this function\") */\n      tag_12\n      jump\t// in\n    tag_363:\n        /* \"contracts/1.Filing.sol\":3162:3168  filers */\n      0x03\n        /* \"contracts/1.Filing.sol\":267:4092  contract Filling{... */\n      sload\n      0x00\n      dup1\n        /* \"contracts/1.Filing.sol\":3158:3175  i < filers.length */\n    tag_364:\n      dup3\n      dup2\n      lt\n      tag_365\n      jumpi\n        /* \"contracts/1.Filing.sol\":267:4092  contract Filling{... */\n      pop\n      tag_367\n      dup2\n      tag_13\n      jump\t// in\n    tag_367:\n      swap1\n      tag_368\n      mload(0x40)\n      swap3\n      dup4\n      tag_6\n      jump\t// in\n    tag_368:\n      dup1\n      dup3\n      mstore\n      tag_369\n      not(0x1f)\n      swap2\n      tag_13\n      jump\t// in\n    tag_369:\n      add\n      0x00\n    tag_370:\n      dup2\n      dup2\n      lt\n      tag_371\n      jumpi\n        /* \"contracts/1.Filing.sol\":3336:3360  uint256 currentIndex = 0 */\n      pop\n      pop\n        /* \"contracts/1.Filing.sol\":267:4092  contract Filling{... */\n      0x00\n        /* \"contracts/1.Filing.sol\":3378:3391  uint256 i = 0 */\n      swap2\n        /* \"contracts/1.Filing.sol\":267:4092  contract Filling{... */\n      0x00\n        /* \"contracts/1.Filing.sol\":3393:3410  i < filers.length */\n    tag_373:\n      dup2\n      dup2\n      lt\n      tag_374\n      jumpi\n        /* \"contracts/1.Filing.sol\":267:4092  contract Filling{... */\n      mload(0x40)\n      dup1\n      tag_44\n      dup6\n      dup3\n      tag_4\n      jump\t// in\n        /* \"contracts/1.Filing.sol\":3412:3415  i++ */\n    tag_374:\n        /* \"contracts/1.Filing.sol\":3475:3484  filers[i] */\n      tag_377\n      dup2\n      tag_1\n      jump\t// in\n    tag_377:\n        /* \"contracts/1.Filing.sol\":267:4092  contract Filling{... */\n      swap1\n      sload\n        /* \"contracts/1.Filing.sol\":3162:3168  filers */\n      0x03\n        /* \"contracts/1.Filing.sol\":267:4092  contract Filling{... */\n      swap2\n      swap1\n      swap2\n      shl\n      shr\n      sub(shl(0xa0, 0x01), 0x01)\n      and\n      0x00\n      swap1\n      dup2\n      mstore\n      mstore(0x20, 0x04)\n      0x40\n      dup2\n      keccak256\n      dup1\n      sload\n        /* \"contracts/1.Filing.sol\":3520:3542  j < userFilings.length */\n    tag_378:\n      dup1\n      dup4\n      lt\n      tag_379\n      jumpi\n        /* \"contracts/1.Filing.sol\":3412:3415  i++ */\n      pop\n      pop\n      pop\n        /* \"contracts/1.Filing.sol\":267:4092  contract Filling{... */\n      0x01\n      add\n        /* \"contracts/1.Filing.sol\":3378:3391  uint256 i = 0 */\n      jump(tag_373)\n        /* \"contracts/1.Filing.sol\":3544:3547  j++ */\n    tag_379:\n        /* \"contracts/1.Filing.sol\":3595:3609  userFilings[j] */\n      swap1\n      swap2\n      swap6\n        /* \"contracts/1.Filing.sol\":267:4092  contract Filling{... */\n      tag_381\n        /* \"contracts/1.Filing.sol\":3595:3609  userFilings[j] */\n      tag_46\n      dup9\n      dup6\n      tag_9\n      jump\t// in\n        /* \"contracts/1.Filing.sol\":267:4092  contract Filling{... */\n    tag_381:\n        /* \"contracts/1.Filing.sol\":3568:3609  allFilings[currentIndex] = userFilings[j] */\n      tag_383\n      dup3\n      dup9\n      tag_15\n      jump\t// in\n    tag_383:\n      mstore\n      tag_384\n      dup2\n      dup8\n      tag_15\n      jump\t// in\n    tag_384:\n      pop\n      not(0x00)\n        /* \"contracts/1.Filing.sol\":267:4092  contract Filling{... */\n      dup2\n      eq\n      tag_385\n      jumpi\n      0x01\n      dup1\n      swap2\n      add\n        /* \"contracts/1.Filing.sol\":3544:3547  j++ */\n      swap7\n        /* \"contracts/1.Filing.sol\":267:4092  contract Filling{... */\n      add\n        /* \"contracts/1.Filing.sol\":3505:3518  uint256 j = 0 */\n      swap2\n      swap1\n      jump(tag_378)\n        /* \"contracts/1.Filing.sol\":267:4092  contract Filling{... */\n    tag_385:\n      mstore(0x00, shl(0xe0, 0x4e487b71))\n      mstore(0x04, 0x11)\n      revert(0x00, 0x24)\n    tag_371:\n      0x20\n      swap1\n      tag_387\n      tag_14\n      jump\t// in\n    tag_387:\n      dup3\n      dup3\n      dup7\n      add\n      add\n      mstore\n      add\n      jump(tag_370)\n        /* \"contracts/1.Filing.sol\":3177:3180  i++ */\n    tag_365:\n        /* \"contracts/1.Filing.sol\":3221:3230  filers[i] */\n      swap1\n      tag_388\n      dup3\n      tag_1\n      jump\t// in\n    tag_388:\n        /* \"contracts/1.Filing.sol\":267:4092  contract Filling{... */\n      0x01\n      dup1\n      0xa0\n      shl\n      sub\n      swap2\n      sload\n      swap1\n        /* \"contracts/1.Filing.sol\":3162:3168  filers */\n      0x03\n        /* \"contracts/1.Filing.sol\":267:4092  contract Filling{... */\n      shl\n      shr\n      and\n      0x00\n      mstore\n      mstore(0x20, 0x04)\n      sload(keccak256(0x00, 0x40))\n      dup2\n      add\n      dup1\n      swap2\n      gt\n      tag_385\n      jumpi\n        /* \"contracts/1.Filing.sol\":3197:3238  totalFilings += filings[filers[i]].length */\n      swap1\n        /* \"contracts/1.Filing.sol\":267:4092  contract Filling{... */\n      0x01\n      add\n        /* \"contracts/1.Filing.sol\":3143:3156  uint256 i = 0 */\n      jump(tag_364)\n        /* \"contracts/1.Filing.sol\":267:4092  contract Filling{... */\n    tag_25:\n      jumpi(tag_41, callvalue)\n      jumpi(tag_41, slt(add(not(0x03), calldatasize), 0x00))\n      0x20\n        /* \"contracts/1.Filing.sol\":321:360  uint256 public filingFee = 100 * 10**18 */\n      0x01\n        /* \"contracts/1.Filing.sol\":267:4092  contract Filling{... */\n      sload\n      mload(0x40)\n      swap1\n      dup2\n      mstore\n      return\n    tag_23:\n      jumpi(tag_41, callvalue)\n      jumpi(tag_41, slt(add(not(0x03), calldatasize), 0x00))\n        /* \"contracts/1.Filing.sol\":1164:1229  require(msg.sender == owner, \"Only owner can call this function\") */\n      tag_399\n        /* \"contracts/1.Filing.sol\":267:4092  contract Filling{... */\n      0x01\n      dup1\n      0xa0\n      shl\n      sub\n        /* \"contracts/1.Filing.sol\":1186:1191  owner */\n      0x02\n        /* \"contracts/1.Filing.sol\":267:4092  contract Filling{... */\n      sload\n      and\n        /* \"contracts/1.Filing.sol\":1172:1182  msg.sender */\n      caller\n        /* \"contracts/1.Filing.sol\":1172:1191  msg.sender == owner */\n      eq\n        /* \"contracts/1.Filing.sol\":1164:1229  require(msg.sender == owner, \"Only owner can call this function\") */\n      tag_12\n      jump\t// in\n    tag_399:\n        /* \"contracts/1.Filing.sol\":267:4092  contract Filling{... */\n      mload(0x40)\n      dup1\n      0x20\n        /* \"contracts/1.Filing.sol\":3804:3810  filers */\n      0x03\n        /* \"contracts/1.Filing.sol\":267:4092  contract Filling{... */\n      sload\n      swap3\n      dup4\n      dup2\n      mstore\n      add\n      dup1\n      swap3\n        /* \"contracts/1.Filing.sol\":3804:3810  filers */\n      0x03\n        /* \"contracts/1.Filing.sol\":267:4092  contract Filling{... */\n      0x00\n      mstore\n      0xc2575a0e9e593c00f959f8c92f12db2869c3395a3b0502d05e2516446f71f85b\n      swap1\n      0x00\n    tag_400:\n      dup2\n      dup2\n      lt\n      tag_401\n      jumpi\n      pop\n      pop\n      pop\n      dup2\n      tag_403\n      swap2\n      sub\n      dup3\n      tag_6\n      jump\t// in\n    tag_403:\n      mload(0x40)\n      swap2\n      dup3\n      swap2\n      0x20\n      dup4\n      add\n      swap1\n      0x20\n      dup5\n      mstore\n      mload\n      dup1\n      swap2\n      mstore\n      0x40\n      dup4\n      add\n      swap2\n      swap1\n      0x00\n    tag_404:\n      dup2\n      dup2\n      lt\n      tag_405\n      jumpi\n      pop\n      pop\n      pop\n      sub\n      swap1\n      return\n    tag_405:\n      dup3\n      mload\n      sub(shl(0xa0, 0x01), 0x01)\n      and\n      dup5\n      mstore\n      dup6\n      swap5\n      pop\n      0x20\n      swap4\n      dup5\n      add\n      swap4\n      swap1\n      swap3\n      add\n      swap2\n      0x01\n      add\n      jump(tag_404)\n    tag_401:\n      dup3\n      sload\n      sub(shl(0xa0, 0x01), 0x01)\n      and\n      dup5\n      mstore\n      0x20\n      swap1\n      swap4\n      add\n      swap3\n      0x01\n      swap3\n      dup4\n      add\n      swap3\n      add\n      jump(tag_400)\n    tag_21:\n      jumpi(tag_41, callvalue)\n      jumpi(tag_41, slt(add(not(0x03), calldatasize), 0x20))\n      calldataload(0x04)\n        /* \"contracts/1.Filing.sol\":394:417  address[] public filers */\n      0x03\n        /* \"contracts/1.Filing.sol\":267:4092  contract Filling{... */\n      sload\n        /* \"contracts/1.Filing.sol\":394:417  address[] public filers */\n      dup2\n      lt\n      iszero\n      tag_41\n      jumpi\n      tag_413\n        /* \"contracts/1.Filing.sol\":267:4092  contract Filling{... */\n      0x20\n        /* \"contracts/1.Filing.sol\":394:417  address[] public filers */\n      swap2\n      tag_1\n      jump\t// in\n    tag_413:\n        /* \"contracts/1.Filing.sol\":267:4092  contract Filling{... */\n      swap1\n      sload\n      mload(0x40)\n        /* \"contracts/1.Filing.sol\":394:417  address[] public filers */\n      0x03\n        /* \"contracts/1.Filing.sol\":267:4092  contract Filling{... */\n      swap3\n      swap1\n      swap3\n      shl\n      shr\n      sub(shl(0xa0, 0x01), 0x01)\n      and\n      dup2\n      mstore\n      return\n    tag_19:\n      jumpi(tag_41, callvalue)\n      jumpi(tag_41, slt(add(not(0x03), calldatasize), 0x00))\n      and(sub(shl(0xa0, 0x01), 0x01), sload(0x00))\n      dup2\n      mstore\n      0x20\n      swap1\n      return\n    tag_1:\n        /* \"contracts/1.Filing.sol\":394:417  address[] public filers */\n      0x03\n        /* \"contracts/1.Filing.sol\":267:4092  contract Filling{... */\n      sload\n      dup2\n      lt\n      iszero\n      tag_418\n      jumpi\n        /* \"contracts/1.Filing.sol\":394:417  address[] public filers */\n      0x03\n      0x00\n        /* \"contracts/1.Filing.sol\":267:4092  contract Filling{... */\n      mstore\n      keccak256(0x00, 0x20)\n      add\n      swap1\n      0x00\n      swap1\n      jump\t// out\n    tag_418:\n      mstore(0x00, shl(0xe0, 0x4e487b71))\n      mstore(0x04, 0x32)\n      revert(0x00, 0x24)\n    tag_2:\n      dup1\n      mload\n      dup1\n      dup4\n      mstore\n      0x20\n      swap3\n      swap2\n      dup2\n      swap1\n      dup5\n      add\n      dup5\n      dup5\n      add\n      mcopy\n      0x00\n      dup3\n      dup3\n      add\n      dup5\n      add\n      mstore\n      0x1f\n      add\n      not(0x1f)\n      and\n      add\n      add\n      swap1\n      jump\t// out\n    tag_3:\n      swap1\n      0x01a0\n      dup1\n      tag_420\n      tag_421\n      tag_422\n      tag_423\n      tag_424\n      tag_425\n      tag_426\n      tag_427\n      tag_428\n      dup12\n      0x60\n      dup15\n      0x01\n      dup1\n      0xa0\n      shl\n      sub\n      dup2\n      mload\n      and\n      dup4\n      mstore\n      tag_429\n      0x20\n      dup3\n      add\n      mload\n      0x01c0\n      0x20\n      dup7\n      add\n      mstore\n      0x01c0\n      dup6\n      add\n      swap1\n      tag_2\n      jump\t// in\n    tag_429:\n      swap3\n      0x40\n      dup1\n      dup4\n      add\n      mload\n      swap2\n      add\n      mstore\n      add\n      mload\n      dup14\n      0x60\n      dup2\n      dup5\n      sub\n      swap2\n      add\n      mstore\n      tag_2\n      jump\t// in\n    tag_428:\n      0x80\n      dup14\n      add\n      mload\n      0x80\n      dup14\n      add\n      mstore\n      0xa0\n      dup14\n      add\n      mload\n      dup13\n      0xa0\n      dup2\n      dup5\n      sub\n      swap2\n      add\n      mstore\n      tag_2\n      jump\t// in\n    tag_427:\n      0xc0\n      dup13\n      add\n      mload\n      dup12\n      dup3\n      sub\n      0xc0\n      dup14\n      add\n      mstore\n      tag_2\n      jump\t// in\n    tag_426:\n      0xe0\n      dup12\n      add\n      mload\n      dup11\n      dup3\n      sub\n      0xe0\n      dup13\n      add\n      mstore\n      tag_2\n      jump\t// in\n    tag_425:\n      0x0100\n      dup11\n      add\n      mload\n      dup10\n      dup3\n      sub\n      0x0100\n      dup12\n      add\n      mstore\n      tag_2\n      jump\t// in\n    tag_424:\n      0x0120\n      dup10\n      add\n      mload\n      dup9\n      dup3\n      sub\n      0x0120\n      dup11\n      add\n      mstore\n      tag_2\n      jump\t// in\n    tag_423:\n      0x0140\n      dup9\n      add\n      mload\n      dup8\n      dup3\n      sub\n      0x0140\n      dup10\n      add\n      mstore\n      tag_2\n      jump\t// in\n    tag_422:\n      0x0160\n      dup8\n      add\n      mload\n      dup7\n      dup3\n      sub\n      0x0160\n      dup9\n      add\n      mstore\n      tag_2\n      jump\t// in\n    tag_421:\n      0x0180\n      dup7\n      add\n      mload\n      dup6\n      dup3\n      sub\n      0x0180\n      dup8\n      add\n      mstore\n      tag_2\n      jump\t// in\n    tag_420:\n      swap4\n      add\n      mload\n      swap2\n      add\n      mstore\n      swap1\n      jump\t// out\n    tag_4:\n      0x20\n      dup2\n      add\n      0x20\n      dup3\n      mstore\n      dup3\n      mload\n      dup1\n      swap2\n      mstore\n      0x40\n      dup3\n      add\n      swap2\n      0x20\n      0x40\n      dup4\n      0x05\n      shl\n      dup4\n      add\n      add\n      swap5\n      add\n      swap3\n      0x00\n      swap2\n    tag_430:\n      dup4\n      dup4\n      lt\n      tag_431\n      jumpi\n      pop\n      pop\n      pop\n      pop\n      pop\n      swap1\n      jump\t// out\n    tag_431:\n      swap1\n      swap2\n      swap3\n      swap4\n      swap5\n      0x20\n      dup1\n      tag_433\n      0x01\n      swap4\n      not(0x3f)\n      dup7\n      dup3\n      sub\n      add\n      dup8\n      mstore\n      dup10\n      mload\n      tag_3\n      jump\t// in\n    tag_433:\n      swap8\n      add\n      swap4\n      add\n      swap4\n      add\n      swap2\n      swap4\n      swap3\n      swap1\n      jump(tag_430)\n    tag_5:\n      0x01c0\n      dup2\n      add\n      swap1\n      dup2\n      lt\n      sub(shl(0x40, 0x01), 0x01)\n      dup3\n      gt\n      or\n      tag_230\n      jumpi\n      0x40\n      mstore\n      jump\t// out\n    tag_6:\n      swap1\n      0x1f\n      dup1\n      not\n      swap2\n      add\n      and\n      dup2\n      add\n      swap1\n      dup2\n      lt\n      sub(shl(0x40, 0x01), 0x01)\n      dup3\n      gt\n      or\n      tag_230\n      jumpi\n      0x40\n      mstore\n      jump\t// out\n    tag_7:\n      dup2\n      0x1f\n      dup3\n      add\n      slt\n      iszero\n      tag_41\n      jumpi\n      dup1\n      calldataload\n      swap1\n      sub(shl(0x40, 0x01), 0x01)\n      dup3\n      gt\n      tag_230\n      jumpi\n      mload(0x40)\n      swap3\n      tag_442\n      0x1f\n      dup5\n      add\n      not(0x1f)\n      and\n      0x20\n      add\n      dup6\n      tag_6\n      jump\t// in\n    tag_442:\n      dup3\n      dup5\n      mstore\n      0x20\n      dup4\n      dup4\n      add\n      add\n      gt\n      tag_41\n      jumpi\n      dup2\n      0x00\n      swap3\n      0x20\n      dup1\n      swap4\n      add\n      dup4\n      dup7\n      add\n      calldatacopy\n      dup4\n      add\n      add\n      mstore\n      swap1\n      jump\t// out\n    tag_8:\n      calldataload(0x04)\n      swap1\n      sub(shl(0xa0, 0x01), 0x01)\n      dup3\n      and\n      dup3\n      sub\n      tag_41\n      jumpi\n      jump\t// out\n    tag_9:\n      dup1\n      sload\n      dup3\n      lt\n      iszero\n      tag_418\n      jumpi\n      0x00\n      mstore\n      0x0e\n      keccak256(0x00, 0x20)\n      swap2\n      mul\n      add\n      swap1\n      0x00\n      swap1\n      jump\t// out\n    tag_10:\n      swap1\n      0x01\n      dup3\n      dup2\n      shr\n      swap3\n      and\n      dup1\n      iszero\n      tag_449\n      jumpi\n    tag_450:\n      0x20\n      dup4\n      lt\n      eq\n      tag_451\n      jumpi\n      jump\t// out\n    tag_451:\n      mstore(0x00, shl(0xe0, 0x4e487b71))\n      mstore(0x04, 0x22)\n      revert(0x00, 0x24)\n    tag_449:\n      swap2\n      0x7f\n      and\n      swap2\n      jump(tag_450)\n    tag_11:\n      swap1\n      mload(0x40)\n      swap2\n      dup3\n      0x00\n      dup3\n      sload\n      swap3\n      tag_453\n      dup5\n      tag_10\n      jump\t// in\n    tag_453:\n      dup1\n      dup5\n      mstore\n      swap4\n      0x01\n      dup2\n      and\n      swap1\n      dup2\n      iszero\n      tag_454\n      jumpi\n      pop\n      0x01\n      eq\n      tag_456\n      jumpi\n    tag_457:\n      pop\n      tag_458\n      swap3\n      pop\n      sub\n      dup4\n      tag_6\n      jump\t// in\n    tag_458:\n      jump\t// out\n    tag_456:\n      swap1\n      pop\n      0x00\n      swap3\n      swap2\n      swap3\n      mstore\n      keccak256(0x00, 0x20)\n      swap1\n      0x00\n      swap2\n    tag_459:\n      dup2\n      dup4\n      lt\n      tag_460\n      jumpi\n      pop\n      pop\n      swap1\n      0x20\n      tag_458\n      swap3\n      dup3\n      add\n      add\n      0x00\n      jump(tag_457)\n    tag_460:\n      0x20\n      swap2\n      swap4\n      pop\n      dup1\n      0x01\n      swap2\n      sload\n      dup4\n      dup6\n      dup10\n      add\n      add\n      mstore\n      add\n      swap2\n      add\n      swap1\n      swap2\n      dup5\n      swap3\n      jump(tag_459)\n    tag_454:\n      swap1\n      pop\n      0x20\n      swap3\n      pop\n      tag_458\n      swap5\n      swap2\n      pop\n      not(0xff)\n      and\n      dup3\n      dup5\n      add\n      mstore\n      iszero\n      iszero\n      0x05\n      shl\n      dup3\n      add\n      add\n      0x00\n      jump(tag_457)\n    tag_12:\n      iszero\n      tag_462\n      jumpi\n      jump\t// out\n    tag_462:\n      mload(0x40)\n      shl(0xe5, 0x461bcd)\n      dup2\n      mstore\n      0x20\n      0x04\n      dup3\n      add\n      mstore\n      0x21\n      0x24\n      dup3\n      add\n      mstore\n      0x4f6e6c79206f776e65722063616e2063616c6c20746869732066756e6374696f\n      0x44\n      dup3\n      add\n      mstore\n      shl(0xf9, 0x37)\n      0x64\n      dup3\n      add\n      mstore\n      0x84\n      swap1\n      revert\n    tag_13:\n      sub(shl(0x40, 0x01), 0x01)\n      dup2\n      gt\n      tag_230\n      jumpi\n      0x05\n      shl\n      0x20\n      add\n      swap1\n      jump\t// out\n    tag_14:\n      mload(0x40)\n      swap1\n      tag_466\n      dup3\n      tag_5\n      jump\t// in\n    tag_466:\n      0x00\n      0x01a0\n      dup4\n      dup3\n      dup2\n      mstore\n      0x60\n      0x20\n      dup3\n      add\n      mstore\n      dup3\n      0x40\n      dup3\n      add\n      mstore\n      0x60\n      dup1\n      dup3\n      add\n      mstore\n      dup3\n      0x80\n      dup3\n      add\n      mstore\n      0x60\n      0xa0\n      dup3\n      add\n      mstore\n      0x60\n      0xc0\n      dup3\n      add\n      mstore\n      0x60\n      0xe0\n      dup3\n      add\n      mstore\n      0x60\n      0x0100\n      dup3\n      add\n      mstore\n      0x60\n      0x0120\n      dup3\n      add\n      mstore\n      0x60\n      0x0140\n      dup3\n      add\n      mstore\n      0x60\n      0x0160\n      dup3\n      add\n      mstore\n      0x60\n      0x0180\n      dup3\n      add\n      mstore\n      add\n      mstore\n      jump\t// out\n    tag_15:\n      dup1\n      mload\n      dup3\n      lt\n      iszero\n      tag_418\n      jumpi\n      0x20\n      swap2\n      0x05\n      shl\n      add\n      add\n      swap1\n      jump\t// out\n    tag_16:\n      swap1\n      mload(0x40)\n      tag_469\n      dup2\n      tag_5\n      jump\t// in\n    tag_469:\n      dup3\n      sload\n      sub(shl(0xa0, 0x01), 0x01)\n      and\n      dup2\n      mstore\n      swap2\n      dup3\n      swap1\n      0x01a0\n      swap1\n      0x0d\n      swap1\n      tag_470\n      0x01\n      dup3\n      add\n      tag_11\n      jump\t// in\n    tag_470:\n      0x20\n      dup6\n      add\n      mstore\n      0x02\n      dup2\n      add\n      sload\n      0x40\n      dup6\n      add\n      mstore\n      tag_471\n      0x03\n      dup3\n      add\n      tag_11\n      jump\t// in\n    tag_471:\n      0x60\n      dup6\n      add\n      mstore\n      0x04\n      dup2\n      add\n      sload\n      0x80\n      dup6\n      add\n      mstore\n      tag_472\n      0x05\n      dup3\n      add\n      tag_11\n      jump\t// in\n    tag_472:\n      0xa0\n      dup6\n      add\n      mstore\n      tag_473\n      0x06\n      dup3\n      add\n      tag_11\n      jump\t// in\n    tag_473:\n      0xc0\n      dup6\n      add\n      mstore\n      tag_474\n      0x07\n      dup3\n      add\n      tag_11\n      jump\t// in\n    tag_474:\n      0xe0\n      dup6\n      add\n      mstore\n      tag_475\n      0x08\n      dup3\n      add\n      tag_11\n      jump\t// in\n    tag_475:\n      0x0100\n      dup6\n      add\n      mstore\n      tag_476\n      0x09\n      dup3\n      add\n      tag_11\n      jump\t// in\n    tag_476:\n      0x0120\n      dup6\n      add\n      mstore\n      tag_477\n      0x0a\n      dup3\n      add\n      tag_11\n      jump\t// in\n    tag_477:\n      0x0140\n      dup6\n      add\n      mstore\n      tag_478\n      0x0b\n      dup3\n      add\n      tag_11\n      jump\t// in\n    tag_478:\n      0x0160\n      dup6\n      add\n      mstore\n      tag_479\n      0x0c\n      dup3\n      add\n      tag_11\n      jump\t// in\n    tag_479:\n      0x0180\n      dup6\n      add\n      mstore\n      add\n      sload\n      swap2\n      add\n      mstore\n      jump\t// out\n\n    auxdata: 0xa264697066735822122008d01179e06c6fd55c5d2ea7564df9386c5b62c7960a6074bb1ff0fe1b34189264736f6c634300081a0033\n}\n",
				"bytecode": {
					"linkReferences": {},
					"object": "608034608a57601f611af938819003918201601f19168301916001600160401b03831184841017608e57808492602094604052833981010312608a57516001600160a01b03811690819003608a5768056bc75e2d63100000600155600280546001600160a01b031990811633179091555f8054909116919091179055604051611a5690816100a38239f35b5f80fd5b634e487b7160e01b5f52604160045260245ffdfe6080806040526004361015610012575f80fd5b5f3560e01c908163307d9826146114c55750806343449476146114835780634434dabb146113a657806373169cf81461138957806373ba1217146112305780638da5cb5b14611208578063af600d3e1461033a578063e2ec869c14610299578063e60f117f146100e35763eb1c14121461008a575f80fd5b346100df5760203660031901126100df576100a36118af565b50335f5260046020526100db6100c76100c160043560405f20611751565b50611932565b604051918291602083526020830190611537565b0390f35b5f80fd5b346100df5760403660031901126100df576100fc61173b565b6001600160a01b03165f9081526004602052604090208054602435908110156100df5761012891611751565b5080546001600160a01b0316610140600183016117a2565b9060028301549260038101610154906117a2565b6004820154610165600584016117a2565b610171600685016117a2565b61017d600786016117a2565b610189600887016117a2565b91610196600988016117a2565b936101a3600a89016117a2565b956101b0600b8a016117a2565b976101bd600c8b016117a2565b99600d01549a6040519d8e9d8e928352602083016101c090526101c083016101e491611513565b91604001528c80820390606001526101fb91611513565b9060808c01528a810360a08c015261021291611513565b89810360c08b015261022391611513565b88810360e08a015261023491611513565b87810361010089015261024691611513565b86810361012088015261025891611513565b85810361014087015261026a91611513565b84810361016086015261027c91611513565b83810361018085015261028e91611513565b906101a08301520390f35b346100df5760203660031901126100df576102b261173b565b6102c760018060a01b03600254163314611842565b6001600160a01b03165f90815260046020526040902080546102e881611898565b916102f660405193846116c5565b81835260208301905f5260205f205f915b83831061031c57604051806100db878261164a565b600e602060019261032c85611932565b815201920192019190610307565b6101803660031901126100df576004356001600160401b0381116100df576103669036906004016116e6565b6044356001600160401b0381116100df576103859036906004016116e6565b6084356001600160401b0381116100df576103a49036906004016116e6565b9160a4356001600160401b0381116100df576103c49036906004016116e6565b60c4356001600160401b0381116100df576103e39036906004016116e6565b60e4356001600160401b0381116100df576104029036906004016116e6565b610104356001600160401b0381116100df576104229036906004016116e6565b90610124356001600160401b0381116100df576104439036906004016116e6565b92610144356001600160401b0381116100df576104649036906004016116e6565b94610164356001600160401b0381116100df576104859036906004016116e6565b9860018060a01b035f54166040516370a0823160e01b8152336004820152602081602481855afa908115611186575f916111d6575b50600154809110611191575f91606460209260405194859384926323b872dd60e01b845233600485015230602485015260448401525af1908115611186575f9161114b575b501561110e57335f52600460205260405f2054156110ce575b604051986105258a6116a9565b338a5260208a0198895260408a0190602435825260608b0190815260808b0191606435835260a08c0193845260c08c0194855260e08c019586526101008c019687526101208c019788526101408c019889526101608c01998a526101808c019c8d526101a08c019a428c52335f52600460205260405f208054600160401b8110156109f9576105b991600182018155611751565b9d909d6110bb57518d546001600160a01b0319166001600160a01b0391909116178d5551805160018e01916001600160401b0382116109f95781906105fe845461176a565b601f811161106b575b50602090601f8311600114611008575f92610ffd575b50508160011b915f199060031b1c19161790555b5160028c015551805160038c01916001600160401b0382116109f9578190610659845461176a565b601f8111610fad575b50602090601f8311600114610f4a575f92610f3f575b50508160011b915f199060031b1c19161790555b5160048a015551805160058a01916001600160401b0382116109f95781906106b4845461176a565b601f8111610eef575b50602090601f8311600114610e8c575f92610e81575b50508160011b915f199060031b1c19161790555b51805160068901916001600160401b0382116109f9578190610709845461176a565b601f8111610e31575b50602090601f8311600114610dce575f92610dc3575b50508160011b915f199060031b1c19161790555b51805160078801916001600160401b0382116109f957819061075e845461176a565b601f8111610d73575b50602090601f8311600114610d10575f92610d05575b50508160011b915f199060031b1c19161790555b51805160088701916001600160401b0382116109f95781906107b3845461176a565b601f8111610cb5575b50602090601f8311600114610c52575f92610c47575b50508160011b915f199060031b1c19161790555b51805160098601916001600160401b0382116109f9578190610808845461176a565b601f8111610bf7575b50602090601f8311600114610b94575f92610b89575b50508160011b915f199060031b1c19161790555b518051600a8501916001600160401b0382116109f957819061085d845461176a565b601f8111610b39575b50602090601f8311600114610ad6575f92610acb575b50508160011b915f199060031b1c19161790555b518051600b8401916001600160401b0382116109f95781906108b2845461176a565b601f8111610a7b575b50602090601f8311600114610a18575f92610a0d575b50508160011b915f199060031b1c19161790555b600c820192519283516001600160401b0381116109f957610906825461176a565b601f81116109b4575b506020601f821160011461094f578190600d95965f92610944575b50508160011b915f199060031b1c19161790555b51910155005b01519050868061092a565b601f19821695835f52815f20965f5b81811061099c575091600d969791846001959410610984575b505050811b01905561093e565b01515f1960f88460031b161c19169055868080610977565b8383015189556001909801976020938401930161095e565b825f5260205f20601f830160051c810191602084106109ef575b601f0160051c01905b8181106109e4575061090f565b5f81556001016109d7565b90915081906109ce565b634e487b7160e01b5f52604160045260245ffd5b0151905086806108d1565b5f8581528281209350601f198516905b818110610a635750908460019594939210610a4b575b505050811b0190556108e5565b01515f1960f88460031b161c19169055868080610a3e565b92936020600181928786015181550195019301610a28565b909150835f5260205f20601f840160051c81019160208510610ac1575b90601f859493920160051c01905b818110610ab357506108bb565b5f8155849350600101610aa6565b9091508190610a98565b01519050878061087c565b5f8581528281209350601f198516905b818110610b215750908460019594939210610b09575b505050811b019055610890565b01515f1960f88460031b161c19169055878080610afc565b92936020600181928786015181550195019301610ae6565b909150835f5260205f20601f840160051c81019160208510610b7f575b90601f859493920160051c01905b818110610b715750610866565b5f8155849350600101610b64565b9091508190610b56565b015190508880610827565b5f8581528281209350601f198516905b818110610bdf5750908460019594939210610bc7575b505050811b01905561083b565b01515f1960f88460031b161c19169055888080610bba565b92936020600181928786015181550195019301610ba4565b909150835f5260205f20601f840160051c81019160208510610c3d575b90601f859493920160051c01905b818110610c2f5750610811565b5f8155849350600101610c22565b9091508190610c14565b0151905089806107d2565b5f8581528281209350601f198516905b818110610c9d5750908460019594939210610c85575b505050811b0190556107e6565b01515f1960f88460031b161c19169055898080610c78565b92936020600181928786015181550195019301610c62565b909150835f5260205f20601f840160051c81019160208510610cfb575b90601f859493920160051c01905b818110610ced57506107bc565b5f8155849350600101610ce0565b9091508190610cd2565b015190508a8061077d565b5f8581528281209350601f198516905b818110610d5b5750908460019594939210610d43575b505050811b019055610791565b01515f1960f88460031b161c191690558a8080610d36565b92936020600181928786015181550195019301610d20565b909150835f5260205f20601f840160051c81019160208510610db9575b90601f859493920160051c01905b818110610dab5750610767565b5f8155849350600101610d9e565b9091508190610d90565b015190508b80610728565b5f8581528281209350601f198516905b818110610e195750908460019594939210610e01575b505050811b01905561073c565b01515f1960f88460031b161c191690558b8080610df4565b92936020600181928786015181550195019301610dde565b909150835f5260205f20601f840160051c81019160208510610e77575b90601f859493920160051c01905b818110610e695750610712565b5f8155849350600101610e5c565b9091508190610e4e565b015190508c806106d3565b5f8581528281209350601f198516905b818110610ed75750908460019594939210610ebf575b505050811b0190556106e7565b01515f1960f88460031b161c191690558c8080610eb2565b92936020600181928786015181550195019301610e9c565b909150835f5260205f20601f840160051c81019160208510610f35575b90601f859493920160051c01905b818110610f2757506106bd565b5f8155849350600101610f1a565b9091508190610f0c565b015190508e80610678565b5f8581528281209350601f198516905b818110610f955750908460019594939210610f7d575b505050811b01905561068c565b01515f1960f88460031b161c191690558e8080610f70565b92936020600181928786015181550195019301610f5a565b909150835f5260205f20601f840160051c81019160208510610ff3575b90601f859493920160051c01905b818110610fe55750610662565b5f8155849350600101610fd8565b9091508190610fca565b015190505f8061061d565b5f8581528281209350601f198516905b818110611053575090846001959493921061103b575b505050811b019055610631565b01515f1960f88460031b161c191690555f808061102e565b92936020600181928786015181550195019301611018565b909150835f5260205f20601f840160051c810191602085106110b1575b90601f859493920160051c01905b8181106110a35750610607565b5f8155849350600101611096565b9091508190611088565b634e487b7160e01b5f525f60045260245ffd5b600354600160401b8110156109f9578060016110ed92016003556114e7565b81546001600160a01b0360039290921b91821b19163390911b179055610518565b60405162461bcd60e51b8152602060048201526015602482015274151bdad95b881d1c985b9cd9995c8819985a5b1959605a1b6044820152606490fd5b90506020813d60201161117e575b81611166602093836116c5565b810103126100df575180151581036100df578b6104ff565b3d9150611159565b6040513d5f823e3d90fd5b60405162461bcd60e51b815260206004820152601760248201527f496e73756666696369656e742043545220746f6b656e730000000000000000006044820152606490fd5b90506020813d602011611200575b816111f1602093836116c5565b810103126100df57518c6104ba565b3d91506111e4565b346100df575f3660031901126100df576002546040516001600160a01b039091168152602090f35b346100df575f3660031901126100df5761125560018060a01b03600254163314611842565b6003545f805b828110611352575061126c81611898565b9061127a60405192836116c5565b808252611289601f1991611898565b015f5b81811061133b5750505f915f5b8181106112ae57604051806100db858261164a565b6112b7816114e7565b905460039190911b1c6001600160a01b03165f90815260046020526040812080545b8083106112eb57505050600101611299565b9091956112fb6100c18885611751565b611305828861191e565b52611310818761191e565b505f198114611327576001809101960191906112d9565b634e487b7160e01b5f52601160045260245ffd5b6020906113466118af565b8282860101520161128c565b9061135c826114e7565b60018060a01b0391549060031b1c165f52600460205260405f20548101809111611327579060010161125b565b346100df575f3660031901126100df576020600154604051908152f35b346100df575f3660031901126100df576113cb60018060a01b03600254163314611842565b6040518060206003549283815201809260035f527fc2575a0e9e593c00f959f8c92f12db2869c3395a3b0502d05e2516446f71f85b905f5b81811061146457505050816114199103826116c5565b604051918291602083019060208452518091526040830191905f5b818110611442575050500390f35b82516001600160a01b0316845285945060209384019390920191600101611434565b82546001600160a01b0316845260209093019260019283019201611403565b346100df5760203660031901126100df576004356003548110156100df576114ac6020916114e7565b905460405160039290921b1c6001600160a01b03168152f35b346100df575f3660031901126100df575f546001600160a01b03168152602090f35b6003548110156114ff5760035f5260205f2001905f90565b634e487b7160e01b5f52603260045260245ffd5b805180835260209291819084018484015e5f828201840152601f01601f1916010190565b906101a08061164161162d6116196116056115f16115dd6115cb6115b961159c8b60608e60018060a01b03815116835261158260208201516101c060208601526101c0850190611513565b9260408083015191015201518d6060818403910152611513565b60808d015160808d015260a08d01518c60a0818403910152611513565b60c08c01518b820360c08d0152611513565b60e08b01518a820360e08c0152611513565b6101008a01518982036101008b0152611513565b6101208901518882036101208a0152611513565b610140880151878203610140890152611513565b610160870151868203610160880152611513565b610180860151858203610180870152611513565b93015191015290565b602081016020825282518091526040820191602060408360051b8301019401925f915b83831061167c57505050505090565b909192939460208061169a600193603f198682030187528951611537565b9701930193019193929061166d565b6101c081019081106001600160401b038211176109f957604052565b90601f801991011681019081106001600160401b038211176109f957604052565b81601f820112156100df578035906001600160401b0382116109f9576040519261171a601f8401601f1916602001856116c5565b828452602083830101116100df57815f926020809301838601378301015290565b600435906001600160a01b03821682036100df57565b80548210156114ff575f52600e60205f20910201905f90565b90600182811c92168015611798575b602083101461178457565b634e487b7160e01b5f52602260045260245ffd5b91607f1691611779565b9060405191825f8254926117b58461176a565b808452936001811690811561182057506001146117dc575b506117da925003836116c5565b565b90505f9291925260205f20905f915b8183106118045750509060206117da928201015f6117cd565b60209193508060019154838589010152019101909184926117eb565b9050602092506117da94915060ff191682840152151560051b8201015f6117cd565b1561184957565b60405162461bcd60e51b815260206004820152602160248201527f4f6e6c79206f776e65722063616e2063616c6c20746869732066756e6374696f6044820152603760f91b6064820152608490fd5b6001600160401b0381116109f95760051b60200190565b604051906118bc826116a9565b5f6101a08382815260606020820152826040820152606080820152826080820152606060a0820152606060c0820152606060e0820152606061010082015260606101208201526060610140820152606061016082015260606101808201520152565b80518210156114ff5760209160051b010190565b9060405161193f816116a9565b82546001600160a01b031681529182906101a090600d90611962600182016117a2565b60208501526002810154604085015261197d600382016117a2565b606085015260048101546080850152611998600582016117a2565b60a08501526119a9600682016117a2565b60c08501526119ba600782016117a2565b60e08501526119cb600882016117a2565b6101008501526119dd600982016117a2565b6101208501526119ef600a82016117a2565b610140850152611a01600b82016117a2565b610160850152611a13600c82016117a2565b610180850152015491015256fea264697066735822122008d01179e06c6fd55c5d2ea7564df9386c5b62c7960a6074bb1ff0fe1b34189264736f6c634300081a0033",
					"opcodes": "PUSH1 0x80 CALLVALUE PUSH1 0x8A JUMPI PUSH1 0x1F PUSH2 0x1AF9 CODESIZE DUP2 SWAP1 SUB SWAP2 DUP3 ADD PUSH1 0x1F NOT AND DUP4 ADD SWAP2 PUSH1 0x1 PUSH1 0x1 PUSH1 0x40 SHL SUB DUP4 GT DUP5 DUP5 LT OR PUSH1 0x8E JUMPI DUP1 DUP5 SWAP3 PUSH1 0x20 SWAP5 PUSH1 0x40 MSTORE DUP4 CODECOPY DUP2 ADD SUB SLT PUSH1 0x8A JUMPI MLOAD PUSH1 0x1 PUSH1 0x1 PUSH1 0xA0 SHL SUB DUP2 AND SWAP1 DUP2 SWAP1 SUB PUSH1 0x8A JUMPI PUSH9 0x56BC75E2D63100000 PUSH1 0x1 SSTORE PUSH1 0x2 DUP1 SLOAD PUSH1 0x1 PUSH1 0x1 PUSH1 0xA0 SHL SUB NOT SWAP1 DUP2 AND CALLER OR SWAP1 SWAP2 SSTORE PUSH0 DUP1 SLOAD SWAP1 SWAP2 AND SWAP2 SWAP1 SWAP2 OR SWAP1 SSTORE PUSH1 0x40 MLOAD PUSH2 0x1A56 SWAP1 DUP2 PUSH2 0xA3 DUP3 CODECOPY RETURN JUMPDEST PUSH0 DUP1 REVERT JUMPDEST PUSH4 0x4E487B71 PUSH1 0xE0 SHL PUSH0 MSTORE PUSH1 0x41 PUSH1 0x4 MSTORE PUSH1 0x24 PUSH0 REVERT INVALID PUSH1 0x80 DUP1 PUSH1 0x40 MSTORE PUSH1 0x4 CALLDATASIZE LT ISZERO PUSH2 0x12 JUMPI PUSH0 DUP1 REVERT JUMPDEST PUSH0 CALLDATALOAD PUSH1 0xE0 SHR SWAP1 DUP2 PUSH4 0x307D9826 EQ PUSH2 0x14C5 JUMPI POP DUP1 PUSH4 0x43449476 EQ PUSH2 0x1483 JUMPI DUP1 PUSH4 0x4434DABB EQ PUSH2 0x13A6 JUMPI DUP1 PUSH4 0x73169CF8 EQ PUSH2 0x1389 JUMPI DUP1 PUSH4 0x73BA1217 EQ PUSH2 0x1230 JUMPI DUP1 PUSH4 0x8DA5CB5B EQ PUSH2 0x1208 JUMPI DUP1 PUSH4 0xAF600D3E EQ PUSH2 0x33A JUMPI DUP1 PUSH4 0xE2EC869C EQ PUSH2 0x299 JUMPI DUP1 PUSH4 0xE60F117F EQ PUSH2 0xE3 JUMPI PUSH4 0xEB1C1412 EQ PUSH2 0x8A JUMPI PUSH0 DUP1 REVERT JUMPDEST CALLVALUE PUSH2 0xDF JUMPI PUSH1 0x20 CALLDATASIZE PUSH1 0x3 NOT ADD SLT PUSH2 0xDF JUMPI PUSH2 0xA3 PUSH2 0x18AF JUMP JUMPDEST POP CALLER PUSH0 MSTORE PUSH1 0x4 PUSH1 0x20 MSTORE PUSH2 0xDB PUSH2 0xC7 PUSH2 0xC1 PUSH1 0x4 CALLDATALOAD PUSH1 0x40 PUSH0 KECCAK256 PUSH2 0x1751 JUMP JUMPDEST POP PUSH2 0x1932 JUMP JUMPDEST PUSH1 0x40 MLOAD SWAP2 DUP3 SWAP2 PUSH1 0x20 DUP4 MSTORE PUSH1 0x20 DUP4 ADD SWAP1 PUSH2 0x1537 JUMP JUMPDEST SUB SWAP1 RETURN JUMPDEST PUSH0 DUP1 REVERT JUMPDEST CALLVALUE PUSH2 0xDF JUMPI PUSH1 0x40 CALLDATASIZE PUSH1 0x3 NOT ADD SLT PUSH2 0xDF JUMPI PUSH2 0xFC PUSH2 0x173B JUMP JUMPDEST PUSH1 0x1 PUSH1 0x1 PUSH1 0xA0 SHL SUB AND PUSH0 SWAP1 DUP2 MSTORE PUSH1 0x4 PUSH1 0x20 MSTORE PUSH1 0x40 SWAP1 KECCAK256 DUP1 SLOAD PUSH1 0x24 CALLDATALOAD SWAP1 DUP2 LT ISZERO PUSH2 0xDF JUMPI PUSH2 0x128 SWAP2 PUSH2 0x1751 JUMP JUMPDEST POP DUP1 SLOAD PUSH1 0x1 PUSH1 0x1 PUSH1 0xA0 SHL SUB AND PUSH2 0x140 PUSH1 0x1 DUP4 ADD PUSH2 0x17A2 JUMP JUMPDEST SWAP1 PUSH1 0x2 DUP4 ADD SLOAD SWAP3 PUSH1 0x3 DUP2 ADD PUSH2 0x154 SWAP1 PUSH2 0x17A2 JUMP JUMPDEST PUSH1 0x4 DUP3 ADD SLOAD PUSH2 0x165 PUSH1 0x5 DUP5 ADD PUSH2 0x17A2 JUMP JUMPDEST PUSH2 0x171 PUSH1 0x6 DUP6 ADD PUSH2 0x17A2 JUMP JUMPDEST PUSH2 0x17D PUSH1 0x7 DUP7 ADD PUSH2 0x17A2 JUMP JUMPDEST PUSH2 0x189 PUSH1 0x8 DUP8 ADD PUSH2 0x17A2 JUMP JUMPDEST SWAP2 PUSH2 0x196 PUSH1 0x9 DUP9 ADD PUSH2 0x17A2 JUMP JUMPDEST SWAP4 PUSH2 0x1A3 PUSH1 0xA DUP10 ADD PUSH2 0x17A2 JUMP JUMPDEST SWAP6 PUSH2 0x1B0 PUSH1 0xB DUP11 ADD PUSH2 0x17A2 JUMP JUMPDEST SWAP8 PUSH2 0x1BD PUSH1 0xC DUP12 ADD PUSH2 0x17A2 JUMP JUMPDEST SWAP10 PUSH1 0xD ADD SLOAD SWAP11 PUSH1 0x40 MLOAD SWAP14 DUP15 SWAP14 DUP15 SWAP3 DUP4 MSTORE PUSH1 0x20 DUP4 ADD PUSH2 0x1C0 SWAP1 MSTORE PUSH2 0x1C0 DUP4 ADD PUSH2 0x1E4 SWAP2 PUSH2 0x1513 JUMP JUMPDEST SWAP2 PUSH1 0x40 ADD MSTORE DUP13 DUP1 DUP3 SUB SWAP1 PUSH1 0x60 ADD MSTORE PUSH2 0x1FB SWAP2 PUSH2 0x1513 JUMP JUMPDEST SWAP1 PUSH1 0x80 DUP13 ADD MSTORE DUP11 DUP2 SUB PUSH1 0xA0 DUP13 ADD MSTORE PUSH2 0x212 SWAP2 PUSH2 0x1513 JUMP JUMPDEST DUP10 DUP2 SUB PUSH1 0xC0 DUP12 ADD MSTORE PUSH2 0x223 SWAP2 PUSH2 0x1513 JUMP JUMPDEST DUP9 DUP2 SUB PUSH1 0xE0 DUP11 ADD MSTORE PUSH2 0x234 SWAP2 PUSH2 0x1513 JUMP JUMPDEST DUP8 DUP2 SUB PUSH2 0x100 DUP10 ADD MSTORE PUSH2 0x246 SWAP2 PUSH2 0x1513 JUMP JUMPDEST DUP7 DUP2 SUB PUSH2 0x120 DUP9 ADD MSTORE PUSH2 0x258 SWAP2 PUSH2 0x1513 JUMP JUMPDEST DUP6 DUP2 SUB PUSH2 0x140 DUP8 ADD MSTORE PUSH2 0x26A SWAP2 PUSH2 0x1513 JUMP JUMPDEST DUP5 DUP2 SUB PUSH2 0x160 DUP7 ADD MSTORE PUSH2 0x27C SWAP2 PUSH2 0x1513 JUMP JUMPDEST DUP4 DUP2 SUB PUSH2 0x180 DUP6 ADD MSTORE PUSH2 0x28E SWAP2 PUSH2 0x1513 JUMP JUMPDEST SWAP1 PUSH2 0x1A0 DUP4 ADD MSTORE SUB SWAP1 RETURN JUMPDEST CALLVALUE PUSH2 0xDF JUMPI PUSH1 0x20 CALLDATASIZE PUSH1 0x3 NOT ADD SLT PUSH2 0xDF JUMPI PUSH2 0x2B2 PUSH2 0x173B JUMP JUMPDEST PUSH2 0x2C7 PUSH1 0x1 DUP1 PUSH1 0xA0 SHL SUB PUSH1 0x2 SLOAD AND CALLER EQ PUSH2 0x1842 JUMP JUMPDEST PUSH1 0x1 PUSH1 0x1 PUSH1 0xA0 SHL SUB AND PUSH0 SWAP1 DUP2 MSTORE PUSH1 0x4 PUSH1 0x20 MSTORE PUSH1 0x40 SWAP1 KECCAK256 DUP1 SLOAD PUSH2 0x2E8 DUP2 PUSH2 0x1898 JUMP JUMPDEST SWAP2 PUSH2 0x2F6 PUSH1 0x40 MLOAD SWAP4 DUP5 PUSH2 0x16C5 JUMP JUMPDEST DUP2 DUP4 MSTORE PUSH1 0x20 DUP4 ADD SWAP1 PUSH0 MSTORE PUSH1 0x20 PUSH0 KECCAK256 PUSH0 SWAP2 JUMPDEST DUP4 DUP4 LT PUSH2 0x31C JUMPI PUSH1 0x40 MLOAD DUP1 PUSH2 0xDB DUP8 DUP3 PUSH2 0x164A JUMP JUMPDEST PUSH1 0xE PUSH1 0x20 PUSH1 0x1 SWAP3 PUSH2 0x32C DUP6 PUSH2 0x1932 JUMP JUMPDEST DUP2 MSTORE ADD SWAP3 ADD SWAP3 ADD SWAP2 SWAP1 PUSH2 0x307 JUMP JUMPDEST PUSH2 0x180 CALLDATASIZE PUSH1 0x3 NOT ADD SLT PUSH2 0xDF JUMPI PUSH1 0x4 CALLDATALOAD PUSH1 0x1 PUSH1 0x1 PUSH1 0x40 SHL SUB DUP2 GT PUSH2 0xDF JUMPI PUSH2 0x366 SWAP1 CALLDATASIZE SWAP1 PUSH1 0x4 ADD PUSH2 0x16E6 JUMP JUMPDEST PUSH1 0x44 CALLDATALOAD PUSH1 0x1 PUSH1 0x1 PUSH1 0x40 SHL SUB DUP2 GT PUSH2 0xDF JUMPI PUSH2 0x385 SWAP1 CALLDATASIZE SWAP1 PUSH1 0x4 ADD PUSH2 0x16E6 JUMP JUMPDEST PUSH1 0x84 CALLDATALOAD PUSH1 0x1 PUSH1 0x1 PUSH1 0x40 SHL SUB DUP2 GT PUSH2 0xDF JUMPI PUSH2 0x3A4 SWAP1 CALLDATASIZE SWAP1 PUSH1 0x4 ADD PUSH2 0x16E6 JUMP JUMPDEST SWAP2 PUSH1 0xA4 CALLDATALOAD PUSH1 0x1 PUSH1 0x1 PUSH1 0x40 SHL SUB DUP2 GT PUSH2 0xDF JUMPI PUSH2 0x3C4 SWAP1 CALLDATASIZE SWAP1 PUSH1 0x4 ADD PUSH2 0x16E6 JUMP JUMPDEST PUSH1 0xC4 CALLDATALOAD PUSH1 0x1 PUSH1 0x1 PUSH1 0x40 SHL SUB DUP2 GT PUSH2 0xDF JUMPI PUSH2 0x3E3 SWAP1 CALLDATASIZE SWAP1 PUSH1 0x4 ADD PUSH2 0x16E6 JUMP JUMPDEST PUSH1 0xE4 CALLDATALOAD PUSH1 0x1 PUSH1 0x1 PUSH1 0x40 SHL SUB DUP2 GT PUSH2 0xDF JUMPI PUSH2 0x402 SWAP1 CALLDATASIZE SWAP1 PUSH1 0x4 ADD PUSH2 0x16E6 JUMP JUMPDEST PUSH2 0x104 CALLDATALOAD PUSH1 0x1 PUSH1 0x1 PUSH1 0x40 SHL SUB DUP2 GT PUSH2 0xDF JUMPI PUSH2 0x422 SWAP1 CALLDATASIZE SWAP1 PUSH1 0x4 ADD PUSH2 0x16E6 JUMP JUMPDEST SWAP1 PUSH2 0x124 CALLDATALOAD PUSH1 0x1 PUSH1 0x1 PUSH1 0x40 SHL SUB DUP2 GT PUSH2 0xDF JUMPI PUSH2 0x443 SWAP1 CALLDATASIZE SWAP1 PUSH1 0x4 ADD PUSH2 0x16E6 JUMP JUMPDEST SWAP3 PUSH2 0x144 CALLDATALOAD PUSH1 0x1 PUSH1 0x1 PUSH1 0x40 SHL SUB DUP2 GT PUSH2 0xDF JUMPI PUSH2 0x464 SWAP1 CALLDATASIZE SWAP1 PUSH1 0x4 ADD PUSH2 0x16E6 JUMP JUMPDEST SWAP5 PUSH2 0x164 CALLDATALOAD PUSH1 0x1 PUSH1 0x1 PUSH1 0x40 SHL SUB DUP2 GT PUSH2 0xDF JUMPI PUSH2 0x485 SWAP1 CALLDATASIZE SWAP1 PUSH1 0x4 ADD PUSH2 0x16E6 JUMP JUMPDEST SWAP9 PUSH1 0x1 DUP1 PUSH1 0xA0 SHL SUB PUSH0 SLOAD AND PUSH1 0x40 MLOAD PUSH4 0x70A08231 PUSH1 0xE0 SHL DUP2 MSTORE CALLER PUSH1 0x4 DUP3 ADD MSTORE PUSH1 0x20 DUP2 PUSH1 0x24 DUP2 DUP6 GAS STATICCALL SWAP1 DUP2 ISZERO PUSH2 0x1186 JUMPI PUSH0 SWAP2 PUSH2 0x11D6 JUMPI JUMPDEST POP PUSH1 0x1 SLOAD DUP1 SWAP2 LT PUSH2 0x1191 JUMPI PUSH0 SWAP2 PUSH1 0x64 PUSH1 0x20 SWAP3 PUSH1 0x40 MLOAD SWAP5 DUP6 SWAP4 DUP5 SWAP3 PUSH4 0x23B872DD PUSH1 0xE0 SHL DUP5 MSTORE CALLER PUSH1 0x4 DUP6 ADD MSTORE ADDRESS PUSH1 0x24 DUP6 ADD MSTORE PUSH1 0x44 DUP5 ADD MSTORE GAS CALL SWAP1 DUP2 ISZERO PUSH2 0x1186 JUMPI PUSH0 SWAP2 PUSH2 0x114B JUMPI JUMPDEST POP ISZERO PUSH2 0x110E JUMPI CALLER PUSH0 MSTORE PUSH1 0x4 PUSH1 0x20 MSTORE PUSH1 0x40 PUSH0 KECCAK256 SLOAD ISZERO PUSH2 0x10CE JUMPI JUMPDEST PUSH1 0x40 MLOAD SWAP9 PUSH2 0x525 DUP11 PUSH2 0x16A9 JUMP JUMPDEST CALLER DUP11 MSTORE PUSH1 0x20 DUP11 ADD SWAP9 DUP10 MSTORE PUSH1 0x40 DUP11 ADD SWAP1 PUSH1 0x24 CALLDATALOAD DUP3 MSTORE PUSH1 0x60 DUP12 ADD SWAP1 DUP2 MSTORE PUSH1 0x80 DUP12 ADD SWAP2 PUSH1 0x64 CALLDATALOAD DUP4 MSTORE PUSH1 0xA0 DUP13 ADD SWAP4 DUP5 MSTORE PUSH1 0xC0 DUP13 ADD SWAP5 DUP6 MSTORE PUSH1 0xE0 DUP13 ADD SWAP6 DUP7 MSTORE PUSH2 0x100 DUP13 ADD SWAP7 DUP8 MSTORE PUSH2 0x120 DUP13 ADD SWAP8 DUP9 MSTORE PUSH2 0x140 DUP13 ADD SWAP9 DUP10 MSTORE PUSH2 0x160 DUP13 ADD SWAP10 DUP11 MSTORE PUSH2 0x180 DUP13 ADD SWAP13 DUP14 MSTORE PUSH2 0x1A0 DUP13 ADD SWAP11 TIMESTAMP DUP13 MSTORE CALLER PUSH0 MSTORE PUSH1 0x4 PUSH1 0x20 MSTORE PUSH1 0x40 PUSH0 KECCAK256 DUP1 SLOAD PUSH1 0x1 PUSH1 0x40 SHL DUP2 LT ISZERO PUSH2 0x9F9 JUMPI PUSH2 0x5B9 SWAP2 PUSH1 0x1 DUP3 ADD DUP2 SSTORE PUSH2 0x1751 JUMP JUMPDEST SWAP14 SWAP1 SWAP14 PUSH2 0x10BB JUMPI MLOAD DUP14 SLOAD PUSH1 0x1 PUSH1 0x1 PUSH1 0xA0 SHL SUB NOT AND PUSH1 0x1 PUSH1 0x1 PUSH1 0xA0 SHL SUB SWAP2 SWAP1 SWAP2 AND OR DUP14 SSTORE MLOAD DUP1 MLOAD PUSH1 0x1 DUP15 ADD SWAP2 PUSH1 0x1 PUSH1 0x1 PUSH1 0x40 SHL SUB DUP3 GT PUSH2 0x9F9 JUMPI DUP2 SWAP1 PUSH2 0x5FE DUP5 SLOAD PUSH2 0x176A JUMP JUMPDEST PUSH1 0x1F DUP2 GT PUSH2 0x106B JUMPI JUMPDEST POP PUSH1 0x20 SWAP1 PUSH1 0x1F DUP4 GT PUSH1 0x1 EQ PUSH2 0x1008 JUMPI PUSH0 SWAP3 PUSH2 0xFFD JUMPI JUMPDEST POP POP DUP2 PUSH1 0x1 SHL SWAP2 PUSH0 NOT SWAP1 PUSH1 0x3 SHL SHR NOT AND OR SWAP1 SSTORE JUMPDEST MLOAD PUSH1 0x2 DUP13 ADD SSTORE MLOAD DUP1 MLOAD PUSH1 0x3 DUP13 ADD SWAP2 PUSH1 0x1 PUSH1 0x1 PUSH1 0x40 SHL SUB DUP3 GT PUSH2 0x9F9 JUMPI DUP2 SWAP1 PUSH2 0x659 DUP5 SLOAD PUSH2 0x176A JUMP JUMPDEST PUSH1 0x1F DUP2 GT PUSH2 0xFAD JUMPI JUMPDEST POP PUSH1 0x20 SWAP1 PUSH1 0x1F DUP4 GT PUSH1 0x1 EQ PUSH2 0xF4A JUMPI PUSH0 SWAP3 PUSH2 0xF3F JUMPI JUMPDEST POP POP DUP2 PUSH1 0x1 SHL SWAP2 PUSH0 NOT SWAP1 PUSH1 0x3 SHL SHR NOT AND OR SWAP1 SSTORE JUMPDEST MLOAD PUSH1 0x4 DUP11 ADD SSTORE MLOAD DUP1 MLOAD PUSH1 0x5 DUP11 ADD SWAP2 PUSH1 0x1 PUSH1 0x1 PUSH1 0x40 SHL SUB DUP3 GT PUSH2 0x9F9 JUMPI DUP2 SWAP1 PUSH2 0x6B4 DUP5 SLOAD PUSH2 0x176A JUMP JUMPDEST PUSH1 0x1F DUP2 GT PUSH2 0xEEF JUMPI JUMPDEST POP PUSH1 0x20 SWAP1 PUSH1 0x1F DUP4 GT PUSH1 0x1 EQ PUSH2 0xE8C JUMPI PUSH0 SWAP3 PUSH2 0xE81 JUMPI JUMPDEST POP POP DUP2 PUSH1 0x1 SHL SWAP2 PUSH0 NOT SWAP1 PUSH1 0x3 SHL SHR NOT AND OR SWAP1 SSTORE JUMPDEST MLOAD DUP1 MLOAD PUSH1 0x6 DUP10 ADD SWAP2 PUSH1 0x1 PUSH1 0x1 PUSH1 0x40 SHL SUB DUP3 GT PUSH2 0x9F9 JUMPI DUP2 SWAP1 PUSH2 0x709 DUP5 SLOAD PUSH2 0x176A JUMP JUMPDEST PUSH1 0x1F DUP2 GT PUSH2 0xE31 JUMPI JUMPDEST POP PUSH1 0x20 SWAP1 PUSH1 0x1F DUP4 GT PUSH1 0x1 EQ PUSH2 0xDCE JUMPI PUSH0 SWAP3 PUSH2 0xDC3 JUMPI JUMPDEST POP POP DUP2 PUSH1 0x1 SHL SWAP2 PUSH0 NOT SWAP1 PUSH1 0x3 SHL SHR NOT AND OR SWAP1 SSTORE JUMPDEST MLOAD DUP1 MLOAD PUSH1 0x7 DUP9 ADD SWAP2 PUSH1 0x1 PUSH1 0x1 PUSH1 0x40 SHL SUB DUP3 GT PUSH2 0x9F9 JUMPI DUP2 SWAP1 PUSH2 0x75E DUP5 SLOAD PUSH2 0x176A JUMP JUMPDEST PUSH1 0x1F DUP2 GT PUSH2 0xD73 JUMPI JUMPDEST POP PUSH1 0x20 SWAP1 PUSH1 0x1F DUP4 GT PUSH1 0x1 EQ PUSH2 0xD10 JUMPI PUSH0 SWAP3 PUSH2 0xD05 JUMPI JUMPDEST POP POP DUP2 PUSH1 0x1 SHL SWAP2 PUSH0 NOT SWAP1 PUSH1 0x3 SHL SHR NOT AND OR SWAP1 SSTORE JUMPDEST MLOAD DUP1 MLOAD PUSH1 0x8 DUP8 ADD SWAP2 PUSH1 0x1 PUSH1 0x1 PUSH1 0x40 SHL SUB DUP3 GT PUSH2 0x9F9 JUMPI DUP2 SWAP1 PUSH2 0x7B3 DUP5 SLOAD PUSH2 0x176A JUMP JUMPDEST PUSH1 0x1F DUP2 GT PUSH2 0xCB5 JUMPI JUMPDEST POP PUSH1 0x20 SWAP1 PUSH1 0x1F DUP4 GT PUSH1 0x1 EQ PUSH2 0xC52 JUMPI PUSH0 SWAP3 PUSH2 0xC47 JUMPI JUMPDEST POP POP DUP2 PUSH1 0x1 SHL SWAP2 PUSH0 NOT SWAP1 PUSH1 0x3 SHL SHR NOT AND OR SWAP1 SSTORE JUMPDEST MLOAD DUP1 MLOAD PUSH1 0x9 DUP7 ADD SWAP2 PUSH1 0x1 PUSH1 0x1 PUSH1 0x40 SHL SUB DUP3 GT PUSH2 0x9F9 JUMPI DUP2 SWAP1 PUSH2 0x808 DUP5 SLOAD PUSH2 0x176A JUMP JUMPDEST PUSH1 0x1F DUP2 GT PUSH2 0xBF7 JUMPI JUMPDEST POP PUSH1 0x20 SWAP1 PUSH1 0x1F DUP4 GT PUSH1 0x1 EQ PUSH2 0xB94 JUMPI PUSH0 SWAP3 PUSH2 0xB89 JUMPI JUMPDEST POP POP DUP2 PUSH1 0x1 SHL SWAP2 PUSH0 NOT SWAP1 PUSH1 0x3 SHL SHR NOT AND OR SWAP1 SSTORE JUMPDEST MLOAD DUP1 MLOAD PUSH1 0xA DUP6 ADD SWAP2 PUSH1 0x1 PUSH1 0x1 PUSH1 0x40 SHL SUB DUP3 GT PUSH2 0x9F9 JUMPI DUP2 SWAP1 PUSH2 0x85D DUP5 SLOAD PUSH2 0x176A JUMP JUMPDEST PUSH1 0x1F DUP2 GT PUSH2 0xB39 JUMPI JUMPDEST POP PUSH1 0x20 SWAP1 PUSH1 0x1F DUP4 GT PUSH1 0x1 EQ PUSH2 0xAD6 JUMPI PUSH0 SWAP3 PUSH2 0xACB JUMPI JUMPDEST POP POP DUP2 PUSH1 0x1 SHL SWAP2 PUSH0 NOT SWAP1 PUSH1 0x3 SHL SHR NOT AND OR SWAP1 SSTORE JUMPDEST MLOAD DUP1 MLOAD PUSH1 0xB DUP5 ADD SWAP2 PUSH1 0x1 PUSH1 0x1 PUSH1 0x40 SHL SUB DUP3 GT PUSH2 0x9F9 JUMPI DUP2 SWAP1 PUSH2 0x8B2 DUP5 SLOAD PUSH2 0x176A JUMP JUMPDEST PUSH1 0x1F DUP2 GT PUSH2 0xA7B JUMPI JUMPDEST POP PUSH1 0x20 SWAP1 PUSH1 0x1F DUP4 GT PUSH1 0x1 EQ PUSH2 0xA18 JUMPI PUSH0 SWAP3 PUSH2 0xA0D JUMPI JUMPDEST POP POP DUP2 PUSH1 0x1 SHL SWAP2 PUSH0 NOT SWAP1 PUSH1 0x3 SHL SHR NOT AND OR SWAP1 SSTORE JUMPDEST PUSH1 0xC DUP3 ADD SWAP3 MLOAD SWAP3 DUP4 MLOAD PUSH1 0x1 PUSH1 0x1 PUSH1 0x40 SHL SUB DUP2 GT PUSH2 0x9F9 JUMPI PUSH2 0x906 DUP3 SLOAD PUSH2 0x176A JUMP JUMPDEST PUSH1 0x1F DUP2 GT PUSH2 0x9B4 JUMPI JUMPDEST POP PUSH1 0x20 PUSH1 0x1F DUP3 GT PUSH1 0x1 EQ PUSH2 0x94F JUMPI DUP2 SWAP1 PUSH1 0xD SWAP6 SWAP7 PUSH0 SWAP3 PUSH2 0x944 JUMPI JUMPDEST POP POP DUP2 PUSH1 0x1 SHL SWAP2 PUSH0 NOT SWAP1 PUSH1 0x3 SHL SHR NOT AND OR SWAP1 SSTORE JUMPDEST MLOAD SWAP2 ADD SSTORE STOP JUMPDEST ADD MLOAD SWAP1 POP DUP7 DUP1 PUSH2 0x92A JUMP JUMPDEST PUSH1 0x1F NOT DUP3 AND SWAP6 DUP4 PUSH0 MSTORE DUP2 PUSH0 KECCAK256 SWAP7 PUSH0 JUMPDEST DUP2 DUP2 LT PUSH2 0x99C JUMPI POP SWAP2 PUSH1 0xD SWAP7 SWAP8 SWAP2 DUP5 PUSH1 0x1 SWAP6 SWAP5 LT PUSH2 0x984 JUMPI JUMPDEST POP POP POP DUP2 SHL ADD SWAP1 SSTORE PUSH2 0x93E JUMP JUMPDEST ADD MLOAD PUSH0 NOT PUSH1 0xF8 DUP5 PUSH1 0x3 SHL AND SHR NOT AND SWAP1 SSTORE DUP7 DUP1 DUP1 PUSH2 0x977 JUMP JUMPDEST DUP4 DUP4 ADD MLOAD DUP10 SSTORE PUSH1 0x1 SWAP1 SWAP9 ADD SWAP8 PUSH1 0x20 SWAP4 DUP5 ADD SWAP4 ADD PUSH2 0x95E JUMP JUMPDEST DUP3 PUSH0 MSTORE PUSH1 0x20 PUSH0 KECCAK256 PUSH1 0x1F DUP4 ADD PUSH1 0x5 SHR DUP2 ADD SWAP2 PUSH1 0x20 DUP5 LT PUSH2 0x9EF JUMPI JUMPDEST PUSH1 0x1F ADD PUSH1 0x5 SHR ADD SWAP1 JUMPDEST DUP2 DUP2 LT PUSH2 0x9E4 JUMPI POP PUSH2 0x90F JUMP JUMPDEST PUSH0 DUP2 SSTORE PUSH1 0x1 ADD PUSH2 0x9D7 JUMP JUMPDEST SWAP1 SWAP2 POP DUP2 SWAP1 PUSH2 0x9CE JUMP JUMPDEST PUSH4 0x4E487B71 PUSH1 0xE0 SHL PUSH0 MSTORE PUSH1 0x41 PUSH1 0x4 MSTORE PUSH1 0x24 PUSH0 REVERT JUMPDEST ADD MLOAD SWAP1 POP DUP7 DUP1 PUSH2 0x8D1 JUMP JUMPDEST PUSH0 DUP6 DUP2 MSTORE DUP3 DUP2 KECCAK256 SWAP4 POP PUSH1 0x1F NOT DUP6 AND SWAP1 JUMPDEST DUP2 DUP2 LT PUSH2 0xA63 JUMPI POP SWAP1 DUP5 PUSH1 0x1 SWAP6 SWAP5 SWAP4 SWAP3 LT PUSH2 0xA4B JUMPI JUMPDEST POP POP POP DUP2 SHL ADD SWAP1 SSTORE PUSH2 0x8E5 JUMP JUMPDEST ADD MLOAD PUSH0 NOT PUSH1 0xF8 DUP5 PUSH1 0x3 SHL AND SHR NOT AND SWAP1 SSTORE DUP7 DUP1 DUP1 PUSH2 0xA3E JUMP JUMPDEST SWAP3 SWAP4 PUSH1 0x20 PUSH1 0x1 DUP2 SWAP3 DUP8 DUP7 ADD MLOAD DUP2 SSTORE ADD SWAP6 ADD SWAP4 ADD PUSH2 0xA28 JUMP JUMPDEST SWAP1 SWAP2 POP DUP4 PUSH0 MSTORE PUSH1 0x20 PUSH0 KECCAK256 PUSH1 0x1F DUP5 ADD PUSH1 0x5 SHR DUP2 ADD SWAP2 PUSH1 0x20 DUP6 LT PUSH2 0xAC1 JUMPI JUMPDEST SWAP1 PUSH1 0x1F DUP6 SWAP5 SWAP4 SWAP3 ADD PUSH1 0x5 SHR ADD SWAP1 JUMPDEST DUP2 DUP2 LT PUSH2 0xAB3 JUMPI POP PUSH2 0x8BB JUMP JUMPDEST PUSH0 DUP2 SSTORE DUP5 SWAP4 POP PUSH1 0x1 ADD PUSH2 0xAA6 JUMP JUMPDEST SWAP1 SWAP2 POP DUP2 SWAP1 PUSH2 0xA98 JUMP JUMPDEST ADD MLOAD SWAP1 POP DUP8 DUP1 PUSH2 0x87C JUMP JUMPDEST PUSH0 DUP6 DUP2 MSTORE DUP3 DUP2 KECCAK256 SWAP4 POP PUSH1 0x1F NOT DUP6 AND SWAP1 JUMPDEST DUP2 DUP2 LT PUSH2 0xB21 JUMPI POP SWAP1 DUP5 PUSH1 0x1 SWAP6 SWAP5 SWAP4 SWAP3 LT PUSH2 0xB09 JUMPI JUMPDEST POP POP POP DUP2 SHL ADD SWAP1 SSTORE PUSH2 0x890 JUMP JUMPDEST ADD MLOAD PUSH0 NOT PUSH1 0xF8 DUP5 PUSH1 0x3 SHL AND SHR NOT AND SWAP1 SSTORE DUP8 DUP1 DUP1 PUSH2 0xAFC JUMP JUMPDEST SWAP3 SWAP4 PUSH1 0x20 PUSH1 0x1 DUP2 SWAP3 DUP8 DUP7 ADD MLOAD DUP2 SSTORE ADD SWAP6 ADD SWAP4 ADD PUSH2 0xAE6 JUMP JUMPDEST SWAP1 SWAP2 POP DUP4 PUSH0 MSTORE PUSH1 0x20 PUSH0 KECCAK256 PUSH1 0x1F DUP5 ADD PUSH1 0x5 SHR DUP2 ADD SWAP2 PUSH1 0x20 DUP6 LT PUSH2 0xB7F JUMPI JUMPDEST SWAP1 PUSH1 0x1F DUP6 SWAP5 SWAP4 SWAP3 ADD PUSH1 0x5 SHR ADD SWAP1 JUMPDEST DUP2 DUP2 LT PUSH2 0xB71 JUMPI POP PUSH2 0x866 JUMP JUMPDEST PUSH0 DUP2 SSTORE DUP5 SWAP4 POP PUSH1 0x1 ADD PUSH2 0xB64 JUMP JUMPDEST SWAP1 SWAP2 POP DUP2 SWAP1 PUSH2 0xB56 JUMP JUMPDEST ADD MLOAD SWAP1 POP DUP9 DUP1 PUSH2 0x827 JUMP JUMPDEST PUSH0 DUP6 DUP2 MSTORE DUP3 DUP2 KECCAK256 SWAP4 POP PUSH1 0x1F NOT DUP6 AND SWAP1 JUMPDEST DUP2 DUP2 LT PUSH2 0xBDF JUMPI POP SWAP1 DUP5 PUSH1 0x1 SWAP6 SWAP5 SWAP4 SWAP3 LT PUSH2 0xBC7 JUMPI JUMPDEST POP POP POP DUP2 SHL ADD SWAP1 SSTORE PUSH2 0x83B JUMP JUMPDEST ADD MLOAD PUSH0 NOT PUSH1 0xF8 DUP5 PUSH1 0x3 SHL AND SHR NOT AND SWAP1 SSTORE DUP9 DUP1 DUP1 PUSH2 0xBBA JUMP JUMPDEST SWAP3 SWAP4 PUSH1 0x20 PUSH1 0x1 DUP2 SWAP3 DUP8 DUP7 ADD MLOAD DUP2 SSTORE ADD SWAP6 ADD SWAP4 ADD PUSH2 0xBA4 JUMP JUMPDEST SWAP1 SWAP2 POP DUP4 PUSH0 MSTORE PUSH1 0x20 PUSH0 KECCAK256 PUSH1 0x1F DUP5 ADD PUSH1 0x5 SHR DUP2 ADD SWAP2 PUSH1 0x20 DUP6 LT PUSH2 0xC3D JUMPI JUMPDEST SWAP1 PUSH1 0x1F DUP6 SWAP5 SWAP4 SWAP3 ADD PUSH1 0x5 SHR ADD SWAP1 JUMPDEST DUP2 DUP2 LT PUSH2 0xC2F JUMPI POP PUSH2 0x811 JUMP JUMPDEST PUSH0 DUP2 SSTORE DUP5 SWAP4 POP PUSH1 0x1 ADD PUSH2 0xC22 JUMP JUMPDEST SWAP1 SWAP2 POP DUP2 SWAP1 PUSH2 0xC14 JUMP JUMPDEST ADD MLOAD SWAP1 POP DUP10 DUP1 PUSH2 0x7D2 JUMP JUMPDEST PUSH0 DUP6 DUP2 MSTORE DUP3 DUP2 KECCAK256 SWAP4 POP PUSH1 0x1F NOT DUP6 AND SWAP1 JUMPDEST DUP2 DUP2 LT PUSH2 0xC9D JUMPI POP SWAP1 DUP5 PUSH1 0x1 SWAP6 SWAP5 SWAP4 SWAP3 LT PUSH2 0xC85 JUMPI JUMPDEST POP POP POP DUP2 SHL ADD SWAP1 SSTORE PUSH2 0x7E6 JUMP JUMPDEST ADD MLOAD PUSH0 NOT PUSH1 0xF8 DUP5 PUSH1 0x3 SHL AND SHR NOT AND SWAP1 SSTORE DUP10 DUP1 DUP1 PUSH2 0xC78 JUMP JUMPDEST SWAP3 SWAP4 PUSH1 0x20 PUSH1 0x1 DUP2 SWAP3 DUP8 DUP7 ADD MLOAD DUP2 SSTORE ADD SWAP6 ADD SWAP4 ADD PUSH2 0xC62 JUMP JUMPDEST SWAP1 SWAP2 POP DUP4 PUSH0 MSTORE PUSH1 0x20 PUSH0 KECCAK256 PUSH1 0x1F DUP5 ADD PUSH1 0x5 SHR DUP2 ADD SWAP2 PUSH1 0x20 DUP6 LT PUSH2 0xCFB JUMPI JUMPDEST SWAP1 PUSH1 0x1F DUP6 SWAP5 SWAP4 SWAP3 ADD PUSH1 0x5 SHR ADD SWAP1 JUMPDEST DUP2 DUP2 LT PUSH2 0xCED JUMPI POP PUSH2 0x7BC JUMP JUMPDEST PUSH0 DUP2 SSTORE DUP5 SWAP4 POP PUSH1 0x1 ADD PUSH2 0xCE0 JUMP JUMPDEST SWAP1 SWAP2 POP DUP2 SWAP1 PUSH2 0xCD2 JUMP JUMPDEST ADD MLOAD SWAP1 POP DUP11 DUP1 PUSH2 0x77D JUMP JUMPDEST PUSH0 DUP6 DUP2 MSTORE DUP3 DUP2 KECCAK256 SWAP4 POP PUSH1 0x1F NOT DUP6 AND SWAP1 JUMPDEST DUP2 DUP2 LT PUSH2 0xD5B JUMPI POP SWAP1 DUP5 PUSH1 0x1 SWAP6 SWAP5 SWAP4 SWAP3 LT PUSH2 0xD43 JUMPI JUMPDEST POP POP POP DUP2 SHL ADD SWAP1 SSTORE PUSH2 0x791 JUMP JUMPDEST ADD MLOAD PUSH0 NOT PUSH1 0xF8 DUP5 PUSH1 0x3 SHL AND SHR NOT AND SWAP1 SSTORE DUP11 DUP1 DUP1 PUSH2 0xD36 JUMP JUMPDEST SWAP3 SWAP4 PUSH1 0x20 PUSH1 0x1 DUP2 SWAP3 DUP8 DUP7 ADD MLOAD DUP2 SSTORE ADD SWAP6 ADD SWAP4 ADD PUSH2 0xD20 JUMP JUMPDEST SWAP1 SWAP2 POP DUP4 PUSH0 MSTORE PUSH1 0x20 PUSH0 KECCAK256 PUSH1 0x1F DUP5 ADD PUSH1 0x5 SHR DUP2 ADD SWAP2 PUSH1 0x20 DUP6 LT PUSH2 0xDB9 JUMPI JUMPDEST SWAP1 PUSH1 0x1F DUP6 SWAP5 SWAP4 SWAP3 ADD PUSH1 0x5 SHR ADD SWAP1 JUMPDEST DUP2 DUP2 LT PUSH2 0xDAB JUMPI POP PUSH2 0x767 JUMP JUMPDEST PUSH0 DUP2 SSTORE DUP5 SWAP4 POP PUSH1 0x1 ADD PUSH2 0xD9E JUMP JUMPDEST SWAP1 SWAP2 POP DUP2 SWAP1 PUSH2 0xD90 JUMP JUMPDEST ADD MLOAD SWAP1 POP DUP12 DUP1 PUSH2 0x728 JUMP JUMPDEST PUSH0 DUP6 DUP2 MSTORE DUP3 DUP2 KECCAK256 SWAP4 POP PUSH1 0x1F NOT DUP6 AND SWAP1 JUMPDEST DUP2 DUP2 LT PUSH2 0xE19 JUMPI POP SWAP1 DUP5 PUSH1 0x1 SWAP6 SWAP5 SWAP4 SWAP3 LT PUSH2 0xE01 JUMPI JUMPDEST POP POP POP DUP2 SHL ADD SWAP1 SSTORE PUSH2 0x73C JUMP JUMPDEST ADD MLOAD PUSH0 NOT PUSH1 0xF8 DUP5 PUSH1 0x3 SHL AND SHR NOT AND SWAP1 SSTORE DUP12 DUP1 DUP1 PUSH2 0xDF4 JUMP JUMPDEST SWAP3 SWAP4 PUSH1 0x20 PUSH1 0x1 DUP2 SWAP3 DUP8 DUP7 ADD MLOAD DUP2 SSTORE ADD SWAP6 ADD SWAP4 ADD PUSH2 0xDDE JUMP JUMPDEST SWAP1 SWAP2 POP DUP4 PUSH0 MSTORE PUSH1 0x20 PUSH0 KECCAK256 PUSH1 0x1F DUP5 ADD PUSH1 0x5 SHR DUP2 ADD SWAP2 PUSH1 0x20 DUP6 LT PUSH2 0xE77 JUMPI JUMPDEST SWAP1 PUSH1 0x1F DUP6 SWAP5 SWAP4 SWAP3 ADD PUSH1 0x5 SHR ADD SWAP1 JUMPDEST DUP2 DUP2 LT PUSH2 0xE69 JUMPI POP PUSH2 0x712 JUMP JUMPDEST PUSH0 DUP2 SSTORE DUP5 SWAP4 POP PUSH1 0x1 ADD PUSH2 0xE5C JUMP JUMPDEST SWAP1 SWAP2 POP DUP2 SWAP1 PUSH2 0xE4E JUMP JUMPDEST ADD MLOAD SWAP1 POP DUP13 DUP1 PUSH2 0x6D3 JUMP JUMPDEST PUSH0 DUP6 DUP2 MSTORE DUP3 DUP2 KECCAK256 SWAP4 POP PUSH1 0x1F NOT DUP6 AND SWAP1 JUMPDEST DUP2 DUP2 LT PUSH2 0xED7 JUMPI POP SWAP1 DUP5 PUSH1 0x1 SWAP6 SWAP5 SWAP4 SWAP3 LT PUSH2 0xEBF JUMPI JUMPDEST POP POP POP DUP2 SHL ADD SWAP1 SSTORE PUSH2 0x6E7 JUMP JUMPDEST ADD MLOAD PUSH0 NOT PUSH1 0xF8 DUP5 PUSH1 0x3 SHL AND SHR NOT AND SWAP1 SSTORE DUP13 DUP1 DUP1 PUSH2 0xEB2 JUMP JUMPDEST SWAP3 SWAP4 PUSH1 0x20 PUSH1 0x1 DUP2 SWAP3 DUP8 DUP7 ADD MLOAD DUP2 SSTORE ADD SWAP6 ADD SWAP4 ADD PUSH2 0xE9C JUMP JUMPDEST SWAP1 SWAP2 POP DUP4 PUSH0 MSTORE PUSH1 0x20 PUSH0 KECCAK256 PUSH1 0x1F DUP5 ADD PUSH1 0x5 SHR DUP2 ADD SWAP2 PUSH1 0x20 DUP6 LT PUSH2 0xF35 JUMPI JUMPDEST SWAP1 PUSH1 0x1F DUP6 SWAP5 SWAP4 SWAP3 ADD PUSH1 0x5 SHR ADD SWAP1 JUMPDEST DUP2 DUP2 LT PUSH2 0xF27 JUMPI POP PUSH2 0x6BD JUMP JUMPDEST PUSH0 DUP2 SSTORE DUP5 SWAP4 POP PUSH1 0x1 ADD PUSH2 0xF1A JUMP JUMPDEST SWAP1 SWAP2 POP DUP2 SWAP1 PUSH2 0xF0C JUMP JUMPDEST ADD MLOAD SWAP1 POP DUP15 DUP1 PUSH2 0x678 JUMP JUMPDEST PUSH0 DUP6 DUP2 MSTORE DUP3 DUP2 KECCAK256 SWAP4 POP PUSH1 0x1F NOT DUP6 AND SWAP1 JUMPDEST DUP2 DUP2 LT PUSH2 0xF95 JUMPI POP SWAP1 DUP5 PUSH1 0x1 SWAP6 SWAP5 SWAP4 SWAP3 LT PUSH2 0xF7D JUMPI JUMPDEST POP POP POP DUP2 SHL ADD SWAP1 SSTORE PUSH2 0x68C JUMP JUMPDEST ADD MLOAD PUSH0 NOT PUSH1 0xF8 DUP5 PUSH1 0x3 SHL AND SHR NOT AND SWAP1 SSTORE DUP15 DUP1 DUP1 PUSH2 0xF70 JUMP JUMPDEST SWAP3 SWAP4 PUSH1 0x20 PUSH1 0x1 DUP2 SWAP3 DUP8 DUP7 ADD MLOAD DUP2 SSTORE ADD SWAP6 ADD SWAP4 ADD PUSH2 0xF5A JUMP JUMPDEST SWAP1 SWAP2 POP DUP4 PUSH0 MSTORE PUSH1 0x20 PUSH0 KECCAK256 PUSH1 0x1F DUP5 ADD PUSH1 0x5 SHR DUP2 ADD SWAP2 PUSH1 0x20 DUP6 LT PUSH2 0xFF3 JUMPI JUMPDEST SWAP1 PUSH1 0x1F DUP6 SWAP5 SWAP4 SWAP3 ADD PUSH1 0x5 SHR ADD SWAP1 JUMPDEST DUP2 DUP2 LT PUSH2 0xFE5 JUMPI POP PUSH2 0x662 JUMP JUMPDEST PUSH0 DUP2 SSTORE DUP5 SWAP4 POP PUSH1 0x1 ADD PUSH2 0xFD8 JUMP JUMPDEST SWAP1 SWAP2 POP DUP2 SWAP1 PUSH2 0xFCA JUMP JUMPDEST ADD MLOAD SWAP1 POP PUSH0 DUP1 PUSH2 0x61D JUMP JUMPDEST PUSH0 DUP6 DUP2 MSTORE DUP3 DUP2 KECCAK256 SWAP4 POP PUSH1 0x1F NOT DUP6 AND SWAP1 JUMPDEST DUP2 DUP2 LT PUSH2 0x1053 JUMPI POP SWAP1 DUP5 PUSH1 0x1 SWAP6 SWAP5 SWAP4 SWAP3 LT PUSH2 0x103B JUMPI JUMPDEST POP POP POP DUP2 SHL ADD SWAP1 SSTORE PUSH2 0x631 JUMP JUMPDEST ADD MLOAD PUSH0 NOT PUSH1 0xF8 DUP5 PUSH1 0x3 SHL AND SHR NOT AND SWAP1 SSTORE PUSH0 DUP1 DUP1 PUSH2 0x102E JUMP JUMPDEST SWAP3 SWAP4 PUSH1 0x20 PUSH1 0x1 DUP2 SWAP3 DUP8 DUP7 ADD MLOAD DUP2 SSTORE ADD SWAP6 ADD SWAP4 ADD PUSH2 0x1018 JUMP JUMPDEST SWAP1 SWAP2 POP DUP4 PUSH0 MSTORE PUSH1 0x20 PUSH0 KECCAK256 PUSH1 0x1F DUP5 ADD PUSH1 0x5 SHR DUP2 ADD SWAP2 PUSH1 0x20 DUP6 LT PUSH2 0x10B1 JUMPI JUMPDEST SWAP1 PUSH1 0x1F DUP6 SWAP5 SWAP4 SWAP3 ADD PUSH1 0x5 SHR ADD SWAP1 JUMPDEST DUP2 DUP2 LT PUSH2 0x10A3 JUMPI POP PUSH2 0x607 JUMP JUMPDEST PUSH0 DUP2 SSTORE DUP5 SWAP4 POP PUSH1 0x1 ADD PUSH2 0x1096 JUMP JUMPDEST SWAP1 SWAP2 POP DUP2 SWAP1 PUSH2 0x1088 JUMP JUMPDEST PUSH4 0x4E487B71 PUSH1 0xE0 SHL PUSH0 MSTORE PUSH0 PUSH1 0x4 MSTORE PUSH1 0x24 PUSH0 REVERT JUMPDEST PUSH1 0x3 SLOAD PUSH1 0x1 PUSH1 0x40 SHL DUP2 LT ISZERO PUSH2 0x9F9 JUMPI DUP1 PUSH1 0x1 PUSH2 0x10ED SWAP3 ADD PUSH1 0x3 SSTORE PUSH2 0x14E7 JUMP JUMPDEST DUP2 SLOAD PUSH1 0x1 PUSH1 0x1 PUSH1 0xA0 SHL SUB PUSH1 0x3 SWAP3 SWAP1 SWAP3 SHL SWAP2 DUP3 SHL NOT AND CALLER SWAP1 SWAP2 SHL OR SWAP1 SSTORE PUSH2 0x518 JUMP JUMPDEST PUSH1 0x40 MLOAD PUSH3 0x461BCD PUSH1 0xE5 SHL DUP2 MSTORE PUSH1 0x20 PUSH1 0x4 DUP3 ADD MSTORE PUSH1 0x15 PUSH1 0x24 DUP3 ADD MSTORE PUSH21 0x151BDAD95B881D1C985B9CD9995C8819985A5B1959 PUSH1 0x5A SHL PUSH1 0x44 DUP3 ADD MSTORE PUSH1 0x64 SWAP1 REVERT JUMPDEST SWAP1 POP PUSH1 0x20 DUP2 RETURNDATASIZE PUSH1 0x20 GT PUSH2 0x117E JUMPI JUMPDEST DUP2 PUSH2 0x1166 PUSH1 0x20 SWAP4 DUP4 PUSH2 0x16C5 JUMP JUMPDEST DUP2 ADD SUB SLT PUSH2 0xDF JUMPI MLOAD DUP1 ISZERO ISZERO DUP2 SUB PUSH2 0xDF JUMPI DUP12 PUSH2 0x4FF JUMP JUMPDEST RETURNDATASIZE SWAP2 POP PUSH2 0x1159 JUMP JUMPDEST PUSH1 0x40 MLOAD RETURNDATASIZE PUSH0 DUP3 RETURNDATACOPY RETURNDATASIZE SWAP1 REVERT JUMPDEST PUSH1 0x40 MLOAD PUSH3 0x461BCD PUSH1 0xE5 SHL DUP2 MSTORE PUSH1 0x20 PUSH1 0x4 DUP3 ADD MSTORE PUSH1 0x17 PUSH1 0x24 DUP3 ADD MSTORE PUSH32 0x496E73756666696369656E742043545220746F6B656E73000000000000000000 PUSH1 0x44 DUP3 ADD MSTORE PUSH1 0x64 SWAP1 REVERT JUMPDEST SWAP1 POP PUSH1 0x20 DUP2 RETURNDATASIZE PUSH1 0x20 GT PUSH2 0x1200 JUMPI JUMPDEST DUP2 PUSH2 0x11F1 PUSH1 0x20 SWAP4 DUP4 PUSH2 0x16C5 JUMP JUMPDEST DUP2 ADD SUB SLT PUSH2 0xDF JUMPI MLOAD DUP13 PUSH2 0x4BA JUMP JUMPDEST RETURNDATASIZE SWAP2 POP PUSH2 0x11E4 JUMP JUMPDEST CALLVALUE PUSH2 0xDF JUMPI PUSH0 CALLDATASIZE PUSH1 0x3 NOT ADD SLT PUSH2 0xDF JUMPI PUSH1 0x2 SLOAD PUSH1 0x40 MLOAD PUSH1 0x1 PUSH1 0x1 PUSH1 0xA0 SHL SUB SWAP1 SWAP2 AND DUP2 MSTORE PUSH1 0x20 SWAP1 RETURN JUMPDEST CALLVALUE PUSH2 0xDF JUMPI PUSH0 CALLDATASIZE PUSH1 0x3 NOT ADD SLT PUSH2 0xDF JUMPI PUSH2 0x1255 PUSH1 0x1 DUP1 PUSH1 0xA0 SHL SUB PUSH1 0x2 SLOAD AND CALLER EQ PUSH2 0x1842 JUMP JUMPDEST PUSH1 0x3 SLOAD PUSH0 DUP1 JUMPDEST DUP3 DUP2 LT PUSH2 0x1352 JUMPI POP PUSH2 0x126C DUP2 PUSH2 0x1898 JUMP JUMPDEST SWAP1 PUSH2 0x127A PUSH1 0x40 MLOAD SWAP3 DUP4 PUSH2 0x16C5 JUMP JUMPDEST DUP1 DUP3 MSTORE PUSH2 0x1289 PUSH1 0x1F NOT SWAP2 PUSH2 0x1898 JUMP JUMPDEST ADD PUSH0 JUMPDEST DUP2 DUP2 LT PUSH2 0x133B JUMPI POP POP PUSH0 SWAP2 PUSH0 JUMPDEST DUP2 DUP2 LT PUSH2 0x12AE JUMPI PUSH1 0x40 MLOAD DUP1 PUSH2 0xDB DUP6 DUP3 PUSH2 0x164A JUMP JUMPDEST PUSH2 0x12B7 DUP2 PUSH2 0x14E7 JUMP JUMPDEST SWAP1 SLOAD PUSH1 0x3 SWAP2 SWAP1 SWAP2 SHL SHR PUSH1 0x1 PUSH1 0x1 PUSH1 0xA0 SHL SUB AND PUSH0 SWAP1 DUP2 MSTORE PUSH1 0x4 PUSH1 0x20 MSTORE PUSH1 0x40 DUP2 KECCAK256 DUP1 SLOAD JUMPDEST DUP1 DUP4 LT PUSH2 0x12EB JUMPI POP POP POP PUSH1 0x1 ADD PUSH2 0x1299 JUMP JUMPDEST SWAP1 SWAP2 SWAP6 PUSH2 0x12FB PUSH2 0xC1 DUP9 DUP6 PUSH2 0x1751 JUMP JUMPDEST PUSH2 0x1305 DUP3 DUP9 PUSH2 0x191E JUMP JUMPDEST MSTORE PUSH2 0x1310 DUP2 DUP8 PUSH2 0x191E JUMP JUMPDEST POP PUSH0 NOT DUP2 EQ PUSH2 0x1327 JUMPI PUSH1 0x1 DUP1 SWAP2 ADD SWAP7 ADD SWAP2 SWAP1 PUSH2 0x12D9 JUMP JUMPDEST PUSH4 0x4E487B71 PUSH1 0xE0 SHL PUSH0 MSTORE PUSH1 0x11 PUSH1 0x4 MSTORE PUSH1 0x24 PUSH0 REVERT JUMPDEST PUSH1 0x20 SWAP1 PUSH2 0x1346 PUSH2 0x18AF JUMP JUMPDEST DUP3 DUP3 DUP7 ADD ADD MSTORE ADD PUSH2 0x128C JUMP JUMPDEST SWAP1 PUSH2 0x135C DUP3 PUSH2 0x14E7 JUMP JUMPDEST PUSH1 0x1 DUP1 PUSH1 0xA0 SHL SUB SWAP2 SLOAD SWAP1 PUSH1 0x3 SHL SHR AND PUSH0 MSTORE PUSH1 0x4 PUSH1 0x20 MSTORE PUSH1 0x40 PUSH0 KECCAK256 SLOAD DUP2 ADD DUP1 SWAP2 GT PUSH2 0x1327 JUMPI SWAP1 PUSH1 0x1 ADD PUSH2 0x125B JUMP JUMPDEST CALLVALUE PUSH2 0xDF JUMPI PUSH0 CALLDATASIZE PUSH1 0x3 NOT ADD SLT PUSH2 0xDF JUMPI PUSH1 0x20 PUSH1 0x1 SLOAD PUSH1 0x40 MLOAD SWAP1 DUP2 MSTORE RETURN JUMPDEST CALLVALUE PUSH2 0xDF JUMPI PUSH0 CALLDATASIZE PUSH1 0x3 NOT ADD SLT PUSH2 0xDF JUMPI PUSH2 0x13CB PUSH1 0x1 DUP1 PUSH1 0xA0 SHL SUB PUSH1 0x2 SLOAD AND CALLER EQ PUSH2 0x1842 JUMP JUMPDEST PUSH1 0x40 MLOAD DUP1 PUSH1 0x20 PUSH1 0x3 SLOAD SWAP3 DUP4 DUP2 MSTORE ADD DUP1 SWAP3 PUSH1 0x3 PUSH0 MSTORE PUSH32 0xC2575A0E9E593C00F959F8C92F12DB2869C3395A3B0502D05E2516446F71F85B SWAP1 PUSH0 JUMPDEST DUP2 DUP2 LT PUSH2 0x1464 JUMPI POP POP POP DUP2 PUSH2 0x1419 SWAP2 SUB DUP3 PUSH2 0x16C5 JUMP JUMPDEST PUSH1 0x40 MLOAD SWAP2 DUP3 SWAP2 PUSH1 0x20 DUP4 ADD SWAP1 PUSH1 0x20 DUP5 MSTORE MLOAD DUP1 SWAP2 MSTORE PUSH1 0x40 DUP4 ADD SWAP2 SWAP1 PUSH0 JUMPDEST DUP2 DUP2 LT PUSH2 0x1442 JUMPI POP POP POP SUB SWAP1 RETURN JUMPDEST DUP3 MLOAD PUSH1 0x1 PUSH1 0x1 PUSH1 0xA0 SHL SUB AND DUP5 MSTORE DUP6 SWAP5 POP PUSH1 0x20 SWAP4 DUP5 ADD SWAP4 SWAP1 SWAP3 ADD SWAP2 PUSH1 0x1 ADD PUSH2 0x1434 JUMP JUMPDEST DUP3 SLOAD PUSH1 0x1 PUSH1 0x1 PUSH1 0xA0 SHL SUB AND DUP5 MSTORE PUSH1 0x20 SWAP1 SWAP4 ADD SWAP3 PUSH1 0x1 SWAP3 DUP4 ADD SWAP3 ADD PUSH2 0x1403 JUMP JUMPDEST CALLVALUE PUSH2 0xDF JUMPI PUSH1 0x20 CALLDATASIZE PUSH1 0x3 NOT ADD SLT PUSH2 0xDF JUMPI PUSH1 0x4 CALLDATALOAD PUSH1 0x3 SLOAD DUP2 LT ISZERO PUSH2 0xDF JUMPI PUSH2 0x14AC PUSH1 0x20 SWAP2 PUSH2 0x14E7 JUMP JUMPDEST SWAP1 SLOAD PUSH1 0x40 MLOAD PUSH1 0x3 SWAP3 SWAP1 SWAP3 SHL SHR PUSH1 0x1 PUSH1 0x1 PUSH1 0xA0 SHL SUB AND DUP2 MSTORE RETURN JUMPDEST CALLVALUE PUSH2 0xDF JUMPI PUSH0 CALLDATASIZE PUSH1 0x3 NOT ADD SLT PUSH2 0xDF JUMPI PUSH0 SLOAD PUSH1 0x1 PUSH1 0x1 PUSH1 0xA0 SHL SUB AND DUP2 MSTORE PUSH1 0x20 SWAP1 RETURN JUMPDEST PUSH1 0x3 SLOAD DUP2 LT ISZERO PUSH2 0x14FF JUMPI PUSH1 0x3 PUSH0 MSTORE PUSH1 0x20 PUSH0 KECCAK256 ADD SWAP1 PUSH0 SWAP1 JUMP JUMPDEST PUSH4 0x4E487B71 PUSH1 0xE0 SHL PUSH0 MSTORE PUSH1 0x32 PUSH1 0x4 MSTORE PUSH1 0x24 PUSH0 REVERT JUMPDEST DUP1 MLOAD DUP1 DUP4 MSTORE PUSH1 0x20 SWAP3 SWAP2 DUP2 SWAP1 DUP5 ADD DUP5 DUP5 ADD MCOPY PUSH0 DUP3 DUP3 ADD DUP5 ADD MSTORE PUSH1 0x1F ADD PUSH1 0x1F NOT AND ADD ADD SWAP1 JUMP JUMPDEST SWAP1 PUSH2 0x1A0 DUP1 PUSH2 0x1641 PUSH2 0x162D PUSH2 0x1619 PUSH2 0x1605 PUSH2 0x15F1 PUSH2 0x15DD PUSH2 0x15CB PUSH2 0x15B9 PUSH2 0x159C DUP12 PUSH1 0x60 DUP15 PUSH1 0x1 DUP1 PUSH1 0xA0 SHL SUB DUP2 MLOAD AND DUP4 MSTORE PUSH2 0x1582 PUSH1 0x20 DUP3 ADD MLOAD PUSH2 0x1C0 PUSH1 0x20 DUP7 ADD MSTORE PUSH2 0x1C0 DUP6 ADD SWAP1 PUSH2 0x1513 JUMP JUMPDEST SWAP3 PUSH1 0x40 DUP1 DUP4 ADD MLOAD SWAP2 ADD MSTORE ADD MLOAD DUP14 PUSH1 0x60 DUP2 DUP5 SUB SWAP2 ADD MSTORE PUSH2 0x1513 JUMP JUMPDEST PUSH1 0x80 DUP14 ADD MLOAD PUSH1 0x80 DUP14 ADD MSTORE PUSH1 0xA0 DUP14 ADD MLOAD DUP13 PUSH1 0xA0 DUP2 DUP5 SUB SWAP2 ADD MSTORE PUSH2 0x1513 JUMP JUMPDEST PUSH1 0xC0 DUP13 ADD MLOAD DUP12 DUP3 SUB PUSH1 0xC0 DUP14 ADD MSTORE PUSH2 0x1513 JUMP JUMPDEST PUSH1 0xE0 DUP12 ADD MLOAD DUP11 DUP3 SUB PUSH1 0xE0 DUP13 ADD MSTORE PUSH2 0x1513 JUMP JUMPDEST PUSH2 0x100 DUP11 ADD MLOAD DUP10 DUP3 SUB PUSH2 0x100 DUP12 ADD MSTORE PUSH2 0x1513 JUMP JUMPDEST PUSH2 0x120 DUP10 ADD MLOAD DUP9 DUP3 SUB PUSH2 0x120 DUP11 ADD MSTORE PUSH2 0x1513 JUMP JUMPDEST PUSH2 0x140 DUP9 ADD MLOAD DUP8 DUP3 SUB PUSH2 0x140 DUP10 ADD MSTORE PUSH2 0x1513 JUMP JUMPDEST PUSH2 0x160 DUP8 ADD MLOAD DUP7 DUP3 SUB PUSH2 0x160 DUP9 ADD MSTORE PUSH2 0x1513 JUMP JUMPDEST PUSH2 0x180 DUP7 ADD MLOAD DUP6 DUP3 SUB PUSH2 0x180 DUP8 ADD MSTORE PUSH2 0x1513 JUMP JUMPDEST SWAP4 ADD MLOAD SWAP2 ADD MSTORE SWAP1 JUMP JUMPDEST PUSH1 0x20 DUP2 ADD PUSH1 0x20 DUP3 MSTORE DUP3 MLOAD DUP1 SWAP2 MSTORE PUSH1 0x40 DUP3 ADD SWAP2 PUSH1 0x20 PUSH1 0x40 DUP4 PUSH1 0x5 SHL DUP4 ADD ADD SWAP5 ADD SWAP3 PUSH0 SWAP2 JUMPDEST DUP4 DUP4 LT PUSH2 0x167C JUMPI POP POP POP POP POP SWAP1 JUMP JUMPDEST SWAP1 SWAP2 SWAP3 SWAP4 SWAP5 PUSH1 0x20 DUP1 PUSH2 0x169A PUSH1 0x1 SWAP4 PUSH1 0x3F NOT DUP7 DUP3 SUB ADD DUP8 MSTORE DUP10 MLOAD PUSH2 0x1537 JUMP JUMPDEST SWAP8 ADD SWAP4 ADD SWAP4 ADD SWAP2 SWAP4 SWAP3 SWAP1 PUSH2 0x166D JUMP JUMPDEST PUSH2 0x1C0 DUP2 ADD SWAP1 DUP2 LT PUSH1 0x1 PUSH1 0x1 PUSH1 0x40 SHL SUB DUP3 GT OR PUSH2 0x9F9 JUMPI PUSH1 0x40 MSTORE JUMP JUMPDEST SWAP1 PUSH1 0x1F DUP1 NOT SWAP2 ADD AND DUP2 ADD SWAP1 DUP2 LT PUSH1 0x1 PUSH1 0x1 PUSH1 0x40 SHL SUB DUP3 GT OR PUSH2 0x9F9 JUMPI PUSH1 0x40 MSTORE JUMP JUMPDEST DUP2 PUSH1 0x1F DUP3 ADD SLT ISZERO PUSH2 0xDF JUMPI DUP1 CALLDATALOAD SWAP1 PUSH1 0x1 PUSH1 0x1 PUSH1 0x40 SHL SUB DUP3 GT PUSH2 0x9F9 JUMPI PUSH1 0x40 MLOAD SWAP3 PUSH2 0x171A PUSH1 0x1F DUP5 ADD PUSH1 0x1F NOT AND PUSH1 0x20 ADD DUP6 PUSH2 0x16C5 JUMP JUMPDEST DUP3 DUP5 MSTORE PUSH1 0x20 DUP4 DUP4 ADD ADD GT PUSH2 0xDF JUMPI DUP2 PUSH0 SWAP3 PUSH1 0x20 DUP1 SWAP4 ADD DUP4 DUP7 ADD CALLDATACOPY DUP4 ADD ADD MSTORE SWAP1 JUMP JUMPDEST PUSH1 0x4 CALLDATALOAD SWAP1 PUSH1 0x1 PUSH1 0x1 PUSH1 0xA0 SHL SUB DUP3 AND DUP3 SUB PUSH2 0xDF JUMPI JUMP JUMPDEST DUP1 SLOAD DUP3 LT ISZERO PUSH2 0x14FF JUMPI PUSH0 MSTORE PUSH1 0xE PUSH1 0x20 PUSH0 KECCAK256 SWAP2 MUL ADD SWAP1 PUSH0 SWAP1 JUMP JUMPDEST SWAP1 PUSH1 0x1 DUP3 DUP2 SHR SWAP3 AND DUP1 ISZERO PUSH2 0x1798 JUMPI JUMPDEST PUSH1 0x20 DUP4 LT EQ PUSH2 0x1784 JUMPI JUMP JUMPDEST PUSH4 0x4E487B71 PUSH1 0xE0 SHL PUSH0 MSTORE PUSH1 0x22 PUSH1 0x4 MSTORE PUSH1 0x24 PUSH0 REVERT JUMPDEST SWAP2 PUSH1 0x7F AND SWAP2 PUSH2 0x1779 JUMP JUMPDEST SWAP1 PUSH1 0x40 MLOAD SWAP2 DUP3 PUSH0 DUP3 SLOAD SWAP3 PUSH2 0x17B5 DUP5 PUSH2 0x176A JUMP JUMPDEST DUP1 DUP5 MSTORE SWAP4 PUSH1 0x1 DUP2 AND SWAP1 DUP2 ISZERO PUSH2 0x1820 JUMPI POP PUSH1 0x1 EQ PUSH2 0x17DC JUMPI JUMPDEST POP PUSH2 0x17DA SWAP3 POP SUB DUP4 PUSH2 0x16C5 JUMP JUMPDEST JUMP JUMPDEST SWAP1 POP PUSH0 SWAP3 SWAP2 SWAP3 MSTORE PUSH1 0x20 PUSH0 KECCAK256 SWAP1 PUSH0 SWAP2 JUMPDEST DUP2 DUP4 LT PUSH2 0x1804 JUMPI POP POP SWAP1 PUSH1 0x20 PUSH2 0x17DA SWAP3 DUP3 ADD ADD PUSH0 PUSH2 0x17CD JUMP JUMPDEST PUSH1 0x20 SWAP2 SWAP4 POP DUP1 PUSH1 0x1 SWAP2 SLOAD DUP4 DUP6 DUP10 ADD ADD MSTORE ADD SWAP2 ADD SWAP1 SWAP2 DUP5 SWAP3 PUSH2 0x17EB JUMP JUMPDEST SWAP1 POP PUSH1 0x20 SWAP3 POP PUSH2 0x17DA SWAP5 SWAP2 POP PUSH1 0xFF NOT AND DUP3 DUP5 ADD MSTORE ISZERO ISZERO PUSH1 0x5 SHL DUP3 ADD ADD PUSH0 PUSH2 0x17CD JUMP JUMPDEST ISZERO PUSH2 0x1849 JUMPI JUMP JUMPDEST PUSH1 0x40 MLOAD PUSH3 0x461BCD PUSH1 0xE5 SHL DUP2 MSTORE PUSH1 0x20 PUSH1 0x4 DUP3 ADD MSTORE PUSH1 0x21 PUSH1 0x24 DUP3 ADD MSTORE PUSH32 0x4F6E6C79206F776E65722063616E2063616C6C20746869732066756E6374696F PUSH1 0x44 DUP3 ADD MSTORE PUSH1 0x37 PUSH1 0xF9 SHL PUSH1 0x64 DUP3 ADD MSTORE PUSH1 0x84 SWAP1 REVERT JUMPDEST PUSH1 0x1 PUSH1 0x1 PUSH1 0x40 SHL SUB DUP2 GT PUSH2 0x9F9 JUMPI PUSH1 0x5 SHL PUSH1 0x20 ADD SWAP1 JUMP JUMPDEST PUSH1 0x40 MLOAD SWAP1 PUSH2 0x18BC DUP3 PUSH2 0x16A9 JUMP JUMPDEST PUSH0 PUSH2 0x1A0 DUP4 DUP3 DUP2 MSTORE PUSH1 0x60 PUSH1 0x20 DUP3 ADD MSTORE DUP3 PUSH1 0x40 DUP3 ADD MSTORE PUSH1 0x60 DUP1 DUP3 ADD MSTORE DUP3 PUSH1 0x80 DUP3 ADD MSTORE PUSH1 0x60 PUSH1 0xA0 DUP3 ADD MSTORE PUSH1 0x60 PUSH1 0xC0 DUP3 ADD MSTORE PUSH1 0x60 PUSH1 0xE0 DUP3 ADD MSTORE PUSH1 0x60 PUSH2 0x100 DUP3 ADD MSTORE PUSH1 0x60 PUSH2 0x120 DUP3 ADD MSTORE PUSH1 0x60 PUSH2 0x140 DUP3 ADD MSTORE PUSH1 0x60 PUSH2 0x160 DUP3 ADD MSTORE PUSH1 0x60 PUSH2 0x180 DUP3 ADD MSTORE ADD MSTORE JUMP JUMPDEST DUP1 MLOAD DUP3 LT ISZERO PUSH2 0x14FF JUMPI PUSH1 0x20 SWAP2 PUSH1 0x5 SHL ADD ADD SWAP1 JUMP JUMPDEST SWAP1 PUSH1 0x40 MLOAD PUSH2 0x193F DUP2 PUSH2 0x16A9 JUMP JUMPDEST DUP3 SLOAD PUSH1 0x1 PUSH1 0x1 PUSH1 0xA0 SHL SUB AND DUP2 MSTORE SWAP2 DUP3 SWAP1 PUSH2 0x1A0 SWAP1 PUSH1 0xD SWAP1 PUSH2 0x1962 PUSH1 0x1 DUP3 ADD PUSH2 0x17A2 JUMP JUMPDEST PUSH1 0x20 DUP6 ADD MSTORE PUSH1 0x2 DUP2 ADD SLOAD PUSH1 0x40 DUP6 ADD MSTORE PUSH2 0x197D PUSH1 0x3 DUP3 ADD PUSH2 0x17A2 JUMP JUMPDEST PUSH1 0x60 DUP6 ADD MSTORE PUSH1 0x4 DUP2 ADD SLOAD PUSH1 0x80 DUP6 ADD MSTORE PUSH2 0x1998 PUSH1 0x5 DUP3 ADD PUSH2 0x17A2 JUMP JUMPDEST PUSH1 0xA0 DUP6 ADD MSTORE PUSH2 0x19A9 PUSH1 0x6 DUP3 ADD PUSH2 0x17A2 JUMP JUMPDEST PUSH1 0xC0 DUP6 ADD MSTORE PUSH2 0x19BA PUSH1 0x7 DUP3 ADD PUSH2 0x17A2 JUMP JUMPDEST PUSH1 0xE0 DUP6 ADD MSTORE PUSH2 0x19CB PUSH1 0x8 DUP3 ADD PUSH2 0x17A2 JUMP JUMPDEST PUSH2 0x100 DUP6 ADD MSTORE PUSH2 0x19DD PUSH1 0x9 DUP3 ADD PUSH2 0x17A2 JUMP JUMPDEST PUSH2 0x120 DUP6 ADD MSTORE PUSH2 0x19EF PUSH1 0xA DUP3 ADD PUSH2 0x17A2 JUMP JUMPDEST PUSH2 0x140 DUP6 ADD MSTORE PUSH2 0x1A01 PUSH1 0xB DUP3 ADD PUSH2 0x17A2 JUMP JUMPDEST PUSH2 0x160 DUP6 ADD MSTORE PUSH2 0x1A13 PUSH1 0xC DUP3 ADD PUSH2 0x17A2 JUMP JUMPDEST PUSH2 0x180 DUP6 ADD MSTORE ADD SLOAD SWAP2 ADD MSTORE JUMP INVALID LOG2 PUSH5 0x6970667358 0x22 SLT KECCAK256 ADDMOD 0xD0 GT PUSH26 0xE06C6FD55C5D2EA7564DF9386C5B62C7960A6074BB1FF0FE1B34 XOR SWAP3 PUSH5 0x736F6C6343 STOP ADDMOD BYTE STOP CALLER "
				},
				"gasEstimates": {
					"creation": {
						"codeDepositCost": "1348400",
						"executionCost": "infinite",
						"totalCost": "infinite"
					},
					"external": {
						"SetfoToken()": "2265",
						"filers(uint256)": "6655",
						"filingFee()": "2322",
						"filings(address,uint256)": "infinite",
						"getAllFilers()": "infinite",
						"getAllFilings()": "infinite",
						"getFiling(uint256)": "infinite",
						"getFilingByOwner(address)": "infinite",
						"owner()": "2390",
						"submitFilingInfo(string,uint256,string,uint256,string,string,string,string,string,string,string,string)": "infinite"
					}
				},
				"methodIdentifiers": {
					"SetfoToken()": "307d9826",
					"filers(uint256)": "43449476",
					"filingFee()": "73169cf8",
					"filings(address,uint256)": "e60f117f",
					"getAllFilers()": "4434dabb",
					"getAllFilings()": "73ba1217",
					"getFiling(uint256)": "eb1c1412",
					"getFilingByOwner(address)": "e2ec869c",
					"owner()": "8da5cb5b",
					"submitFilingInfo(string,uint256,string,uint256,string,string,string,string,string,string,string,string)": "af600d3e"
				}
			},
			"storageLayout": {
				"storage": [
					{
						"astId": 23,
						"contract": "contracts/1.Filing.sol:Filling",
						"label": "SetfoToken",
						"offset": 0,
						"slot": "0",
						"type": "t_contract(IERC20)20"
					},
					{
						"astId": 30,
						"contract": "contracts/1.Filing.sol:Filling",
						"label": "filingFee",
						"offset": 0,
						"slot": "1",
						"type": "t_uint256"
					},
					{
						"astId": 32,
						"contract": "contracts/1.Filing.sol:Filling",
						"label": "owner",
						"offset": 0,
						"slot": "2",
						"type": "t_address"
					},
					{
						"astId": 35,
						"contract": "contracts/1.Filing.sol:Filling",
						"label": "filers",
						"offset": 0,
						"slot": "3",
						"type": "t_array(t_address)dyn_storage"
					},
					{
						"astId": 87,
						"contract": "contracts/1.Filing.sol:Filling",
						"label": "filings",
						"offset": 0,
						"slot": "4",
						"type": "t_mapping(t_address,t_array(t_struct(FilingInfo)64_storage)dyn_storage)"
					}
				],
				"types": {
					"t_address": {
						"encoding": "inplace",
						"label": "address",
						"numberOfBytes": "20"
					},
					"t_array(t_address)dyn_storage": {
						"base": "t_address",
						"encoding": "dynamic_array",
						"label": "address[]",
						"numberOfBytes": "32"
					},
					"t_array(t_struct(FilingInfo)64_storage)dyn_storage": {
						"base": "t_struct(FilingInfo)64_storage",
						"encoding": "dynamic_array",
						"label": "struct Filling.FilingInfo[]",
						"numberOfBytes": "32"
					},
					"t_contract(IERC20)20": {
						"encoding": "inplace",
						"label": "contract IERC20",
						"numberOfBytes": "20"
					},
					"t_mapping(t_address,t_array(t_struct(FilingInfo)64_storage)dyn_storage)": {
						"encoding": "mapping",
						"key": "t_address",
						"label": "mapping(address => struct Filling.FilingInfo[])",
						"numberOfBytes": "32",
						"value": "t_array(t_struct(FilingInfo)64_storage)dyn_storage"
					},
					"t_string_storage": {
						"encoding": "bytes",
						"label": "string",
						"numberOfBytes": "32"
					},
					"t_struct(FilingInfo)64_storage": {
						"encoding": "inplace",
						"label": "struct Filling.FilingInfo",
						"members": [
							{
								"astId": 37,
								"contract": "contracts/1.Filing.sol:Filling",
								"label": "filingOwner",
								"offset": 0,
								"slot": "0",
								"type": "t_address"
							},
							{
								"astId": 39,
								"contract": "contracts/1.Filing.sol:Filling",
								"label": "securedInterestType",
								"offset": 0,
								"slot": "1",
								"type": "t_string_storage"
							},
							{
								"astId": 41,
								"contract": "contracts/1.Filing.sol:Filling",
								"label": "partySize",
								"offset": 0,
								"slot": "2",
								"type": "t_uint256"
							},
							{
								"astId": 43,
								"contract": "contracts/1.Filing.sol:Filling",
								"label": "contractNumber",
								"offset": 0,
								"slot": "3",
								"type": "t_string_storage"
							},
							{
								"astId": 45,
								"contract": "contracts/1.Filing.sol:Filling",
								"label": "valueOfLoan",
								"offset": 0,
								"slot": "4",
								"type": "t_uint256"
							},
							{
								"astId": 47,
								"contract": "contracts/1.Filing.sol:Filling",
								"label": "securingPartyType",
								"offset": 0,
								"slot": "5",
								"type": "t_string_storage"
							},
							{
								"astId": 49,
								"contract": "contracts/1.Filing.sol:Filling",
								"label": "securingPartyFullname",
								"offset": 0,
								"slot": "6",
								"type": "t_string_storage"
							},
							{
								"astId": 51,
								"contract": "contracts/1.Filing.sol:Filling",
								"label": "securingPartyNationalID",
								"offset": 0,
								"slot": "7",
								"type": "t_string_storage"
							},
							{
								"astId": 53,
								"contract": "contracts/1.Filing.sol:Filling",
								"label": "securedPartyName",
								"offset": 0,
								"slot": "8",
								"type": "t_string_storage"
							},
							{
								"astId": 55,
								"contract": "contracts/1.Filing.sol:Filling",
								"label": "securedPartyAddress",
								"offset": 0,
								"slot": "9",
								"type": "t_string_storage"
							},
							{
								"astId": 57,
								"contract": "contracts/1.Filing.sol:Filling",
								"label": "securedPartyCountry",
								"offset": 0,
								"slot": "10",
								"type": "t_string_storage"
							},
							{
								"astId": 59,
								"contract": "contracts/1.Filing.sol:Filling",
								"label": "collateralCategory",
								"offset": 0,
								"slot": "11",
								"type": "t_string_storage"
							},
							{
								"astId": 61,
								"contract": "contracts/1.Filing.sol:Filling",
								"label": "collateralDescription",
								"offset": 0,
								"slot": "12",
								"type": "t_string_storage"
							},
							{
								"astId": 63,
								"contract": "contracts/1.Filing.sol:Filling",
								"label": "timestamp",
								"offset": 0,
								"slot": "13",
								"type": "t_uint256"
							}
						],
						"numberOfBytes": "448"
					},
					"t_uint256": {
						"encoding": "inplace",
						"label": "uint256",
						"numberOfBytes": "32"
					}
				}
			},
			"userdoc": {
				"kind": "user",
				"methods": {},
				"version": 1
			}
		}
	}
}