{
	"contracts/1.Filling.sol": {
		"Filling": {
			"abi": [
				{
					"inputs": [],
					"name": "filingFee",
					"outputs": [
						{
							"internalType": "uint256",
							"name": "",
							"type": "uint256"
						}
					],
					"stateMutability": "view",
					"type": "function"
				},
				{
					"inputs": [
						{
							"internalType": "address",
							"name": "",
							"type": "address"
						},
						{
							"internalType": "uint256",
							"name": "",
							"type": "uint256"
						}
					],
					"name": "filings",
					"outputs": [
						{
							"internalType": "string",
							"name": "securedInterestType",
							"type": "string"
						},
						{
							"internalType": "uint256",
							"name": "partySize",
							"type": "uint256"
						},
						{
							"internalType": "string",
							"name": "contractNumber",
							"type": "string"
						},
						{
							"internalType": "uint256",
							"name": "valueOfLoan",
							"type": "uint256"
						},
						{
							"internalType": "string",
							"name": "securingPartyType",
							"type": "string"
						},
						{
							"internalType": "string",
							"name": "securingPartyFullname",
							"type": "string"
						},
						{
							"internalType": "string",
							"name": "securingPartyNationalID",
							"type": "string"
						},
						{
							"internalType": "string",
							"name": "securedPartyName",
							"type": "string"
						},
						{
							"internalType": "string",
							"name": "securedPartyAddress",
							"type": "string"
						},
						{
							"internalType": "string",
							"name": "securedPartyCountry",
							"type": "string"
						},
						{
							"internalType": "string",
							"name": "collateralCategory",
							"type": "string"
						},
						{
							"internalType": "string",
							"name": "collateralDescription",
							"type": "string"
						}
					],
					"stateMutability": "view",
					"type": "function"
				},
				{
					"inputs": [],
					"name": "owner",
					"outputs": [
						{
							"internalType": "address",
							"name": "",
							"type": "address"
						}
					],
					"stateMutability": "view",
					"type": "function"
				},
				{
					"inputs": [
						{
							"components": [
								{
									"internalType": "string",
									"name": "securedInterestType",
									"type": "string"
								},
								{
									"internalType": "uint256",
									"name": "partySize",
									"type": "uint256"
								},
								{
									"internalType": "string",
									"name": "contractNumber",
									"type": "string"
								},
								{
									"internalType": "uint256",
									"name": "valueOfLoan",
									"type": "uint256"
								},
								{
									"internalType": "string",
									"name": "securingPartyType",
									"type": "string"
								},
								{
									"internalType": "string",
									"name": "securingPartyFullname",
									"type": "string"
								},
								{
									"internalType": "string",
									"name": "securingPartyNationalID",
									"type": "string"
								},
								{
									"internalType": "string",
									"name": "securedPartyName",
									"type": "string"
								},
								{
									"internalType": "string",
									"name": "securedPartyAddress",
									"type": "string"
								},
								{
									"internalType": "string",
									"name": "securedPartyCountry",
									"type": "string"
								},
								{
									"internalType": "string",
									"name": "collateralCategory",
									"type": "string"
								},
								{
									"internalType": "string",
									"name": "collateralDescription",
									"type": "string"
								}
							],
							"internalType": "struct Filling.FilingInfo",
							"name": "data",
							"type": "tuple"
						}
					],
					"name": "submitFilingInfo",
					"outputs": [],
					"stateMutability": "payable",
					"type": "function"
				},
				{
					"inputs": [],
					"name": "transactionCounter",
					"outputs": [
						{
							"internalType": "uint256",
							"name": "",
							"type": "uint256"
						}
					],
					"stateMutability": "view",
					"type": "function"
				}
			],
			"devdoc": {
				"kind": "dev",
				"methods": {},
				"version": 1
			},
			"evm": {
				"assembly": "    /* \"contracts/1.Filling.sol\":61:1588  contract Filling{... */\n  mstore(0x40, 0x80)\n    /* \"contracts/1.Filling.sol\":113:122  100 ether */\n  0x056bc75e2d63100000\n    /* \"contracts/1.Filling.sol\":86:122  uint256 public filingFee = 100 ether */\n  0x00\n  sstore\n    /* \"contracts/1.Filling.sol\":165:166  0 */\n  0x00\n    /* \"contracts/1.Filling.sol\":129:166  uint256 public transactionCounter = 0 */\n  0x01\n  sstore\n    /* \"contracts/1.Filling.sol\":61:1588  contract Filling{... */\n  callvalue\n  dup1\n  iszero\n  tag_1\n  jumpi\n  0x00\n  dup1\n  revert\ntag_1:\n  pop\n  dataSize(sub_0)\n  dup1\n  dataOffset(sub_0)\n  0x00\n  codecopy\n  0x00\n  return\nstop\n\nsub_0: assembly {\n        /* \"contracts/1.Filling.sol\":61:1588  contract Filling{... */\n      mstore(0x40, 0x80)\n      jumpi(tag_1, lt(calldatasize, 0x04))\n      shr(0xe0, calldataload(0x00))\n      dup1\n      0x14e887e8\n      eq\n      tag_2\n      jumpi\n      dup1\n      0x1b5ddd4f\n      eq\n      tag_3\n      jumpi\n      dup1\n      0x73169cf8\n      eq\n      tag_4\n      jumpi\n      dup1\n      0x8da5cb5b\n      eq\n      tag_5\n      jumpi\n      dup1\n      0xe60f117f\n      eq\n      tag_6\n      jumpi\n    tag_1:\n      0x00\n      dup1\n      revert\n        /* \"contracts/1.Filling.sol\":129:166  uint256 public transactionCounter = 0 */\n    tag_2:\n      callvalue\n      dup1\n      iszero\n      tag_7\n      jumpi\n      0x00\n      dup1\n      revert\n    tag_7:\n      pop\n      tag_8\n      tag_9\n      jump\t// in\n    tag_8:\n      mload(0x40)\n      tag_10\n      swap2\n      swap1\n      tag_11\n      jump\t// in\n    tag_10:\n      mload(0x40)\n      dup1\n      swap2\n      sub\n      swap1\n      return\n        /* \"contracts/1.Filling.sol\":716:1583  function submitFilingInfo(FilingInfo memory data) public payable {... */\n    tag_3:\n      tag_12\n      0x04\n      dup1\n      calldatasize\n      sub\n      dup2\n      add\n      swap1\n      tag_13\n      swap2\n      swap1\n      tag_14\n      jump\t// in\n    tag_13:\n      tag_15\n      jump\t// in\n    tag_12:\n      stop\n        /* \"contracts/1.Filling.sol\":86:122  uint256 public filingFee = 100 ether */\n    tag_4:\n      callvalue\n      dup1\n      iszero\n      tag_16\n      jumpi\n      0x00\n      dup1\n      revert\n    tag_16:\n      pop\n      tag_17\n      tag_18\n      jump\t// in\n    tag_17:\n      mload(0x40)\n      tag_19\n      swap2\n      swap1\n      tag_11\n      jump\t// in\n    tag_19:\n      mload(0x40)\n      dup1\n      swap2\n      sub\n      swap1\n      return\n        /* \"contracts/1.Filling.sol\":173:193  address public owner */\n    tag_5:\n      callvalue\n      dup1\n      iszero\n      tag_20\n      jumpi\n      0x00\n      dup1\n      revert\n    tag_20:\n      pop\n      tag_21\n      tag_22\n      jump\t// in\n    tag_21:\n      mload(0x40)\n      tag_23\n      swap2\n      swap1\n      tag_24\n      jump\t// in\n    tag_23:\n      mload(0x40)\n      dup1\n      swap2\n      sub\n      swap1\n      return\n        /* \"contracts/1.Filling.sol\":660:707  mapping(address => FilingInfo[]) public filings */\n    tag_6:\n      callvalue\n      dup1\n      iszero\n      tag_25\n      jumpi\n      0x00\n      dup1\n      revert\n    tag_25:\n      pop\n      tag_26\n      0x04\n      dup1\n      calldatasize\n      sub\n      dup2\n      add\n      swap1\n      tag_27\n      swap2\n      swap1\n      tag_28\n      jump\t// in\n    tag_27:\n      tag_29\n      jump\t// in\n    tag_26:\n      mload(0x40)\n      tag_30\n      swap13\n      swap12\n      swap11\n      swap10\n      swap9\n      swap8\n      swap7\n      swap6\n      swap5\n      swap4\n      swap3\n      swap2\n      swap1\n      tag_31\n      jump\t// in\n    tag_30:\n      mload(0x40)\n      dup1\n      swap2\n      sub\n      swap1\n      return\n        /* \"contracts/1.Filling.sol\":129:166  uint256 public transactionCounter = 0 */\n    tag_9:\n      sload(0x01)\n      dup2\n      jump\t// out\n        /* \"contracts/1.Filling.sol\":716:1583  function submitFilingInfo(FilingInfo memory data) public payable {... */\n    tag_15:\n        /* \"contracts/1.Filling.sol\":794:821  FilingInfo memory newFiling */\n      0x00\n        /* \"contracts/1.Filling.sol\":824:1525  FilingInfo({... */\n      mload(0x40)\n      dup1\n      0x0180\n      add\n      0x40\n      mstore\n      dup1\n        /* \"contracts/1.Filling.sol\":871:875  data */\n      dup4\n        /* \"contracts/1.Filling.sol\":871:895  data.securedInterestType */\n      0x00\n      add\n      mload\n        /* \"contracts/1.Filling.sol\":824:1525  FilingInfo({... */\n      dup2\n      mstore\n      0x20\n      add\n        /* \"contracts/1.Filling.sol\":921:925  data */\n      dup4\n        /* \"contracts/1.Filling.sol\":921:935  data.partySize */\n      0x20\n      add\n      mload\n        /* \"contracts/1.Filling.sol\":824:1525  FilingInfo({... */\n      dup2\n      mstore\n      0x20\n      add\n        /* \"contracts/1.Filling.sol\":966:970  data */\n      dup4\n        /* \"contracts/1.Filling.sol\":966:985  data.contractNumber */\n      0x40\n      add\n      mload\n        /* \"contracts/1.Filling.sol\":824:1525  FilingInfo({... */\n      dup2\n      mstore\n      0x20\n      add\n        /* \"contracts/1.Filling.sol\":1013:1017  data */\n      dup4\n        /* \"contracts/1.Filling.sol\":1013:1029  data.valueOfLoan */\n      0x60\n      add\n      mload\n        /* \"contracts/1.Filling.sol\":824:1525  FilingInfo({... */\n      dup2\n      mstore\n      0x20\n      add\n        /* \"contracts/1.Filling.sol\":1063:1067  data */\n      dup4\n        /* \"contracts/1.Filling.sol\":1063:1085  data.securingPartyType */\n      0x80\n      add\n      mload\n        /* \"contracts/1.Filling.sol\":824:1525  FilingInfo({... */\n      dup2\n      mstore\n      0x20\n      add\n        /* \"contracts/1.Filling.sol\":1123:1127  data */\n      dup4\n        /* \"contracts/1.Filling.sol\":1123:1149  data.securingPartyFullname */\n      0xa0\n      add\n      mload\n        /* \"contracts/1.Filling.sol\":824:1525  FilingInfo({... */\n      dup2\n      mstore\n      0x20\n      add\n        /* \"contracts/1.Filling.sol\":1189:1193  data */\n      dup4\n        /* \"contracts/1.Filling.sol\":1189:1217  data.securingPartyNationalID */\n      0xc0\n      add\n      mload\n        /* \"contracts/1.Filling.sol\":824:1525  FilingInfo({... */\n      dup2\n      mstore\n      0x20\n      add\n        /* \"contracts/1.Filling.sol\":1250:1254  data */\n      dup4\n        /* \"contracts/1.Filling.sol\":1250:1271  data.securedPartyName */\n      0xe0\n      add\n      mload\n        /* \"contracts/1.Filling.sol\":824:1525  FilingInfo({... */\n      dup2\n      mstore\n      0x20\n      add\n        /* \"contracts/1.Filling.sol\":1307:1311  data */\n      dup4\n        /* \"contracts/1.Filling.sol\":1307:1331  data.securedPartyAddress */\n      0x0100\n      add\n      mload\n        /* \"contracts/1.Filling.sol\":824:1525  FilingInfo({... */\n      dup2\n      mstore\n      0x20\n      add\n        /* \"contracts/1.Filling.sol\":1367:1371  data */\n      dup4\n        /* \"contracts/1.Filling.sol\":1367:1391  data.securedPartyCountry */\n      0x0120\n      add\n      mload\n        /* \"contracts/1.Filling.sol\":824:1525  FilingInfo({... */\n      dup2\n      mstore\n      0x20\n      add\n        /* \"contracts/1.Filling.sol\":1426:1430  data */\n      dup4\n        /* \"contracts/1.Filling.sol\":1426:1449  data.collateralCategory */\n      0x0140\n      add\n      mload\n        /* \"contracts/1.Filling.sol\":824:1525  FilingInfo({... */\n      dup2\n      mstore\n      0x20\n      add\n        /* \"contracts/1.Filling.sol\":1487:1491  data */\n      dup4\n        /* \"contracts/1.Filling.sol\":1487:1513  data.collateralDescription */\n      0x0160\n      add\n      mload\n        /* \"contracts/1.Filling.sol\":824:1525  FilingInfo({... */\n      dup2\n      mstore\n      pop\n        /* \"contracts/1.Filling.sol\":794:1525  FilingInfo memory newFiling = FilingInfo({... */\n      swap1\n      pop\n        /* \"contracts/1.Filling.sol\":1540:1547  filings */\n      0x03\n        /* \"contracts/1.Filling.sol\":1540:1559  filings[msg.sender] */\n      0x00\n        /* \"contracts/1.Filling.sol\":1548:1558  msg.sender */\n      caller\n        /* \"contracts/1.Filling.sol\":1540:1559  filings[msg.sender] */\n      0xffffffffffffffffffffffffffffffffffffffff\n      and\n      0xffffffffffffffffffffffffffffffffffffffff\n      and\n      dup2\n      mstore\n      0x20\n      add\n      swap1\n      dup2\n      mstore\n      0x20\n      add\n      0x00\n      keccak256\n        /* \"contracts/1.Filling.sol\":1565:1574  newFiling */\n      dup2\n        /* \"contracts/1.Filling.sol\":1540:1575  filings[msg.sender].push(newFiling) */\n      swap1\n      dup1\n      0x01\n      dup2\n      sload\n      add\n      dup1\n      dup3\n      sstore\n      dup1\n      swap2\n      pop\n      pop\n      0x01\n      swap1\n      sub\n      swap1\n      0x00\n      mstore\n      keccak256(0x00, 0x20)\n      swap1\n      0x0c\n      mul\n      add\n      0x00\n      swap1\n      swap2\n      swap1\n      swap2\n      swap1\n      swap2\n      pop\n      0x00\n      dup3\n      add\n      mload\n      dup2\n      0x00\n      add\n      swap1\n      dup2\n      tag_34\n      swap2\n      swap1\n      tag_35\n      jump\t// in\n    tag_34:\n      pop\n      0x20\n      dup3\n      add\n      mload\n      dup2\n      0x01\n      add\n      sstore\n      0x40\n      dup3\n      add\n      mload\n      dup2\n      0x02\n      add\n      swap1\n      dup2\n      tag_36\n      swap2\n      swap1\n      tag_35\n      jump\t// in\n    tag_36:\n      pop\n      0x60\n      dup3\n      add\n      mload\n      dup2\n      0x03\n      add\n      sstore\n      0x80\n      dup3\n      add\n      mload\n      dup2\n      0x04\n      add\n      swap1\n      dup2\n      tag_37\n      swap2\n      swap1\n      tag_35\n      jump\t// in\n    tag_37:\n      pop\n      0xa0\n      dup3\n      add\n      mload\n      dup2\n      0x05\n      add\n      swap1\n      dup2\n      tag_38\n      swap2\n      swap1\n      tag_35\n      jump\t// in\n    tag_38:\n      pop\n      0xc0\n      dup3\n      add\n      mload\n      dup2\n      0x06\n      add\n      swap1\n      dup2\n      tag_39\n      swap2\n      swap1\n      tag_35\n      jump\t// in\n    tag_39:\n      pop\n      0xe0\n      dup3\n      add\n      mload\n      dup2\n      0x07\n      add\n      swap1\n      dup2\n      tag_40\n      swap2\n      swap1\n      tag_35\n      jump\t// in\n    tag_40:\n      pop\n      0x0100\n      dup3\n      add\n      mload\n      dup2\n      0x08\n      add\n      swap1\n      dup2\n      tag_41\n      swap2\n      swap1\n      tag_35\n      jump\t// in\n    tag_41:\n      pop\n      0x0120\n      dup3\n      add\n      mload\n      dup2\n      0x09\n      add\n      swap1\n      dup2\n      tag_42\n      swap2\n      swap1\n      tag_35\n      jump\t// in\n    tag_42:\n      pop\n      0x0140\n      dup3\n      add\n      mload\n      dup2\n      0x0a\n      add\n      swap1\n      dup2\n      tag_43\n      swap2\n      swap1\n      tag_35\n      jump\t// in\n    tag_43:\n      pop\n      0x0160\n      dup3\n      add\n      mload\n      dup2\n      0x0b\n      add\n      swap1\n      dup2\n      tag_44\n      swap2\n      swap1\n      tag_35\n      jump\t// in\n    tag_44:\n      pop\n      pop\n      pop\n        /* \"contracts/1.Filling.sol\":781:1583  {... */\n      pop\n        /* \"contracts/1.Filling.sol\":716:1583  function submitFilingInfo(FilingInfo memory data) public payable {... */\n      pop\n      jump\t// out\n        /* \"contracts/1.Filling.sol\":86:122  uint256 public filingFee = 100 ether */\n    tag_18:\n      sload(0x00)\n      dup2\n      jump\t// out\n        /* \"contracts/1.Filling.sol\":173:193  address public owner */\n    tag_22:\n      0x02\n      0x00\n      swap1\n      sload\n      swap1\n      0x0100\n      exp\n      swap1\n      div\n      0xffffffffffffffffffffffffffffffffffffffff\n      and\n      dup2\n      jump\t// out\n        /* \"contracts/1.Filling.sol\":660:707  mapping(address => FilingInfo[]) public filings */\n    tag_29:\n      mstore(0x20, 0x03)\n      dup2\n      0x00\n      mstore\n      keccak256(0x00, 0x40)\n      dup2\n      dup2\n      sload\n      dup2\n      lt\n      tag_45\n      jumpi\n      0x00\n      dup1\n      revert\n    tag_45:\n      swap1\n      0x00\n      mstore\n      keccak256(0x00, 0x20)\n      swap1\n      0x0c\n      mul\n      add\n      0x00\n      swap2\n      pop\n      swap2\n      pop\n      pop\n      dup1\n      0x00\n      add\n      dup1\n      sload\n      tag_47\n      swap1\n      tag_48\n      jump\t// in\n    tag_47:\n      dup1\n      0x1f\n      add\n      0x20\n      dup1\n      swap2\n      div\n      mul\n      0x20\n      add\n      mload(0x40)\n      swap1\n      dup2\n      add\n      0x40\n      mstore\n      dup1\n      swap3\n      swap2\n      swap1\n      dup2\n      dup2\n      mstore\n      0x20\n      add\n      dup3\n      dup1\n      sload\n      tag_49\n      swap1\n      tag_48\n      jump\t// in\n    tag_49:\n      dup1\n      iszero\n      tag_50\n      jumpi\n      dup1\n      0x1f\n      lt\n      tag_51\n      jumpi\n      0x0100\n      dup1\n      dup4\n      sload\n      div\n      mul\n      dup4\n      mstore\n      swap2\n      0x20\n      add\n      swap2\n      jump(tag_50)\n    tag_51:\n      dup3\n      add\n      swap2\n      swap1\n      0x00\n      mstore\n      keccak256(0x00, 0x20)\n      swap1\n    tag_52:\n      dup2\n      sload\n      dup2\n      mstore\n      swap1\n      0x01\n      add\n      swap1\n      0x20\n      add\n      dup1\n      dup4\n      gt\n      tag_52\n      jumpi\n      dup3\n      swap1\n      sub\n      0x1f\n      and\n      dup3\n      add\n      swap2\n    tag_50:\n      pop\n      pop\n      pop\n      pop\n      pop\n      swap1\n      dup1\n      0x01\n      add\n      sload\n      swap1\n      dup1\n      0x02\n      add\n      dup1\n      sload\n      tag_53\n      swap1\n      tag_48\n      jump\t// in\n    tag_53:\n      dup1\n      0x1f\n      add\n      0x20\n      dup1\n      swap2\n      div\n      mul\n      0x20\n      add\n      mload(0x40)\n      swap1\n      dup2\n      add\n      0x40\n      mstore\n      dup1\n      swap3\n      swap2\n      swap1\n      dup2\n      dup2\n      mstore\n      0x20\n      add\n      dup3\n      dup1\n      sload\n      tag_54\n      swap1\n      tag_48\n      jump\t// in\n    tag_54:\n      dup1\n      iszero\n      tag_55\n      jumpi\n      dup1\n      0x1f\n      lt\n      tag_56\n      jumpi\n      0x0100\n      dup1\n      dup4\n      sload\n      div\n      mul\n      dup4\n      mstore\n      swap2\n      0x20\n      add\n      swap2\n      jump(tag_55)\n    tag_56:\n      dup3\n      add\n      swap2\n      swap1\n      0x00\n      mstore\n      keccak256(0x00, 0x20)\n      swap1\n    tag_57:\n      dup2\n      sload\n      dup2\n      mstore\n      swap1\n      0x01\n      add\n      swap1\n      0x20\n      add\n      dup1\n      dup4\n      gt\n      tag_57\n      jumpi\n      dup3\n      swap1\n      sub\n      0x1f\n      and\n      dup3\n      add\n      swap2\n    tag_55:\n      pop\n      pop\n      pop\n      pop\n      pop\n      swap1\n      dup1\n      0x03\n      add\n      sload\n      swap1\n      dup1\n      0x04\n      add\n      dup1\n      sload\n      tag_58\n      swap1\n      tag_48\n      jump\t// in\n    tag_58:\n      dup1\n      0x1f\n      add\n      0x20\n      dup1\n      swap2\n      div\n      mul\n      0x20\n      add\n      mload(0x40)\n      swap1\n      dup2\n      add\n      0x40\n      mstore\n      dup1\n      swap3\n      swap2\n      swap1\n      dup2\n      dup2\n      mstore\n      0x20\n      add\n      dup3\n      dup1\n      sload\n      tag_59\n      swap1\n      tag_48\n      jump\t// in\n    tag_59:\n      dup1\n      iszero\n      tag_60\n      jumpi\n      dup1\n      0x1f\n      lt\n      tag_61\n      jumpi\n      0x0100\n      dup1\n      dup4\n      sload\n      div\n      mul\n      dup4\n      mstore\n      swap2\n      0x20\n      add\n      swap2\n      jump(tag_60)\n    tag_61:\n      dup3\n      add\n      swap2\n      swap1\n      0x00\n      mstore\n      keccak256(0x00, 0x20)\n      swap1\n    tag_62:\n      dup2\n      sload\n      dup2\n      mstore\n      swap1\n      0x01\n      add\n      swap1\n      0x20\n      add\n      dup1\n      dup4\n      gt\n      tag_62\n      jumpi\n      dup3\n      swap1\n      sub\n      0x1f\n      and\n      dup3\n      add\n      swap2\n    tag_60:\n      pop\n      pop\n      pop\n      pop\n      pop\n      swap1\n      dup1\n      0x05\n      add\n      dup1\n      sload\n      tag_63\n      swap1\n      tag_48\n      jump\t// in\n    tag_63:\n      dup1\n      0x1f\n      add\n      0x20\n      dup1\n      swap2\n      div\n      mul\n      0x20\n      add\n      mload(0x40)\n      swap1\n      dup2\n      add\n      0x40\n      mstore\n      dup1\n      swap3\n      swap2\n      swap1\n      dup2\n      dup2\n      mstore\n      0x20\n      add\n      dup3\n      dup1\n      sload\n      tag_64\n      swap1\n      tag_48\n      jump\t// in\n    tag_64:\n      dup1\n      iszero\n      tag_65\n      jumpi\n      dup1\n      0x1f\n      lt\n      tag_66\n      jumpi\n      0x0100\n      dup1\n      dup4\n      sload\n      div\n      mul\n      dup4\n      mstore\n      swap2\n      0x20\n      add\n      swap2\n      jump(tag_65)\n    tag_66:\n      dup3\n      add\n      swap2\n      swap1\n      0x00\n      mstore\n      keccak256(0x00, 0x20)\n      swap1\n    tag_67:\n      dup2\n      sload\n      dup2\n      mstore\n      swap1\n      0x01\n      add\n      swap1\n      0x20\n      add\n      dup1\n      dup4\n      gt\n      tag_67\n      jumpi\n      dup3\n      swap1\n      sub\n      0x1f\n      and\n      dup3\n      add\n      swap2\n    tag_65:\n      pop\n      pop\n      pop\n      pop\n      pop\n      swap1\n      dup1\n      0x06\n      add\n      dup1\n      sload\n      tag_68\n      swap1\n      tag_48\n      jump\t// in\n    tag_68:\n      dup1\n      0x1f\n      add\n      0x20\n      dup1\n      swap2\n      div\n      mul\n      0x20\n      add\n      mload(0x40)\n      swap1\n      dup2\n      add\n      0x40\n      mstore\n      dup1\n      swap3\n      swap2\n      swap1\n      dup2\n      dup2\n      mstore\n      0x20\n      add\n      dup3\n      dup1\n      sload\n      tag_69\n      swap1\n      tag_48\n      jump\t// in\n    tag_69:\n      dup1\n      iszero\n      tag_70\n      jumpi\n      dup1\n      0x1f\n      lt\n      tag_71\n      jumpi\n      0x0100\n      dup1\n      dup4\n      sload\n      div\n      mul\n      dup4\n      mstore\n      swap2\n      0x20\n      add\n      swap2\n      jump(tag_70)\n    tag_71:\n      dup3\n      add\n      swap2\n      swap1\n      0x00\n      mstore\n      keccak256(0x00, 0x20)\n      swap1\n    tag_72:\n      dup2\n      sload\n      dup2\n      mstore\n      swap1\n      0x01\n      add\n      swap1\n      0x20\n      add\n      dup1\n      dup4\n      gt\n      tag_72\n      jumpi\n      dup3\n      swap1\n      sub\n      0x1f\n      and\n      dup3\n      add\n      swap2\n    tag_70:\n      pop\n      pop\n      pop\n      pop\n      pop\n      swap1\n      dup1\n      0x07\n      add\n      dup1\n      sload\n      tag_73\n      swap1\n      tag_48\n      jump\t// in\n    tag_73:\n      dup1\n      0x1f\n      add\n      0x20\n      dup1\n      swap2\n      div\n      mul\n      0x20\n      add\n      mload(0x40)\n      swap1\n      dup2\n      add\n      0x40\n      mstore\n      dup1\n      swap3\n      swap2\n      swap1\n      dup2\n      dup2\n      mstore\n      0x20\n      add\n      dup3\n      dup1\n      sload\n      tag_74\n      swap1\n      tag_48\n      jump\t// in\n    tag_74:\n      dup1\n      iszero\n      tag_75\n      jumpi\n      dup1\n      0x1f\n      lt\n      tag_76\n      jumpi\n      0x0100\n      dup1\n      dup4\n      sload\n      div\n      mul\n      dup4\n      mstore\n      swap2\n      0x20\n      add\n      swap2\n      jump(tag_75)\n    tag_76:\n      dup3\n      add\n      swap2\n      swap1\n      0x00\n      mstore\n      keccak256(0x00, 0x20)\n      swap1\n    tag_77:\n      dup2\n      sload\n      dup2\n      mstore\n      swap1\n      0x01\n      add\n      swap1\n      0x20\n      add\n      dup1\n      dup4\n      gt\n      tag_77\n      jumpi\n      dup3\n      swap1\n      sub\n      0x1f\n      and\n      dup3\n      add\n      swap2\n    tag_75:\n      pop\n      pop\n      pop\n      pop\n      pop\n      swap1\n      dup1\n      0x08\n      add\n      dup1\n      sload\n      tag_78\n      swap1\n      tag_48\n      jump\t// in\n    tag_78:\n      dup1\n      0x1f\n      add\n      0x20\n      dup1\n      swap2\n      div\n      mul\n      0x20\n      add\n      mload(0x40)\n      swap1\n      dup2\n      add\n      0x40\n      mstore\n      dup1\n      swap3\n      swap2\n      swap1\n      dup2\n      dup2\n      mstore\n      0x20\n      add\n      dup3\n      dup1\n      sload\n      tag_79\n      swap1\n      tag_48\n      jump\t// in\n    tag_79:\n      dup1\n      iszero\n      tag_80\n      jumpi\n      dup1\n      0x1f\n      lt\n      tag_81\n      jumpi\n      0x0100\n      dup1\n      dup4\n      sload\n      div\n      mul\n      dup4\n      mstore\n      swap2\n      0x20\n      add\n      swap2\n      jump(tag_80)\n    tag_81:\n      dup3\n      add\n      swap2\n      swap1\n      0x00\n      mstore\n      keccak256(0x00, 0x20)\n      swap1\n    tag_82:\n      dup2\n      sload\n      dup2\n      mstore\n      swap1\n      0x01\n      add\n      swap1\n      0x20\n      add\n      dup1\n      dup4\n      gt\n      tag_82\n      jumpi\n      dup3\n      swap1\n      sub\n      0x1f\n      and\n      dup3\n      add\n      swap2\n    tag_80:\n      pop\n      pop\n      pop\n      pop\n      pop\n      swap1\n      dup1\n      0x09\n      add\n      dup1\n      sload\n      tag_83\n      swap1\n      tag_48\n      jump\t// in\n    tag_83:\n      dup1\n      0x1f\n      add\n      0x20\n      dup1\n      swap2\n      div\n      mul\n      0x20\n      add\n      mload(0x40)\n      swap1\n      dup2\n      add\n      0x40\n      mstore\n      dup1\n      swap3\n      swap2\n      swap1\n      dup2\n      dup2\n      mstore\n      0x20\n      add\n      dup3\n      dup1\n      sload\n      tag_84\n      swap1\n      tag_48\n      jump\t// in\n    tag_84:\n      dup1\n      iszero\n      tag_85\n      jumpi\n      dup1\n      0x1f\n      lt\n      tag_86\n      jumpi\n      0x0100\n      dup1\n      dup4\n      sload\n      div\n      mul\n      dup4\n      mstore\n      swap2\n      0x20\n      add\n      swap2\n      jump(tag_85)\n    tag_86:\n      dup3\n      add\n      swap2\n      swap1\n      0x00\n      mstore\n      keccak256(0x00, 0x20)\n      swap1\n    tag_87:\n      dup2\n      sload\n      dup2\n      mstore\n      swap1\n      0x01\n      add\n      swap1\n      0x20\n      add\n      dup1\n      dup4\n      gt\n      tag_87\n      jumpi\n      dup3\n      swap1\n      sub\n      0x1f\n      and\n      dup3\n      add\n      swap2\n    tag_85:\n      pop\n      pop\n      pop\n      pop\n      pop\n      swap1\n      dup1\n      0x0a\n      add\n      dup1\n      sload\n      tag_88\n      swap1\n      tag_48\n      jump\t// in\n    tag_88:\n      dup1\n      0x1f\n      add\n      0x20\n      dup1\n      swap2\n      div\n      mul\n      0x20\n      add\n      mload(0x40)\n      swap1\n      dup2\n      add\n      0x40\n      mstore\n      dup1\n      swap3\n      swap2\n      swap1\n      dup2\n      dup2\n      mstore\n      0x20\n      add\n      dup3\n      dup1\n      sload\n      tag_89\n      swap1\n      tag_48\n      jump\t// in\n    tag_89:\n      dup1\n      iszero\n      tag_90\n      jumpi\n      dup1\n      0x1f\n      lt\n      tag_91\n      jumpi\n      0x0100\n      dup1\n      dup4\n      sload\n      div\n      mul\n      dup4\n      mstore\n      swap2\n      0x20\n      add\n      swap2\n      jump(tag_90)\n    tag_91:\n      dup3\n      add\n      swap2\n      swap1\n      0x00\n      mstore\n      keccak256(0x00, 0x20)\n      swap1\n    tag_92:\n      dup2\n      sload\n      dup2\n      mstore\n      swap1\n      0x01\n      add\n      swap1\n      0x20\n      add\n      dup1\n      dup4\n      gt\n      tag_92\n      jumpi\n      dup3\n      swap1\n      sub\n      0x1f\n      and\n      dup3\n      add\n      swap2\n    tag_90:\n      pop\n      pop\n      pop\n      pop\n      pop\n      swap1\n      dup1\n      0x0b\n      add\n      dup1\n      sload\n      tag_93\n      swap1\n      tag_48\n      jump\t// in\n    tag_93:\n      dup1\n      0x1f\n      add\n      0x20\n      dup1\n      swap2\n      div\n      mul\n      0x20\n      add\n      mload(0x40)\n      swap1\n      dup2\n      add\n      0x40\n      mstore\n      dup1\n      swap3\n      swap2\n      swap1\n      dup2\n      dup2\n      mstore\n      0x20\n      add\n      dup3\n      dup1\n      sload\n      tag_94\n      swap1\n      tag_48\n      jump\t// in\n    tag_94:\n      dup1\n      iszero\n      tag_95\n      jumpi\n      dup1\n      0x1f\n      lt\n      tag_96\n      jumpi\n      0x0100\n      dup1\n      dup4\n      sload\n      div\n      mul\n      dup4\n      mstore\n      swap2\n      0x20\n      add\n      swap2\n      jump(tag_95)\n    tag_96:\n      dup3\n      add\n      swap2\n      swap1\n      0x00\n      mstore\n      keccak256(0x00, 0x20)\n      swap1\n    tag_97:\n      dup2\n      sload\n      dup2\n      mstore\n      swap1\n      0x01\n      add\n      swap1\n      0x20\n      add\n      dup1\n      dup4\n      gt\n      tag_97\n      jumpi\n      dup3\n      swap1\n      sub\n      0x1f\n      and\n      dup3\n      add\n      swap2\n    tag_95:\n      pop\n      pop\n      pop\n      pop\n      pop\n      swap1\n      pop\n      dup13\n      jump\t// out\n        /* \"#utility.yul\":7:84   */\n    tag_98:\n        /* \"#utility.yul\":44:51   */\n      0x00\n        /* \"#utility.yul\":73:78   */\n      dup2\n        /* \"#utility.yul\":62:78   */\n      swap1\n      pop\n        /* \"#utility.yul\":7:84   */\n      swap2\n      swap1\n      pop\n      jump\t// out\n        /* \"#utility.yul\":90:208   */\n    tag_99:\n        /* \"#utility.yul\":177:201   */\n      tag_146\n        /* \"#utility.yul\":195:200   */\n      dup2\n        /* \"#utility.yul\":177:201   */\n      tag_98\n      jump\t// in\n    tag_146:\n        /* \"#utility.yul\":172:175   */\n      dup3\n        /* \"#utility.yul\":165:202   */\n      mstore\n        /* \"#utility.yul\":90:208   */\n      pop\n      pop\n      jump\t// out\n        /* \"#utility.yul\":214:436   */\n    tag_11:\n        /* \"#utility.yul\":307:311   */\n      0x00\n        /* \"#utility.yul\":345:347   */\n      0x20\n        /* \"#utility.yul\":334:343   */\n      dup3\n        /* \"#utility.yul\":330:348   */\n      add\n        /* \"#utility.yul\":322:348   */\n      swap1\n      pop\n        /* \"#utility.yul\":358:429   */\n      tag_148\n        /* \"#utility.yul\":426:427   */\n      0x00\n        /* \"#utility.yul\":415:424   */\n      dup4\n        /* \"#utility.yul\":411:428   */\n      add\n        /* \"#utility.yul\":402:408   */\n      dup5\n        /* \"#utility.yul\":358:429   */\n      tag_99\n      jump\t// in\n    tag_148:\n        /* \"#utility.yul\":214:436   */\n      swap3\n      swap2\n      pop\n      pop\n      jump\t// out\n        /* \"#utility.yul\":442:517   */\n    tag_100:\n        /* \"#utility.yul\":475:481   */\n      0x00\n        /* \"#utility.yul\":508:510   */\n      0x40\n        /* \"#utility.yul\":502:511   */\n      mload\n        /* \"#utility.yul\":492:511   */\n      swap1\n      pop\n        /* \"#utility.yul\":442:517   */\n      swap1\n      jump\t// out\n        /* \"#utility.yul\":523:640   */\n    tag_101:\n        /* \"#utility.yul\":632:633   */\n      0x00\n        /* \"#utility.yul\":629:630   */\n      dup1\n        /* \"#utility.yul\":622:634   */\n      revert\n        /* \"#utility.yul\":646:763   */\n    tag_102:\n        /* \"#utility.yul\":755:756   */\n      0x00\n        /* \"#utility.yul\":752:753   */\n      dup1\n        /* \"#utility.yul\":745:757   */\n      revert\n        /* \"#utility.yul\":769:886   */\n    tag_103:\n        /* \"#utility.yul\":878:879   */\n      0x00\n        /* \"#utility.yul\":875:876   */\n      dup1\n        /* \"#utility.yul\":868:880   */\n      revert\n        /* \"#utility.yul\":892:994   */\n    tag_104:\n        /* \"#utility.yul\":933:939   */\n      0x00\n        /* \"#utility.yul\":984:986   */\n      0x1f\n        /* \"#utility.yul\":980:987   */\n      not\n        /* \"#utility.yul\":975:977   */\n      0x1f\n        /* \"#utility.yul\":968:973   */\n      dup4\n        /* \"#utility.yul\":964:978   */\n      add\n        /* \"#utility.yul\":960:988   */\n      and\n        /* \"#utility.yul\":950:988   */\n      swap1\n      pop\n        /* \"#utility.yul\":892:994   */\n      swap2\n      swap1\n      pop\n      jump\t// out\n        /* \"#utility.yul\":1000:1180   */\n    tag_105:\n        /* \"#utility.yul\":1048:1125   */\n      0x4e487b7100000000000000000000000000000000000000000000000000000000\n        /* \"#utility.yul\":1045:1046   */\n      0x00\n        /* \"#utility.yul\":1038:1126   */\n      mstore\n        /* \"#utility.yul\":1145:1149   */\n      0x41\n        /* \"#utility.yul\":1142:1143   */\n      0x04\n        /* \"#utility.yul\":1135:1150   */\n      mstore\n        /* \"#utility.yul\":1169:1173   */\n      0x24\n        /* \"#utility.yul\":1166:1167   */\n      0x00\n        /* \"#utility.yul\":1159:1174   */\n      revert\n        /* \"#utility.yul\":1186:1467   */\n    tag_106:\n        /* \"#utility.yul\":1269:1296   */\n      tag_156\n        /* \"#utility.yul\":1291:1295   */\n      dup3\n        /* \"#utility.yul\":1269:1296   */\n      tag_104\n      jump\t// in\n    tag_156:\n        /* \"#utility.yul\":1261:1267   */\n      dup2\n        /* \"#utility.yul\":1257:1297   */\n      add\n        /* \"#utility.yul\":1399:1405   */\n      dup2\n        /* \"#utility.yul\":1387:1397   */\n      dup2\n        /* \"#utility.yul\":1384:1406   */\n      lt\n        /* \"#utility.yul\":1363:1381   */\n      0xffffffffffffffff\n        /* \"#utility.yul\":1351:1361   */\n      dup3\n        /* \"#utility.yul\":1348:1382   */\n      gt\n        /* \"#utility.yul\":1345:1407   */\n      or\n        /* \"#utility.yul\":1342:1430   */\n      iszero\n      tag_157\n      jumpi\n        /* \"#utility.yul\":1410:1428   */\n      tag_158\n      tag_105\n      jump\t// in\n    tag_158:\n        /* \"#utility.yul\":1342:1430   */\n    tag_157:\n        /* \"#utility.yul\":1450:1460   */\n      dup1\n        /* \"#utility.yul\":1446:1448   */\n      0x40\n        /* \"#utility.yul\":1439:1461   */\n      mstore\n        /* \"#utility.yul\":1229:1467   */\n      pop\n        /* \"#utility.yul\":1186:1467   */\n      pop\n      pop\n      jump\t// out\n        /* \"#utility.yul\":1473:1602   */\n    tag_107:\n        /* \"#utility.yul\":1507:1513   */\n      0x00\n        /* \"#utility.yul\":1534:1554   */\n      tag_160\n      tag_100\n      jump\t// in\n    tag_160:\n        /* \"#utility.yul\":1524:1554   */\n      swap1\n      pop\n        /* \"#utility.yul\":1563:1596   */\n      tag_161\n        /* \"#utility.yul\":1591:1595   */\n      dup3\n        /* \"#utility.yul\":1583:1589   */\n      dup3\n        /* \"#utility.yul\":1563:1596   */\n      tag_106\n      jump\t// in\n    tag_161:\n        /* \"#utility.yul\":1473:1602   */\n      swap2\n      swap1\n      pop\n      jump\t// out\n        /* \"#utility.yul\":1608:1725   */\n    tag_108:\n        /* \"#utility.yul\":1717:1718   */\n      0x00\n        /* \"#utility.yul\":1714:1715   */\n      dup1\n        /* \"#utility.yul\":1707:1719   */\n      revert\n        /* \"#utility.yul\":1731:1848   */\n    tag_109:\n        /* \"#utility.yul\":1840:1841   */\n      0x00\n        /* \"#utility.yul\":1837:1838   */\n      dup1\n        /* \"#utility.yul\":1830:1842   */\n      revert\n        /* \"#utility.yul\":1854:1971   */\n    tag_110:\n        /* \"#utility.yul\":1963:1964   */\n      0x00\n        /* \"#utility.yul\":1960:1961   */\n      dup1\n        /* \"#utility.yul\":1953:1965   */\n      revert\n        /* \"#utility.yul\":1977:2285   */\n    tag_111:\n        /* \"#utility.yul\":2039:2043   */\n      0x00\n        /* \"#utility.yul\":2129:2147   */\n      0xffffffffffffffff\n        /* \"#utility.yul\":2121:2127   */\n      dup3\n        /* \"#utility.yul\":2118:2148   */\n      gt\n        /* \"#utility.yul\":2115:2171   */\n      iszero\n      tag_166\n      jumpi\n        /* \"#utility.yul\":2151:2169   */\n      tag_167\n      tag_105\n      jump\t// in\n    tag_167:\n        /* \"#utility.yul\":2115:2171   */\n    tag_166:\n        /* \"#utility.yul\":2189:2218   */\n      tag_168\n        /* \"#utility.yul\":2211:2217   */\n      dup3\n        /* \"#utility.yul\":2189:2218   */\n      tag_104\n      jump\t// in\n    tag_168:\n        /* \"#utility.yul\":2181:2218   */\n      swap1\n      pop\n        /* \"#utility.yul\":2273:2277   */\n      0x20\n        /* \"#utility.yul\":2267:2271   */\n      dup2\n        /* \"#utility.yul\":2263:2278   */\n      add\n        /* \"#utility.yul\":2255:2278   */\n      swap1\n      pop\n        /* \"#utility.yul\":1977:2285   */\n      swap2\n      swap1\n      pop\n      jump\t// out\n        /* \"#utility.yul\":2291:2439   */\n    tag_112:\n        /* \"#utility.yul\":2389:2395   */\n      dup3\n        /* \"#utility.yul\":2384:2387   */\n      dup2\n        /* \"#utility.yul\":2379:2382   */\n      dup4\n        /* \"#utility.yul\":2366:2396   */\n      calldatacopy\n        /* \"#utility.yul\":2430:2431   */\n      0x00\n        /* \"#utility.yul\":2421:2427   */\n      dup4\n        /* \"#utility.yul\":2416:2419   */\n      dup4\n        /* \"#utility.yul\":2412:2428   */\n      add\n        /* \"#utility.yul\":2405:2432   */\n      mstore\n        /* \"#utility.yul\":2291:2439   */\n      pop\n      pop\n      pop\n      jump\t// out\n        /* \"#utility.yul\":2445:2870   */\n    tag_113:\n        /* \"#utility.yul\":2523:2528   */\n      0x00\n        /* \"#utility.yul\":2548:2614   */\n      tag_171\n        /* \"#utility.yul\":2564:2613   */\n      tag_172\n        /* \"#utility.yul\":2606:2612   */\n      dup5\n        /* \"#utility.yul\":2564:2613   */\n      tag_111\n      jump\t// in\n    tag_172:\n        /* \"#utility.yul\":2548:2614   */\n      tag_107\n      jump\t// in\n    tag_171:\n        /* \"#utility.yul\":2539:2614   */\n      swap1\n      pop\n        /* \"#utility.yul\":2637:2643   */\n      dup3\n        /* \"#utility.yul\":2630:2635   */\n      dup2\n        /* \"#utility.yul\":2623:2644   */\n      mstore\n        /* \"#utility.yul\":2675:2679   */\n      0x20\n        /* \"#utility.yul\":2668:2673   */\n      dup2\n        /* \"#utility.yul\":2664:2680   */\n      add\n        /* \"#utility.yul\":2713:2716   */\n      dup5\n        /* \"#utility.yul\":2704:2710   */\n      dup5\n        /* \"#utility.yul\":2699:2702   */\n      dup5\n        /* \"#utility.yul\":2695:2711   */\n      add\n        /* \"#utility.yul\":2692:2717   */\n      gt\n        /* \"#utility.yul\":2689:2801   */\n      iszero\n      tag_173\n      jumpi\n        /* \"#utility.yul\":2720:2799   */\n      tag_174\n      tag_110\n      jump\t// in\n    tag_174:\n        /* \"#utility.yul\":2689:2801   */\n    tag_173:\n        /* \"#utility.yul\":2810:2864   */\n      tag_175\n        /* \"#utility.yul\":2857:2863   */\n      dup5\n        /* \"#utility.yul\":2852:2855   */\n      dup3\n        /* \"#utility.yul\":2847:2850   */\n      dup6\n        /* \"#utility.yul\":2810:2864   */\n      tag_112\n      jump\t// in\n    tag_175:\n        /* \"#utility.yul\":2529:2870   */\n      pop\n        /* \"#utility.yul\":2445:2870   */\n      swap4\n      swap3\n      pop\n      pop\n      pop\n      jump\t// out\n        /* \"#utility.yul\":2890:3230   */\n    tag_114:\n        /* \"#utility.yul\":2946:2951   */\n      0x00\n        /* \"#utility.yul\":2995:2998   */\n      dup3\n        /* \"#utility.yul\":2988:2992   */\n      0x1f\n        /* \"#utility.yul\":2980:2986   */\n      dup4\n        /* \"#utility.yul\":2976:2993   */\n      add\n        /* \"#utility.yul\":2972:2999   */\n      slt\n        /* \"#utility.yul\":2962:3084   */\n      tag_177\n      jumpi\n        /* \"#utility.yul\":3003:3082   */\n      tag_178\n      tag_109\n      jump\t// in\n    tag_178:\n        /* \"#utility.yul\":2962:3084   */\n    tag_177:\n        /* \"#utility.yul\":3120:3126   */\n      dup2\n        /* \"#utility.yul\":3107:3127   */\n      calldataload\n        /* \"#utility.yul\":3145:3224   */\n      tag_179\n        /* \"#utility.yul\":3220:3223   */\n      dup5\n        /* \"#utility.yul\":3212:3218   */\n      dup3\n        /* \"#utility.yul\":3205:3209   */\n      0x20\n        /* \"#utility.yul\":3197:3203   */\n      dup7\n        /* \"#utility.yul\":3193:3210   */\n      add\n        /* \"#utility.yul\":3145:3224   */\n      tag_113\n      jump\t// in\n    tag_179:\n        /* \"#utility.yul\":3136:3224   */\n      swap2\n      pop\n        /* \"#utility.yul\":2952:3230   */\n      pop\n        /* \"#utility.yul\":2890:3230   */\n      swap3\n      swap2\n      pop\n      pop\n      jump\t// out\n        /* \"#utility.yul\":3236:3358   */\n    tag_115:\n        /* \"#utility.yul\":3309:3333   */\n      tag_181\n        /* \"#utility.yul\":3327:3332   */\n      dup2\n        /* \"#utility.yul\":3309:3333   */\n      tag_98\n      jump\t// in\n    tag_181:\n        /* \"#utility.yul\":3302:3307   */\n      dup2\n        /* \"#utility.yul\":3299:3334   */\n      eq\n        /* \"#utility.yul\":3289:3352   */\n      tag_182\n      jumpi\n        /* \"#utility.yul\":3348:3349   */\n      0x00\n        /* \"#utility.yul\":3345:3346   */\n      dup1\n        /* \"#utility.yul\":3338:3350   */\n      revert\n        /* \"#utility.yul\":3289:3352   */\n    tag_182:\n        /* \"#utility.yul\":3236:3358   */\n      pop\n      jump\t// out\n        /* \"#utility.yul\":3364:3503   */\n    tag_116:\n        /* \"#utility.yul\":3410:3415   */\n      0x00\n        /* \"#utility.yul\":3448:3454   */\n      dup2\n        /* \"#utility.yul\":3435:3455   */\n      calldataload\n        /* \"#utility.yul\":3426:3455   */\n      swap1\n      pop\n        /* \"#utility.yul\":3464:3497   */\n      tag_184\n        /* \"#utility.yul\":3491:3496   */\n      dup2\n        /* \"#utility.yul\":3464:3497   */\n      tag_115\n      jump\t// in\n    tag_184:\n        /* \"#utility.yul\":3364:3503   */\n      swap3\n      swap2\n      pop\n      pop\n      jump\t// out\n        /* \"#utility.yul\":3542:7606   */\n    tag_117:\n        /* \"#utility.yul\":3617:3622   */\n      0x00\n        /* \"#utility.yul\":3661:3667   */\n      0x0180\n        /* \"#utility.yul\":3649:3658   */\n      dup3\n        /* \"#utility.yul\":3644:3647   */\n      dup5\n        /* \"#utility.yul\":3640:3659   */\n      sub\n        /* \"#utility.yul\":3636:3668   */\n      slt\n        /* \"#utility.yul\":3633:3752   */\n      iszero\n      tag_186\n      jumpi\n        /* \"#utility.yul\":3671:3750   */\n      tag_187\n      tag_103\n      jump\t// in\n    tag_187:\n        /* \"#utility.yul\":3633:3752   */\n    tag_186:\n        /* \"#utility.yul\":3770:3793   */\n      tag_188\n        /* \"#utility.yul\":3786:3792   */\n      0x0180\n        /* \"#utility.yul\":3770:3793   */\n      tag_107\n      jump\t// in\n    tag_188:\n        /* \"#utility.yul\":3761:3793   */\n      swap1\n      pop\n        /* \"#utility.yul\":3895:3896   */\n      0x00\n        /* \"#utility.yul\":3884:3893   */\n      dup3\n        /* \"#utility.yul\":3880:3897   */\n      add\n        /* \"#utility.yul\":3867:3898   */\n      calldataload\n        /* \"#utility.yul\":3925:3943   */\n      0xffffffffffffffff\n        /* \"#utility.yul\":3917:3923   */\n      dup2\n        /* \"#utility.yul\":3914:3944   */\n      gt\n        /* \"#utility.yul\":3911:4028   */\n      iszero\n      tag_189\n      jumpi\n        /* \"#utility.yul\":3947:4026   */\n      tag_190\n      tag_108\n      jump\t// in\n    tag_190:\n        /* \"#utility.yul\":3911:4028   */\n    tag_189:\n        /* \"#utility.yul\":4067:4126   */\n      tag_191\n        /* \"#utility.yul\":4122:4125   */\n      dup5\n        /* \"#utility.yul\":4113:4119   */\n      dup3\n        /* \"#utility.yul\":4102:4111   */\n      dup6\n        /* \"#utility.yul\":4098:4120   */\n      add\n        /* \"#utility.yul\":4067:4126   */\n      tag_114\n      jump\t// in\n    tag_191:\n        /* \"#utility.yul\":4060:4064   */\n      0x00\n        /* \"#utility.yul\":4053:4058   */\n      dup4\n        /* \"#utility.yul\":4049:4065   */\n      add\n        /* \"#utility.yul\":4042:4127   */\n      mstore\n        /* \"#utility.yul\":3803:4138   */\n      pop\n        /* \"#utility.yul\":4202:4204   */\n      0x20\n        /* \"#utility.yul\":4243:4292   */\n      tag_192\n        /* \"#utility.yul\":4288:4291   */\n      dup5\n        /* \"#utility.yul\":4279:4285   */\n      dup3\n        /* \"#utility.yul\":4268:4277   */\n      dup6\n        /* \"#utility.yul\":4264:4286   */\n      add\n        /* \"#utility.yul\":4243:4292   */\n      tag_116\n      jump\t// in\n    tag_192:\n        /* \"#utility.yul\":4236:4240   */\n      0x20\n        /* \"#utility.yul\":4229:4234   */\n      dup4\n        /* \"#utility.yul\":4225:4241   */\n      add\n        /* \"#utility.yul\":4218:4293   */\n      mstore\n        /* \"#utility.yul\":4148:4304   */\n      pop\n        /* \"#utility.yul\":4401:4403   */\n      0x40\n        /* \"#utility.yul\":4390:4399   */\n      dup3\n        /* \"#utility.yul\":4386:4404   */\n      add\n        /* \"#utility.yul\":4373:4405   */\n      calldataload\n        /* \"#utility.yul\":4432:4450   */\n      0xffffffffffffffff\n        /* \"#utility.yul\":4424:4430   */\n      dup2\n        /* \"#utility.yul\":4421:4451   */\n      gt\n        /* \"#utility.yul\":4418:4535   */\n      iszero\n      tag_193\n      jumpi\n        /* \"#utility.yul\":4454:4533   */\n      tag_194\n      tag_108\n      jump\t// in\n    tag_194:\n        /* \"#utility.yul\":4418:4535   */\n    tag_193:\n        /* \"#utility.yul\":4574:4633   */\n      tag_195\n        /* \"#utility.yul\":4629:4632   */\n      dup5\n        /* \"#utility.yul\":4620:4626   */\n      dup3\n        /* \"#utility.yul\":4609:4618   */\n      dup6\n        /* \"#utility.yul\":4605:4627   */\n      add\n        /* \"#utility.yul\":4574:4633   */\n      tag_114\n      jump\t// in\n    tag_195:\n        /* \"#utility.yul\":4567:4571   */\n      0x40\n        /* \"#utility.yul\":4560:4565   */\n      dup4\n        /* \"#utility.yul\":4556:4572   */\n      add\n        /* \"#utility.yul\":4549:4634   */\n      mstore\n        /* \"#utility.yul\":4314:4645   */\n      pop\n        /* \"#utility.yul\":4711:4713   */\n      0x60\n        /* \"#utility.yul\":4752:4801   */\n      tag_196\n        /* \"#utility.yul\":4797:4800   */\n      dup5\n        /* \"#utility.yul\":4788:4794   */\n      dup3\n        /* \"#utility.yul\":4777:4786   */\n      dup6\n        /* \"#utility.yul\":4773:4795   */\n      add\n        /* \"#utility.yul\":4752:4801   */\n      tag_116\n      jump\t// in\n    tag_196:\n        /* \"#utility.yul\":4745:4749   */\n      0x60\n        /* \"#utility.yul\":4738:4743   */\n      dup4\n        /* \"#utility.yul\":4734:4750   */\n      add\n        /* \"#utility.yul\":4727:4802   */\n      mstore\n        /* \"#utility.yul\":4655:4813   */\n      pop\n        /* \"#utility.yul\":4913:4916   */\n      0x80\n        /* \"#utility.yul\":4902:4911   */\n      dup3\n        /* \"#utility.yul\":4898:4917   */\n      add\n        /* \"#utility.yul\":4885:4918   */\n      calldataload\n        /* \"#utility.yul\":4945:4963   */\n      0xffffffffffffffff\n        /* \"#utility.yul\":4937:4943   */\n      dup2\n        /* \"#utility.yul\":4934:4964   */\n      gt\n        /* \"#utility.yul\":4931:5048   */\n      iszero\n      tag_197\n      jumpi\n        /* \"#utility.yul\":4967:5046   */\n      tag_198\n      tag_108\n      jump\t// in\n    tag_198:\n        /* \"#utility.yul\":4931:5048   */\n    tag_197:\n        /* \"#utility.yul\":5087:5146   */\n      tag_199\n        /* \"#utility.yul\":5142:5145   */\n      dup5\n        /* \"#utility.yul\":5133:5139   */\n      dup3\n        /* \"#utility.yul\":5122:5131   */\n      dup6\n        /* \"#utility.yul\":5118:5140   */\n      add\n        /* \"#utility.yul\":5087:5146   */\n      tag_114\n      jump\t// in\n    tag_199:\n        /* \"#utility.yul\":5080:5084   */\n      0x80\n        /* \"#utility.yul\":5073:5078   */\n      dup4\n        /* \"#utility.yul\":5069:5085   */\n      add\n        /* \"#utility.yul\":5062:5147   */\n      mstore\n        /* \"#utility.yul\":4823:5158   */\n      pop\n        /* \"#utility.yul\":5262:5265   */\n      0xa0\n        /* \"#utility.yul\":5251:5260   */\n      dup3\n        /* \"#utility.yul\":5247:5266   */\n      add\n        /* \"#utility.yul\":5234:5267   */\n      calldataload\n        /* \"#utility.yul\":5294:5312   */\n      0xffffffffffffffff\n        /* \"#utility.yul\":5286:5292   */\n      dup2\n        /* \"#utility.yul\":5283:5313   */\n      gt\n        /* \"#utility.yul\":5280:5397   */\n      iszero\n      tag_200\n      jumpi\n        /* \"#utility.yul\":5316:5395   */\n      tag_201\n      tag_108\n      jump\t// in\n    tag_201:\n        /* \"#utility.yul\":5280:5397   */\n    tag_200:\n        /* \"#utility.yul\":5436:5495   */\n      tag_202\n        /* \"#utility.yul\":5491:5494   */\n      dup5\n        /* \"#utility.yul\":5482:5488   */\n      dup3\n        /* \"#utility.yul\":5471:5480   */\n      dup6\n        /* \"#utility.yul\":5467:5489   */\n      add\n        /* \"#utility.yul\":5436:5495   */\n      tag_114\n      jump\t// in\n    tag_202:\n        /* \"#utility.yul\":5429:5433   */\n      0xa0\n        /* \"#utility.yul\":5422:5427   */\n      dup4\n        /* \"#utility.yul\":5418:5434   */\n      add\n        /* \"#utility.yul\":5411:5496   */\n      mstore\n        /* \"#utility.yul\":5168:5507   */\n      pop\n        /* \"#utility.yul\":5613:5616   */\n      0xc0\n        /* \"#utility.yul\":5602:5611   */\n      dup3\n        /* \"#utility.yul\":5598:5617   */\n      add\n        /* \"#utility.yul\":5585:5618   */\n      calldataload\n        /* \"#utility.yul\":5645:5663   */\n      0xffffffffffffffff\n        /* \"#utility.yul\":5637:5643   */\n      dup2\n        /* \"#utility.yul\":5634:5664   */\n      gt\n        /* \"#utility.yul\":5631:5748   */\n      iszero\n      tag_203\n      jumpi\n        /* \"#utility.yul\":5667:5746   */\n      tag_204\n      tag_108\n      jump\t// in\n    tag_204:\n        /* \"#utility.yul\":5631:5748   */\n    tag_203:\n        /* \"#utility.yul\":5787:5846   */\n      tag_205\n        /* \"#utility.yul\":5842:5845   */\n      dup5\n        /* \"#utility.yul\":5833:5839   */\n      dup3\n        /* \"#utility.yul\":5822:5831   */\n      dup6\n        /* \"#utility.yul\":5818:5840   */\n      add\n        /* \"#utility.yul\":5787:5846   */\n      tag_114\n      jump\t// in\n    tag_205:\n        /* \"#utility.yul\":5780:5784   */\n      0xc0\n        /* \"#utility.yul\":5773:5778   */\n      dup4\n        /* \"#utility.yul\":5769:5785   */\n      add\n        /* \"#utility.yul\":5762:5847   */\n      mstore\n        /* \"#utility.yul\":5517:5858   */\n      pop\n        /* \"#utility.yul\":5957:5960   */\n      0xe0\n        /* \"#utility.yul\":5946:5955   */\n      dup3\n        /* \"#utility.yul\":5942:5961   */\n      add\n        /* \"#utility.yul\":5929:5962   */\n      calldataload\n        /* \"#utility.yul\":5989:6007   */\n      0xffffffffffffffff\n        /* \"#utility.yul\":5981:5987   */\n      dup2\n        /* \"#utility.yul\":5978:6008   */\n      gt\n        /* \"#utility.yul\":5975:6092   */\n      iszero\n      tag_206\n      jumpi\n        /* \"#utility.yul\":6011:6090   */\n      tag_207\n      tag_108\n      jump\t// in\n    tag_207:\n        /* \"#utility.yul\":5975:6092   */\n    tag_206:\n        /* \"#utility.yul\":6131:6190   */\n      tag_208\n        /* \"#utility.yul\":6186:6189   */\n      dup5\n        /* \"#utility.yul\":6177:6183   */\n      dup3\n        /* \"#utility.yul\":6166:6175   */\n      dup6\n        /* \"#utility.yul\":6162:6184   */\n      add\n        /* \"#utility.yul\":6131:6190   */\n      tag_114\n      jump\t// in\n    tag_208:\n        /* \"#utility.yul\":6124:6128   */\n      0xe0\n        /* \"#utility.yul\":6117:6122   */\n      dup4\n        /* \"#utility.yul\":6113:6129   */\n      add\n        /* \"#utility.yul\":6106:6191   */\n      mstore\n        /* \"#utility.yul\":5868:6202   */\n      pop\n        /* \"#utility.yul\":6304:6307   */\n      0x0100\n        /* \"#utility.yul\":6293:6302   */\n      dup3\n        /* \"#utility.yul\":6289:6308   */\n      add\n        /* \"#utility.yul\":6276:6309   */\n      calldataload\n        /* \"#utility.yul\":6336:6354   */\n      0xffffffffffffffff\n        /* \"#utility.yul\":6328:6334   */\n      dup2\n        /* \"#utility.yul\":6325:6355   */\n      gt\n        /* \"#utility.yul\":6322:6439   */\n      iszero\n      tag_209\n      jumpi\n        /* \"#utility.yul\":6358:6437   */\n      tag_210\n      tag_108\n      jump\t// in\n    tag_210:\n        /* \"#utility.yul\":6322:6439   */\n    tag_209:\n        /* \"#utility.yul\":6480:6539   */\n      tag_211\n        /* \"#utility.yul\":6535:6538   */\n      dup5\n        /* \"#utility.yul\":6526:6532   */\n      dup3\n        /* \"#utility.yul\":6515:6524   */\n      dup6\n        /* \"#utility.yul\":6511:6533   */\n      add\n        /* \"#utility.yul\":6480:6539   */\n      tag_114\n      jump\t// in\n    tag_211:\n        /* \"#utility.yul\":6471:6477   */\n      0x0100\n        /* \"#utility.yul\":6464:6469   */\n      dup4\n        /* \"#utility.yul\":6460:6478   */\n      add\n        /* \"#utility.yul\":6453:6540   */\n      mstore\n        /* \"#utility.yul\":6212:6551   */\n      pop\n        /* \"#utility.yul\":6653:6656   */\n      0x0120\n        /* \"#utility.yul\":6642:6651   */\n      dup3\n        /* \"#utility.yul\":6638:6657   */\n      add\n        /* \"#utility.yul\":6625:6658   */\n      calldataload\n        /* \"#utility.yul\":6685:6703   */\n      0xffffffffffffffff\n        /* \"#utility.yul\":6677:6683   */\n      dup2\n        /* \"#utility.yul\":6674:6704   */\n      gt\n        /* \"#utility.yul\":6671:6788   */\n      iszero\n      tag_212\n      jumpi\n        /* \"#utility.yul\":6707:6786   */\n      tag_213\n      tag_108\n      jump\t// in\n    tag_213:\n        /* \"#utility.yul\":6671:6788   */\n    tag_212:\n        /* \"#utility.yul\":6829:6888   */\n      tag_214\n        /* \"#utility.yul\":6884:6887   */\n      dup5\n        /* \"#utility.yul\":6875:6881   */\n      dup3\n        /* \"#utility.yul\":6864:6873   */\n      dup6\n        /* \"#utility.yul\":6860:6882   */\n      add\n        /* \"#utility.yul\":6829:6888   */\n      tag_114\n      jump\t// in\n    tag_214:\n        /* \"#utility.yul\":6820:6826   */\n      0x0120\n        /* \"#utility.yul\":6813:6818   */\n      dup4\n        /* \"#utility.yul\":6809:6827   */\n      add\n        /* \"#utility.yul\":6802:6889   */\n      mstore\n        /* \"#utility.yul\":6561:6900   */\n      pop\n        /* \"#utility.yul\":7001:7004   */\n      0x0140\n        /* \"#utility.yul\":6990:6999   */\n      dup3\n        /* \"#utility.yul\":6986:7005   */\n      add\n        /* \"#utility.yul\":6973:7006   */\n      calldataload\n        /* \"#utility.yul\":7033:7051   */\n      0xffffffffffffffff\n        /* \"#utility.yul\":7025:7031   */\n      dup2\n        /* \"#utility.yul\":7022:7052   */\n      gt\n        /* \"#utility.yul\":7019:7136   */\n      iszero\n      tag_215\n      jumpi\n        /* \"#utility.yul\":7055:7134   */\n      tag_216\n      tag_108\n      jump\t// in\n    tag_216:\n        /* \"#utility.yul\":7019:7136   */\n    tag_215:\n        /* \"#utility.yul\":7177:7236   */\n      tag_217\n        /* \"#utility.yul\":7232:7235   */\n      dup5\n        /* \"#utility.yul\":7223:7229   */\n      dup3\n        /* \"#utility.yul\":7212:7221   */\n      dup6\n        /* \"#utility.yul\":7208:7230   */\n      add\n        /* \"#utility.yul\":7177:7236   */\n      tag_114\n      jump\t// in\n    tag_217:\n        /* \"#utility.yul\":7168:7174   */\n      0x0140\n        /* \"#utility.yul\":7161:7166   */\n      dup4\n        /* \"#utility.yul\":7157:7175   */\n      add\n        /* \"#utility.yul\":7150:7237   */\n      mstore\n        /* \"#utility.yul\":6910:7248   */\n      pop\n        /* \"#utility.yul\":7352:7355   */\n      0x0160\n        /* \"#utility.yul\":7341:7350   */\n      dup3\n        /* \"#utility.yul\":7337:7356   */\n      add\n        /* \"#utility.yul\":7324:7357   */\n      calldataload\n        /* \"#utility.yul\":7384:7402   */\n      0xffffffffffffffff\n        /* \"#utility.yul\":7376:7382   */\n      dup2\n        /* \"#utility.yul\":7373:7403   */\n      gt\n        /* \"#utility.yul\":7370:7487   */\n      iszero\n      tag_218\n      jumpi\n        /* \"#utility.yul\":7406:7485   */\n      tag_219\n      tag_108\n      jump\t// in\n    tag_219:\n        /* \"#utility.yul\":7370:7487   */\n    tag_218:\n        /* \"#utility.yul\":7528:7587   */\n      tag_220\n        /* \"#utility.yul\":7583:7586   */\n      dup5\n        /* \"#utility.yul\":7574:7580   */\n      dup3\n        /* \"#utility.yul\":7563:7572   */\n      dup6\n        /* \"#utility.yul\":7559:7581   */\n      add\n        /* \"#utility.yul\":7528:7587   */\n      tag_114\n      jump\t// in\n    tag_220:\n        /* \"#utility.yul\":7519:7525   */\n      0x0160\n        /* \"#utility.yul\":7512:7517   */\n      dup4\n        /* \"#utility.yul\":7508:7526   */\n      add\n        /* \"#utility.yul\":7501:7588   */\n      mstore\n        /* \"#utility.yul\":7258:7599   */\n      pop\n        /* \"#utility.yul\":3542:7606   */\n      swap3\n      swap2\n      pop\n      pop\n      jump\t// out\n        /* \"#utility.yul\":7612:8153   */\n    tag_14:\n        /* \"#utility.yul\":7697:7703   */\n      0x00\n        /* \"#utility.yul\":7746:7748   */\n      0x20\n        /* \"#utility.yul\":7734:7743   */\n      dup3\n        /* \"#utility.yul\":7725:7732   */\n      dup5\n        /* \"#utility.yul\":7721:7744   */\n      sub\n        /* \"#utility.yul\":7717:7749   */\n      slt\n        /* \"#utility.yul\":7714:7833   */\n      iszero\n      tag_222\n      jumpi\n        /* \"#utility.yul\":7752:7831   */\n      tag_223\n      tag_101\n      jump\t// in\n    tag_223:\n        /* \"#utility.yul\":7714:7833   */\n    tag_222:\n        /* \"#utility.yul\":7900:7901   */\n      0x00\n        /* \"#utility.yul\":7889:7898   */\n      dup3\n        /* \"#utility.yul\":7885:7902   */\n      add\n        /* \"#utility.yul\":7872:7903   */\n      calldataload\n        /* \"#utility.yul\":7930:7948   */\n      0xffffffffffffffff\n        /* \"#utility.yul\":7922:7928   */\n      dup2\n        /* \"#utility.yul\":7919:7949   */\n      gt\n        /* \"#utility.yul\":7916:8033   */\n      iszero\n      tag_224\n      jumpi\n        /* \"#utility.yul\":7952:8031   */\n      tag_225\n      tag_102\n      jump\t// in\n    tag_225:\n        /* \"#utility.yul\":7916:8033   */\n    tag_224:\n        /* \"#utility.yul\":8057:8136   */\n      tag_226\n        /* \"#utility.yul\":8128:8135   */\n      dup5\n        /* \"#utility.yul\":8119:8125   */\n      dup3\n        /* \"#utility.yul\":8108:8117   */\n      dup6\n        /* \"#utility.yul\":8104:8126   */\n      add\n        /* \"#utility.yul\":8057:8136   */\n      tag_117\n      jump\t// in\n    tag_226:\n        /* \"#utility.yul\":8047:8136   */\n      swap2\n      pop\n        /* \"#utility.yul\":7843:8146   */\n      pop\n        /* \"#utility.yul\":7612:8153   */\n      swap3\n      swap2\n      pop\n      pop\n      jump\t// out\n        /* \"#utility.yul\":8159:8285   */\n    tag_118:\n        /* \"#utility.yul\":8196:8203   */\n      0x00\n        /* \"#utility.yul\":8236:8278   */\n      0xffffffffffffffffffffffffffffffffffffffff\n        /* \"#utility.yul\":8229:8234   */\n      dup3\n        /* \"#utility.yul\":8225:8279   */\n      and\n        /* \"#utility.yul\":8214:8279   */\n      swap1\n      pop\n        /* \"#utility.yul\":8159:8285   */\n      swap2\n      swap1\n      pop\n      jump\t// out\n        /* \"#utility.yul\":8291:8387   */\n    tag_119:\n        /* \"#utility.yul\":8328:8335   */\n      0x00\n        /* \"#utility.yul\":8357:8381   */\n      tag_229\n        /* \"#utility.yul\":8375:8380   */\n      dup3\n        /* \"#utility.yul\":8357:8381   */\n      tag_118\n      jump\t// in\n    tag_229:\n        /* \"#utility.yul\":8346:8381   */\n      swap1\n      pop\n        /* \"#utility.yul\":8291:8387   */\n      swap2\n      swap1\n      pop\n      jump\t// out\n        /* \"#utility.yul\":8393:8511   */\n    tag_120:\n        /* \"#utility.yul\":8480:8504   */\n      tag_231\n        /* \"#utility.yul\":8498:8503   */\n      dup2\n        /* \"#utility.yul\":8480:8504   */\n      tag_119\n      jump\t// in\n    tag_231:\n        /* \"#utility.yul\":8475:8478   */\n      dup3\n        /* \"#utility.yul\":8468:8505   */\n      mstore\n        /* \"#utility.yul\":8393:8511   */\n      pop\n      pop\n      jump\t// out\n        /* \"#utility.yul\":8517:8739   */\n    tag_24:\n        /* \"#utility.yul\":8610:8614   */\n      0x00\n        /* \"#utility.yul\":8648:8650   */\n      0x20\n        /* \"#utility.yul\":8637:8646   */\n      dup3\n        /* \"#utility.yul\":8633:8651   */\n      add\n        /* \"#utility.yul\":8625:8651   */\n      swap1\n      pop\n        /* \"#utility.yul\":8661:8732   */\n      tag_233\n        /* \"#utility.yul\":8729:8730   */\n      0x00\n        /* \"#utility.yul\":8718:8727   */\n      dup4\n        /* \"#utility.yul\":8714:8731   */\n      add\n        /* \"#utility.yul\":8705:8711   */\n      dup5\n        /* \"#utility.yul\":8661:8732   */\n      tag_120\n      jump\t// in\n    tag_233:\n        /* \"#utility.yul\":8517:8739   */\n      swap3\n      swap2\n      pop\n      pop\n      jump\t// out\n        /* \"#utility.yul\":8745:8867   */\n    tag_121:\n        /* \"#utility.yul\":8818:8842   */\n      tag_235\n        /* \"#utility.yul\":8836:8841   */\n      dup2\n        /* \"#utility.yul\":8818:8842   */\n      tag_119\n      jump\t// in\n    tag_235:\n        /* \"#utility.yul\":8811:8816   */\n      dup2\n        /* \"#utility.yul\":8808:8843   */\n      eq\n        /* \"#utility.yul\":8798:8861   */\n      tag_236\n      jumpi\n        /* \"#utility.yul\":8857:8858   */\n      0x00\n        /* \"#utility.yul\":8854:8855   */\n      dup1\n        /* \"#utility.yul\":8847:8859   */\n      revert\n        /* \"#utility.yul\":8798:8861   */\n    tag_236:\n        /* \"#utility.yul\":8745:8867   */\n      pop\n      jump\t// out\n        /* \"#utility.yul\":8873:9012   */\n    tag_122:\n        /* \"#utility.yul\":8919:8924   */\n      0x00\n        /* \"#utility.yul\":8957:8963   */\n      dup2\n        /* \"#utility.yul\":8944:8964   */\n      calldataload\n        /* \"#utility.yul\":8935:8964   */\n      swap1\n      pop\n        /* \"#utility.yul\":8973:9006   */\n      tag_238\n        /* \"#utility.yul\":9000:9005   */\n      dup2\n        /* \"#utility.yul\":8973:9006   */\n      tag_121\n      jump\t// in\n    tag_238:\n        /* \"#utility.yul\":8873:9012   */\n      swap3\n      swap2\n      pop\n      pop\n      jump\t// out\n        /* \"#utility.yul\":9018:9492   */\n    tag_28:\n        /* \"#utility.yul\":9086:9092   */\n      0x00\n        /* \"#utility.yul\":9094:9100   */\n      dup1\n        /* \"#utility.yul\":9143:9145   */\n      0x40\n        /* \"#utility.yul\":9131:9140   */\n      dup4\n        /* \"#utility.yul\":9122:9129   */\n      dup6\n        /* \"#utility.yul\":9118:9141   */\n      sub\n        /* \"#utility.yul\":9114:9146   */\n      slt\n        /* \"#utility.yul\":9111:9230   */\n      iszero\n      tag_240\n      jumpi\n        /* \"#utility.yul\":9149:9228   */\n      tag_241\n      tag_101\n      jump\t// in\n    tag_241:\n        /* \"#utility.yul\":9111:9230   */\n    tag_240:\n        /* \"#utility.yul\":9269:9270   */\n      0x00\n        /* \"#utility.yul\":9294:9347   */\n      tag_242\n        /* \"#utility.yul\":9339:9346   */\n      dup6\n        /* \"#utility.yul\":9330:9336   */\n      dup3\n        /* \"#utility.yul\":9319:9328   */\n      dup7\n        /* \"#utility.yul\":9315:9337   */\n      add\n        /* \"#utility.yul\":9294:9347   */\n      tag_122\n      jump\t// in\n    tag_242:\n        /* \"#utility.yul\":9284:9347   */\n      swap3\n      pop\n        /* \"#utility.yul\":9240:9357   */\n      pop\n        /* \"#utility.yul\":9396:9398   */\n      0x20\n        /* \"#utility.yul\":9422:9475   */\n      tag_243\n        /* \"#utility.yul\":9467:9474   */\n      dup6\n        /* \"#utility.yul\":9458:9464   */\n      dup3\n        /* \"#utility.yul\":9447:9456   */\n      dup7\n        /* \"#utility.yul\":9443:9465   */\n      add\n        /* \"#utility.yul\":9422:9475   */\n      tag_116\n      jump\t// in\n    tag_243:\n        /* \"#utility.yul\":9412:9475   */\n      swap2\n      pop\n        /* \"#utility.yul\":9367:9485   */\n      pop\n        /* \"#utility.yul\":9018:9492   */\n      swap3\n      pop\n      swap3\n      swap1\n      pop\n      jump\t// out\n        /* \"#utility.yul\":9498:9597   */\n    tag_123:\n        /* \"#utility.yul\":9550:9556   */\n      0x00\n        /* \"#utility.yul\":9584:9589   */\n      dup2\n        /* \"#utility.yul\":9578:9590   */\n      mload\n        /* \"#utility.yul\":9568:9590   */\n      swap1\n      pop\n        /* \"#utility.yul\":9498:9597   */\n      swap2\n      swap1\n      pop\n      jump\t// out\n        /* \"#utility.yul\":9603:9772   */\n    tag_124:\n        /* \"#utility.yul\":9687:9698   */\n      0x00\n        /* \"#utility.yul\":9721:9727   */\n      dup3\n        /* \"#utility.yul\":9716:9719   */\n      dup3\n        /* \"#utility.yul\":9709:9728   */\n      mstore\n        /* \"#utility.yul\":9761:9765   */\n      0x20\n        /* \"#utility.yul\":9756:9759   */\n      dup3\n        /* \"#utility.yul\":9752:9766   */\n      add\n        /* \"#utility.yul\":9737:9766   */\n      swap1\n      pop\n        /* \"#utility.yul\":9603:9772   */\n      swap3\n      swap2\n      pop\n      pop\n      jump\t// out\n        /* \"#utility.yul\":9778:9917   */\n    tag_125:\n        /* \"#utility.yul\":9867:9873   */\n      dup3\n        /* \"#utility.yul\":9862:9865   */\n      dup2\n        /* \"#utility.yul\":9857:9860   */\n      dup4\n        /* \"#utility.yul\":9851:9874   */\n      mcopy\n        /* \"#utility.yul\":9908:9909   */\n      0x00\n        /* \"#utility.yul\":9899:9905   */\n      dup4\n        /* \"#utility.yul\":9894:9897   */\n      dup4\n        /* \"#utility.yul\":9890:9906   */\n      add\n        /* \"#utility.yul\":9883:9910   */\n      mstore\n        /* \"#utility.yul\":9778:9917   */\n      pop\n      pop\n      pop\n      jump\t// out\n        /* \"#utility.yul\":9923:10300   */\n    tag_126:\n        /* \"#utility.yul\":10011:10014   */\n      0x00\n        /* \"#utility.yul\":10039:10078   */\n      tag_248\n        /* \"#utility.yul\":10072:10077   */\n      dup3\n        /* \"#utility.yul\":10039:10078   */\n      tag_123\n      jump\t// in\n    tag_248:\n        /* \"#utility.yul\":10094:10165   */\n      tag_249\n        /* \"#utility.yul\":10158:10164   */\n      dup2\n        /* \"#utility.yul\":10153:10156   */\n      dup6\n        /* \"#utility.yul\":10094:10165   */\n      tag_124\n      jump\t// in\n    tag_249:\n        /* \"#utility.yul\":10087:10165   */\n      swap4\n      pop\n        /* \"#utility.yul\":10174:10239   */\n      tag_250\n        /* \"#utility.yul\":10232:10238   */\n      dup2\n        /* \"#utility.yul\":10227:10230   */\n      dup6\n        /* \"#utility.yul\":10220:10224   */\n      0x20\n        /* \"#utility.yul\":10213:10218   */\n      dup7\n        /* \"#utility.yul\":10209:10225   */\n      add\n        /* \"#utility.yul\":10174:10239   */\n      tag_125\n      jump\t// in\n    tag_250:\n        /* \"#utility.yul\":10264:10293   */\n      tag_251\n        /* \"#utility.yul\":10286:10292   */\n      dup2\n        /* \"#utility.yul\":10264:10293   */\n      tag_104\n      jump\t// in\n    tag_251:\n        /* \"#utility.yul\":10259:10262   */\n      dup5\n        /* \"#utility.yul\":10255:10294   */\n      add\n        /* \"#utility.yul\":10248:10294   */\n      swap2\n      pop\n        /* \"#utility.yul\":10015:10300   */\n      pop\n        /* \"#utility.yul\":9923:10300   */\n      swap3\n      swap2\n      pop\n      pop\n      jump\t// out\n        /* \"#utility.yul\":10306:12661   */\n    tag_31:\n        /* \"#utility.yul\":10909:10913   */\n      0x00\n        /* \"#utility.yul\":10947:10950   */\n      0x0180\n        /* \"#utility.yul\":10936:10945   */\n      dup3\n        /* \"#utility.yul\":10932:10951   */\n      add\n        /* \"#utility.yul\":10924:10951   */\n      swap1\n      pop\n        /* \"#utility.yul\":10997:11006   */\n      dup2\n        /* \"#utility.yul\":10991:10995   */\n      dup2\n        /* \"#utility.yul\":10987:11007   */\n      sub\n        /* \"#utility.yul\":10983:10984   */\n      0x00\n        /* \"#utility.yul\":10972:10981   */\n      dup4\n        /* \"#utility.yul\":10968:10985   */\n      add\n        /* \"#utility.yul\":10961:11008   */\n      mstore\n        /* \"#utility.yul\":11025:11103   */\n      tag_253\n        /* \"#utility.yul\":11098:11102   */\n      dup2\n        /* \"#utility.yul\":11089:11095   */\n      dup16\n        /* \"#utility.yul\":11025:11103   */\n      tag_126\n      jump\t// in\n    tag_253:\n        /* \"#utility.yul\":11017:11103   */\n      swap1\n      pop\n        /* \"#utility.yul\":11113:11185   */\n      tag_254\n        /* \"#utility.yul\":11181:11183   */\n      0x20\n        /* \"#utility.yul\":11170:11179   */\n      dup4\n        /* \"#utility.yul\":11166:11184   */\n      add\n        /* \"#utility.yul\":11157:11163   */\n      dup15\n        /* \"#utility.yul\":11113:11185   */\n      tag_99\n      jump\t// in\n    tag_254:\n        /* \"#utility.yul\":11232:11241   */\n      dup2\n        /* \"#utility.yul\":11226:11230   */\n      dup2\n        /* \"#utility.yul\":11222:11242   */\n      sub\n        /* \"#utility.yul\":11217:11219   */\n      0x40\n        /* \"#utility.yul\":11206:11215   */\n      dup4\n        /* \"#utility.yul\":11202:11220   */\n      add\n        /* \"#utility.yul\":11195:11243   */\n      mstore\n        /* \"#utility.yul\":11260:11338   */\n      tag_255\n        /* \"#utility.yul\":11333:11337   */\n      dup2\n        /* \"#utility.yul\":11324:11330   */\n      dup14\n        /* \"#utility.yul\":11260:11338   */\n      tag_126\n      jump\t// in\n    tag_255:\n        /* \"#utility.yul\":11252:11338   */\n      swap1\n      pop\n        /* \"#utility.yul\":11348:11420   */\n      tag_256\n        /* \"#utility.yul\":11416:11418   */\n      0x60\n        /* \"#utility.yul\":11405:11414   */\n      dup4\n        /* \"#utility.yul\":11401:11419   */\n      add\n        /* \"#utility.yul\":11392:11398   */\n      dup13\n        /* \"#utility.yul\":11348:11420   */\n      tag_99\n      jump\t// in\n    tag_256:\n        /* \"#utility.yul\":11468:11477   */\n      dup2\n        /* \"#utility.yul\":11462:11466   */\n      dup2\n        /* \"#utility.yul\":11458:11478   */\n      sub\n        /* \"#utility.yul\":11452:11455   */\n      0x80\n        /* \"#utility.yul\":11441:11450   */\n      dup4\n        /* \"#utility.yul\":11437:11456   */\n      add\n        /* \"#utility.yul\":11430:11479   */\n      mstore\n        /* \"#utility.yul\":11496:11574   */\n      tag_257\n        /* \"#utility.yul\":11569:11573   */\n      dup2\n        /* \"#utility.yul\":11560:11566   */\n      dup12\n        /* \"#utility.yul\":11496:11574   */\n      tag_126\n      jump\t// in\n    tag_257:\n        /* \"#utility.yul\":11488:11574   */\n      swap1\n      pop\n        /* \"#utility.yul\":11622:11631   */\n      dup2\n        /* \"#utility.yul\":11616:11620   */\n      dup2\n        /* \"#utility.yul\":11612:11632   */\n      sub\n        /* \"#utility.yul\":11606:11609   */\n      0xa0\n        /* \"#utility.yul\":11595:11604   */\n      dup4\n        /* \"#utility.yul\":11591:11610   */\n      add\n        /* \"#utility.yul\":11584:11633   */\n      mstore\n        /* \"#utility.yul\":11650:11728   */\n      tag_258\n        /* \"#utility.yul\":11723:11727   */\n      dup2\n        /* \"#utility.yul\":11714:11720   */\n      dup11\n        /* \"#utility.yul\":11650:11728   */\n      tag_126\n      jump\t// in\n    tag_258:\n        /* \"#utility.yul\":11642:11728   */\n      swap1\n      pop\n        /* \"#utility.yul\":11776:11785   */\n      dup2\n        /* \"#utility.yul\":11770:11774   */\n      dup2\n        /* \"#utility.yul\":11766:11786   */\n      sub\n        /* \"#utility.yul\":11760:11763   */\n      0xc0\n        /* \"#utility.yul\":11749:11758   */\n      dup4\n        /* \"#utility.yul\":11745:11764   */\n      add\n        /* \"#utility.yul\":11738:11787   */\n      mstore\n        /* \"#utility.yul\":11804:11882   */\n      tag_259\n        /* \"#utility.yul\":11877:11881   */\n      dup2\n        /* \"#utility.yul\":11868:11874   */\n      dup10\n        /* \"#utility.yul\":11804:11882   */\n      tag_126\n      jump\t// in\n    tag_259:\n        /* \"#utility.yul\":11796:11882   */\n      swap1\n      pop\n        /* \"#utility.yul\":11930:11939   */\n      dup2\n        /* \"#utility.yul\":11924:11928   */\n      dup2\n        /* \"#utility.yul\":11920:11940   */\n      sub\n        /* \"#utility.yul\":11914:11917   */\n      0xe0\n        /* \"#utility.yul\":11903:11912   */\n      dup4\n        /* \"#utility.yul\":11899:11918   */\n      add\n        /* \"#utility.yul\":11892:11941   */\n      mstore\n        /* \"#utility.yul\":11958:12036   */\n      tag_260\n        /* \"#utility.yul\":12031:12035   */\n      dup2\n        /* \"#utility.yul\":12022:12028   */\n      dup9\n        /* \"#utility.yul\":11958:12036   */\n      tag_126\n      jump\t// in\n    tag_260:\n        /* \"#utility.yul\":11950:12036   */\n      swap1\n      pop\n        /* \"#utility.yul\":12084:12093   */\n      dup2\n        /* \"#utility.yul\":12078:12082   */\n      dup2\n        /* \"#utility.yul\":12074:12094   */\n      sub\n        /* \"#utility.yul\":12068:12071   */\n      0x0100\n        /* \"#utility.yul\":12057:12066   */\n      dup4\n        /* \"#utility.yul\":12053:12072   */\n      add\n        /* \"#utility.yul\":12046:12095   */\n      mstore\n        /* \"#utility.yul\":12112:12190   */\n      tag_261\n        /* \"#utility.yul\":12185:12189   */\n      dup2\n        /* \"#utility.yul\":12176:12182   */\n      dup8\n        /* \"#utility.yul\":12112:12190   */\n      tag_126\n      jump\t// in\n    tag_261:\n        /* \"#utility.yul\":12104:12190   */\n      swap1\n      pop\n        /* \"#utility.yul\":12238:12247   */\n      dup2\n        /* \"#utility.yul\":12232:12236   */\n      dup2\n        /* \"#utility.yul\":12228:12248   */\n      sub\n        /* \"#utility.yul\":12222:12225   */\n      0x0120\n        /* \"#utility.yul\":12211:12220   */\n      dup4\n        /* \"#utility.yul\":12207:12226   */\n      add\n        /* \"#utility.yul\":12200:12249   */\n      mstore\n        /* \"#utility.yul\":12266:12344   */\n      tag_262\n        /* \"#utility.yul\":12339:12343   */\n      dup2\n        /* \"#utility.yul\":12330:12336   */\n      dup7\n        /* \"#utility.yul\":12266:12344   */\n      tag_126\n      jump\t// in\n    tag_262:\n        /* \"#utility.yul\":12258:12344   */\n      swap1\n      pop\n        /* \"#utility.yul\":12392:12401   */\n      dup2\n        /* \"#utility.yul\":12386:12390   */\n      dup2\n        /* \"#utility.yul\":12382:12402   */\n      sub\n        /* \"#utility.yul\":12376:12379   */\n      0x0140\n        /* \"#utility.yul\":12365:12374   */\n      dup4\n        /* \"#utility.yul\":12361:12380   */\n      add\n        /* \"#utility.yul\":12354:12403   */\n      mstore\n        /* \"#utility.yul\":12420:12499   */\n      tag_263\n        /* \"#utility.yul\":12494:12498   */\n      dup2\n        /* \"#utility.yul\":12484:12491   */\n      dup6\n        /* \"#utility.yul\":12420:12499   */\n      tag_126\n      jump\t// in\n    tag_263:\n        /* \"#utility.yul\":12412:12499   */\n      swap1\n      pop\n        /* \"#utility.yul\":12547:12556   */\n      dup2\n        /* \"#utility.yul\":12541:12545   */\n      dup2\n        /* \"#utility.yul\":12537:12557   */\n      sub\n        /* \"#utility.yul\":12531:12534   */\n      0x0160\n        /* \"#utility.yul\":12520:12529   */\n      dup4\n        /* \"#utility.yul\":12516:12535   */\n      add\n        /* \"#utility.yul\":12509:12558   */\n      mstore\n        /* \"#utility.yul\":12575:12654   */\n      tag_264\n        /* \"#utility.yul\":12649:12653   */\n      dup2\n        /* \"#utility.yul\":12639:12646   */\n      dup5\n        /* \"#utility.yul\":12575:12654   */\n      tag_126\n      jump\t// in\n    tag_264:\n        /* \"#utility.yul\":12567:12654   */\n      swap1\n      pop\n        /* \"#utility.yul\":10306:12661   */\n      swap14\n      swap13\n      pop\n      pop\n      pop\n      pop\n      pop\n      pop\n      pop\n      pop\n      pop\n      pop\n      pop\n      pop\n      pop\n      jump\t// out\n        /* \"#utility.yul\":12667:12847   */\n    tag_127:\n        /* \"#utility.yul\":12715:12792   */\n      0x4e487b7100000000000000000000000000000000000000000000000000000000\n        /* \"#utility.yul\":12712:12713   */\n      0x00\n        /* \"#utility.yul\":12705:12793   */\n      mstore\n        /* \"#utility.yul\":12812:12816   */\n      0x22\n        /* \"#utility.yul\":12809:12810   */\n      0x04\n        /* \"#utility.yul\":12802:12817   */\n      mstore\n        /* \"#utility.yul\":12836:12840   */\n      0x24\n        /* \"#utility.yul\":12833:12834   */\n      0x00\n        /* \"#utility.yul\":12826:12841   */\n      revert\n        /* \"#utility.yul\":12853:13173   */\n    tag_48:\n        /* \"#utility.yul\":12897:12903   */\n      0x00\n        /* \"#utility.yul\":12934:12935   */\n      0x02\n        /* \"#utility.yul\":12928:12932   */\n      dup3\n        /* \"#utility.yul\":12924:12936   */\n      div\n        /* \"#utility.yul\":12914:12936   */\n      swap1\n      pop\n        /* \"#utility.yul\":12981:12982   */\n      0x01\n        /* \"#utility.yul\":12975:12979   */\n      dup3\n        /* \"#utility.yul\":12971:12983   */\n      and\n        /* \"#utility.yul\":13002:13020   */\n      dup1\n        /* \"#utility.yul\":12992:13073   */\n      tag_267\n      jumpi\n        /* \"#utility.yul\":13058:13062   */\n      0x7f\n        /* \"#utility.yul\":13050:13056   */\n      dup3\n        /* \"#utility.yul\":13046:13063   */\n      and\n        /* \"#utility.yul\":13036:13063   */\n      swap2\n      pop\n        /* \"#utility.yul\":12992:13073   */\n    tag_267:\n        /* \"#utility.yul\":13120:13122   */\n      0x20\n        /* \"#utility.yul\":13112:13118   */\n      dup3\n        /* \"#utility.yul\":13109:13123   */\n      lt\n        /* \"#utility.yul\":13089:13107   */\n      dup2\n        /* \"#utility.yul\":13086:13124   */\n      sub\n        /* \"#utility.yul\":13083:13167   */\n      tag_268\n      jumpi\n        /* \"#utility.yul\":13139:13157   */\n      tag_269\n      tag_127\n      jump\t// in\n    tag_269:\n        /* \"#utility.yul\":13083:13167   */\n    tag_268:\n        /* \"#utility.yul\":12904:13173   */\n      pop\n        /* \"#utility.yul\":12853:13173   */\n      swap2\n      swap1\n      pop\n      jump\t// out\n        /* \"#utility.yul\":13179:13320   */\n    tag_128:\n        /* \"#utility.yul\":13228:13232   */\n      0x00\n        /* \"#utility.yul\":13251:13254   */\n      dup2\n        /* \"#utility.yul\":13243:13254   */\n      swap1\n      pop\n        /* \"#utility.yul\":13274:13277   */\n      dup2\n        /* \"#utility.yul\":13271:13272   */\n      0x00\n        /* \"#utility.yul\":13264:13278   */\n      mstore\n        /* \"#utility.yul\":13308:13312   */\n      0x20\n        /* \"#utility.yul\":13305:13306   */\n      0x00\n        /* \"#utility.yul\":13295:13313   */\n      keccak256\n        /* \"#utility.yul\":13287:13313   */\n      swap1\n      pop\n        /* \"#utility.yul\":13179:13320   */\n      swap2\n      swap1\n      pop\n      jump\t// out\n        /* \"#utility.yul\":13326:13419   */\n    tag_129:\n        /* \"#utility.yul\":13363:13369   */\n      0x00\n        /* \"#utility.yul\":13410:13412   */\n      0x20\n        /* \"#utility.yul\":13405:13407   */\n      0x1f\n        /* \"#utility.yul\":13398:13403   */\n      dup4\n        /* \"#utility.yul\":13394:13408   */\n      add\n        /* \"#utility.yul\":13390:13413   */\n      div\n        /* \"#utility.yul\":13380:13413   */\n      swap1\n      pop\n        /* \"#utility.yul\":13326:13419   */\n      swap2\n      swap1\n      pop\n      jump\t// out\n        /* \"#utility.yul\":13425:13532   */\n    tag_130:\n        /* \"#utility.yul\":13469:13477   */\n      0x00\n        /* \"#utility.yul\":13519:13524   */\n      dup3\n        /* \"#utility.yul\":13513:13517   */\n      dup3\n        /* \"#utility.yul\":13509:13525   */\n      shl\n        /* \"#utility.yul\":13488:13525   */\n      swap1\n      pop\n        /* \"#utility.yul\":13425:13532   */\n      swap3\n      swap2\n      pop\n      pop\n      jump\t// out\n        /* \"#utility.yul\":13538:13931   */\n    tag_131:\n        /* \"#utility.yul\":13607:13613   */\n      0x00\n        /* \"#utility.yul\":13657:13658   */\n      0x08\n        /* \"#utility.yul\":13645:13655   */\n      dup4\n        /* \"#utility.yul\":13641:13659   */\n      mul\n        /* \"#utility.yul\":13680:13777   */\n      tag_274\n        /* \"#utility.yul\":13710:13776   */\n      0xffffffffffffffffffffffffffffffffffffffffffffffffffffffffffffffff\n        /* \"#utility.yul\":13699:13708   */\n      dup3\n        /* \"#utility.yul\":13680:13777   */\n      tag_130\n      jump\t// in\n    tag_274:\n        /* \"#utility.yul\":13798:13837   */\n      tag_275\n        /* \"#utility.yul\":13828:13836   */\n      dup7\n        /* \"#utility.yul\":13817:13826   */\n      dup4\n        /* \"#utility.yul\":13798:13837   */\n      tag_130\n      jump\t// in\n    tag_275:\n        /* \"#utility.yul\":13786:13837   */\n      swap6\n      pop\n        /* \"#utility.yul\":13870:13874   */\n      dup1\n        /* \"#utility.yul\":13866:13875   */\n      not\n        /* \"#utility.yul\":13859:13864   */\n      dup5\n        /* \"#utility.yul\":13855:13876   */\n      and\n        /* \"#utility.yul\":13846:13876   */\n      swap4\n      pop\n        /* \"#utility.yul\":13919:13923   */\n      dup1\n        /* \"#utility.yul\":13909:13917   */\n      dup7\n        /* \"#utility.yul\":13905:13924   */\n      and\n        /* \"#utility.yul\":13898:13903   */\n      dup5\n        /* \"#utility.yul\":13895:13925   */\n      or\n        /* \"#utility.yul\":13885:13925   */\n      swap3\n      pop\n        /* \"#utility.yul\":13614:13931   */\n      pop\n      pop\n        /* \"#utility.yul\":13538:13931   */\n      swap4\n      swap3\n      pop\n      pop\n      pop\n      jump\t// out\n        /* \"#utility.yul\":13937:13997   */\n    tag_132:\n        /* \"#utility.yul\":13965:13968   */\n      0x00\n        /* \"#utility.yul\":13986:13991   */\n      dup2\n        /* \"#utility.yul\":13979:13991   */\n      swap1\n      pop\n        /* \"#utility.yul\":13937:13997   */\n      swap2\n      swap1\n      pop\n      jump\t// out\n        /* \"#utility.yul\":14003:14145   */\n    tag_133:\n        /* \"#utility.yul\":14053:14062   */\n      0x00\n        /* \"#utility.yul\":14086:14139   */\n      tag_278\n        /* \"#utility.yul\":14104:14138   */\n      tag_279\n        /* \"#utility.yul\":14113:14137   */\n      tag_280\n        /* \"#utility.yul\":14131:14136   */\n      dup5\n        /* \"#utility.yul\":14113:14137   */\n      tag_98\n      jump\t// in\n    tag_280:\n        /* \"#utility.yul\":14104:14138   */\n      tag_132\n      jump\t// in\n    tag_279:\n        /* \"#utility.yul\":14086:14139   */\n      tag_98\n      jump\t// in\n    tag_278:\n        /* \"#utility.yul\":14073:14139   */\n      swap1\n      pop\n        /* \"#utility.yul\":14003:14145   */\n      swap2\n      swap1\n      pop\n      jump\t// out\n        /* \"#utility.yul\":14151:14226   */\n    tag_134:\n        /* \"#utility.yul\":14194:14197   */\n      0x00\n        /* \"#utility.yul\":14215:14220   */\n      dup2\n        /* \"#utility.yul\":14208:14220   */\n      swap1\n      pop\n        /* \"#utility.yul\":14151:14226   */\n      swap2\n      swap1\n      pop\n      jump\t// out\n        /* \"#utility.yul\":14232:14501   */\n    tag_135:\n        /* \"#utility.yul\":14342:14381   */\n      tag_283\n        /* \"#utility.yul\":14373:14380   */\n      dup4\n        /* \"#utility.yul\":14342:14381   */\n      tag_133\n      jump\t// in\n    tag_283:\n        /* \"#utility.yul\":14403:14494   */\n      tag_284\n        /* \"#utility.yul\":14452:14493   */\n      tag_285\n        /* \"#utility.yul\":14476:14492   */\n      dup3\n        /* \"#utility.yul\":14452:14493   */\n      tag_134\n      jump\t// in\n    tag_285:\n        /* \"#utility.yul\":14444:14450   */\n      dup5\n        /* \"#utility.yul\":14437:14441   */\n      dup5\n        /* \"#utility.yul\":14431:14442   */\n      sload\n        /* \"#utility.yul\":14403:14494   */\n      tag_131\n      jump\t// in\n    tag_284:\n        /* \"#utility.yul\":14397:14401   */\n      dup3\n        /* \"#utility.yul\":14390:14495   */\n      sstore\n        /* \"#utility.yul\":14308:14501   */\n      pop\n        /* \"#utility.yul\":14232:14501   */\n      pop\n      pop\n      pop\n      jump\t// out\n        /* \"#utility.yul\":14507:14580   */\n    tag_136:\n        /* \"#utility.yul\":14552:14555   */\n      0x00\n        /* \"#utility.yul\":14507:14580   */\n      swap1\n      jump\t// out\n        /* \"#utility.yul\":14586:14775   */\n    tag_137:\n        /* \"#utility.yul\":14663:14695   */\n      tag_288\n      tag_136\n      jump\t// in\n    tag_288:\n        /* \"#utility.yul\":14704:14769   */\n      tag_289\n        /* \"#utility.yul\":14762:14768   */\n      dup2\n        /* \"#utility.yul\":14754:14760   */\n      dup5\n        /* \"#utility.yul\":14748:14752   */\n      dup5\n        /* \"#utility.yul\":14704:14769   */\n      tag_135\n      jump\t// in\n    tag_289:\n        /* \"#utility.yul\":14639:14775   */\n      pop\n        /* \"#utility.yul\":14586:14775   */\n      pop\n      pop\n      jump\t// out\n        /* \"#utility.yul\":14781:14967   */\n    tag_138:\n        /* \"#utility.yul\":14841:14961   */\n    tag_291:\n        /* \"#utility.yul\":14858:14861   */\n      dup2\n        /* \"#utility.yul\":14851:14856   */\n      dup2\n        /* \"#utility.yul\":14848:14862   */\n      lt\n        /* \"#utility.yul\":14841:14961   */\n      iszero\n      tag_293\n      jumpi\n        /* \"#utility.yul\":14912:14951   */\n      tag_294\n        /* \"#utility.yul\":14949:14950   */\n      0x00\n        /* \"#utility.yul\":14942:14947   */\n      dup3\n        /* \"#utility.yul\":14912:14951   */\n      tag_137\n      jump\t// in\n    tag_294:\n        /* \"#utility.yul\":14885:14886   */\n      0x01\n        /* \"#utility.yul\":14878:14883   */\n      dup2\n        /* \"#utility.yul\":14874:14887   */\n      add\n        /* \"#utility.yul\":14865:14887   */\n      swap1\n      pop\n        /* \"#utility.yul\":14841:14961   */\n      jump(tag_291)\n    tag_293:\n        /* \"#utility.yul\":14781:14967   */\n      pop\n      pop\n      jump\t// out\n        /* \"#utility.yul\":14973:15516   */\n    tag_139:\n        /* \"#utility.yul\":15074:15076   */\n      0x1f\n        /* \"#utility.yul\":15069:15072   */\n      dup3\n        /* \"#utility.yul\":15066:15077   */\n      gt\n        /* \"#utility.yul\":15063:15509   */\n      iszero\n      tag_296\n      jumpi\n        /* \"#utility.yul\":15108:15146   */\n      tag_297\n        /* \"#utility.yul\":15140:15145   */\n      dup2\n        /* \"#utility.yul\":15108:15146   */\n      tag_128\n      jump\t// in\n    tag_297:\n        /* \"#utility.yul\":15192:15221   */\n      tag_298\n        /* \"#utility.yul\":15210:15220   */\n      dup5\n        /* \"#utility.yul\":15192:15221   */\n      tag_129\n      jump\t// in\n    tag_298:\n        /* \"#utility.yul\":15182:15190   */\n      dup2\n        /* \"#utility.yul\":15178:15222   */\n      add\n        /* \"#utility.yul\":15375:15377   */\n      0x20\n        /* \"#utility.yul\":15363:15373   */\n      dup6\n        /* \"#utility.yul\":15360:15378   */\n      lt\n        /* \"#utility.yul\":15357:15406   */\n      iszero\n      tag_299\n      jumpi\n        /* \"#utility.yul\":15396:15404   */\n      dup2\n        /* \"#utility.yul\":15381:15404   */\n      swap1\n      pop\n        /* \"#utility.yul\":15357:15406   */\n    tag_299:\n        /* \"#utility.yul\":15419:15499   */\n      tag_300\n        /* \"#utility.yul\":15475:15497   */\n      tag_301\n        /* \"#utility.yul\":15493:15496   */\n      dup6\n        /* \"#utility.yul\":15475:15497   */\n      tag_129\n      jump\t// in\n    tag_301:\n        /* \"#utility.yul\":15465:15473   */\n      dup4\n        /* \"#utility.yul\":15461:15498   */\n      add\n        /* \"#utility.yul\":15448:15459   */\n      dup3\n        /* \"#utility.yul\":15419:15499   */\n      tag_138\n      jump\t// in\n    tag_300:\n        /* \"#utility.yul\":15078:15509   */\n      pop\n      pop\n        /* \"#utility.yul\":15063:15509   */\n    tag_296:\n        /* \"#utility.yul\":14973:15516   */\n      pop\n      pop\n      pop\n      jump\t// out\n        /* \"#utility.yul\":15522:15639   */\n    tag_140:\n        /* \"#utility.yul\":15576:15584   */\n      0x00\n        /* \"#utility.yul\":15626:15631   */\n      dup3\n        /* \"#utility.yul\":15620:15624   */\n      dup3\n        /* \"#utility.yul\":15616:15632   */\n      shr\n        /* \"#utility.yul\":15595:15632   */\n      swap1\n      pop\n        /* \"#utility.yul\":15522:15639   */\n      swap3\n      swap2\n      pop\n      pop\n      jump\t// out\n        /* \"#utility.yul\":15645:15814   */\n    tag_141:\n        /* \"#utility.yul\":15689:15695   */\n      0x00\n        /* \"#utility.yul\":15722:15773   */\n      tag_304\n        /* \"#utility.yul\":15770:15771   */\n      0x00\n        /* \"#utility.yul\":15766:15772   */\n      not\n        /* \"#utility.yul\":15758:15763   */\n      dup5\n        /* \"#utility.yul\":15755:15756   */\n      0x08\n        /* \"#utility.yul\":15751:15764   */\n      mul\n        /* \"#utility.yul\":15722:15773   */\n      tag_140\n      jump\t// in\n    tag_304:\n        /* \"#utility.yul\":15718:15774   */\n      not\n        /* \"#utility.yul\":15803:15807   */\n      dup1\n        /* \"#utility.yul\":15797:15801   */\n      dup4\n        /* \"#utility.yul\":15793:15808   */\n      and\n        /* \"#utility.yul\":15783:15808   */\n      swap2\n      pop\n        /* \"#utility.yul\":15696:15814   */\n      pop\n        /* \"#utility.yul\":15645:15814   */\n      swap3\n      swap2\n      pop\n      pop\n      jump\t// out\n        /* \"#utility.yul\":15819:16114   */\n    tag_142:\n        /* \"#utility.yul\":15895:15899   */\n      0x00\n        /* \"#utility.yul\":16041:16070   */\n      tag_306\n        /* \"#utility.yul\":16066:16069   */\n      dup4\n        /* \"#utility.yul\":16060:16064   */\n      dup4\n        /* \"#utility.yul\":16041:16070   */\n      tag_141\n      jump\t// in\n    tag_306:\n        /* \"#utility.yul\":16033:16070   */\n      swap2\n      pop\n        /* \"#utility.yul\":16103:16106   */\n      dup3\n        /* \"#utility.yul\":16100:16101   */\n      0x02\n        /* \"#utility.yul\":16096:16107   */\n      mul\n        /* \"#utility.yul\":16090:16094   */\n      dup3\n        /* \"#utility.yul\":16087:16108   */\n      or\n        /* \"#utility.yul\":16079:16108   */\n      swap1\n      pop\n        /* \"#utility.yul\":15819:16114   */\n      swap3\n      swap2\n      pop\n      pop\n      jump\t// out\n        /* \"#utility.yul\":16119:17514   */\n    tag_35:\n        /* \"#utility.yul\":16236:16273   */\n      tag_308\n        /* \"#utility.yul\":16269:16272   */\n      dup3\n        /* \"#utility.yul\":16236:16273   */\n      tag_123\n      jump\t// in\n    tag_308:\n        /* \"#utility.yul\":16338:16356   */\n      0xffffffffffffffff\n        /* \"#utility.yul\":16330:16336   */\n      dup2\n        /* \"#utility.yul\":16327:16357   */\n      gt\n        /* \"#utility.yul\":16324:16380   */\n      iszero\n      tag_309\n      jumpi\n        /* \"#utility.yul\":16360:16378   */\n      tag_310\n      tag_105\n      jump\t// in\n    tag_310:\n        /* \"#utility.yul\":16324:16380   */\n    tag_309:\n        /* \"#utility.yul\":16404:16442   */\n      tag_311\n        /* \"#utility.yul\":16436:16440   */\n      dup3\n        /* \"#utility.yul\":16430:16441   */\n      sload\n        /* \"#utility.yul\":16404:16442   */\n      tag_48\n      jump\t// in\n    tag_311:\n        /* \"#utility.yul\":16489:16556   */\n      tag_312\n        /* \"#utility.yul\":16549:16555   */\n      dup3\n        /* \"#utility.yul\":16541:16547   */\n      dup3\n        /* \"#utility.yul\":16535:16539   */\n      dup6\n        /* \"#utility.yul\":16489:16556   */\n      tag_139\n      jump\t// in\n    tag_312:\n        /* \"#utility.yul\":16583:16584   */\n      0x00\n        /* \"#utility.yul\":16607:16611   */\n      0x20\n        /* \"#utility.yul\":16594:16611   */\n      swap1\n      pop\n        /* \"#utility.yul\":16639:16641   */\n      0x1f\n        /* \"#utility.yul\":16631:16637   */\n      dup4\n        /* \"#utility.yul\":16628:16642   */\n      gt\n        /* \"#utility.yul\":16656:16657   */\n      0x01\n        /* \"#utility.yul\":16651:17269   */\n      dup2\n      eq\n      tag_314\n      jumpi\n        /* \"#utility.yul\":17313:17314   */\n      0x00\n        /* \"#utility.yul\":17330:17336   */\n      dup5\n        /* \"#utility.yul\":17327:17404   */\n      iszero\n      tag_315\n      jumpi\n        /* \"#utility.yul\":17379:17388   */\n      dup3\n        /* \"#utility.yul\":17374:17377   */\n      dup8\n        /* \"#utility.yul\":17370:17389   */\n      add\n        /* \"#utility.yul\":17364:17390   */\n      mload\n        /* \"#utility.yul\":17355:17390   */\n      swap1\n      pop\n        /* \"#utility.yul\":17327:17404   */\n    tag_315:\n        /* \"#utility.yul\":17430:17497   */\n      tag_316\n        /* \"#utility.yul\":17490:17496   */\n      dup6\n        /* \"#utility.yul\":17483:17488   */\n      dup3\n        /* \"#utility.yul\":17430:17497   */\n      tag_142\n      jump\t// in\n    tag_316:\n        /* \"#utility.yul\":17424:17428   */\n      dup7\n        /* \"#utility.yul\":17417:17498   */\n      sstore\n        /* \"#utility.yul\":17286:17508   */\n      pop\n        /* \"#utility.yul\":16621:17508   */\n      jump(tag_313)\n        /* \"#utility.yul\":16651:17269   */\n    tag_314:\n        /* \"#utility.yul\":16703:16707   */\n      0x1f\n        /* \"#utility.yul\":16699:16708   */\n      not\n        /* \"#utility.yul\":16691:16697   */\n      dup5\n        /* \"#utility.yul\":16687:16709   */\n      and\n        /* \"#utility.yul\":16737:16774   */\n      tag_317\n        /* \"#utility.yul\":16769:16773   */\n      dup7\n        /* \"#utility.yul\":16737:16774   */\n      tag_128\n      jump\t// in\n    tag_317:\n        /* \"#utility.yul\":16796:16797   */\n      0x00\n        /* \"#utility.yul\":16810:17018   */\n    tag_318:\n        /* \"#utility.yul\":16824:16831   */\n      dup3\n        /* \"#utility.yul\":16821:16822   */\n      dup2\n        /* \"#utility.yul\":16818:16832   */\n      lt\n        /* \"#utility.yul\":16810:17018   */\n      iszero\n      tag_320\n      jumpi\n        /* \"#utility.yul\":16903:16912   */\n      dup5\n        /* \"#utility.yul\":16898:16901   */\n      dup10\n        /* \"#utility.yul\":16894:16913   */\n      add\n        /* \"#utility.yul\":16888:16914   */\n      mload\n        /* \"#utility.yul\":16880:16886   */\n      dup3\n        /* \"#utility.yul\":16873:16915   */\n      sstore\n        /* \"#utility.yul\":16954:16955   */\n      0x01\n        /* \"#utility.yul\":16946:16952   */\n      dup3\n        /* \"#utility.yul\":16942:16956   */\n      add\n        /* \"#utility.yul\":16932:16956   */\n      swap2\n      pop\n        /* \"#utility.yul\":17001:17003   */\n      0x20\n        /* \"#utility.yul\":16990:16999   */\n      dup6\n        /* \"#utility.yul\":16986:17004   */\n      add\n        /* \"#utility.yul\":16973:17004   */\n      swap5\n      pop\n        /* \"#utility.yul\":16847:16851   */\n      0x20\n        /* \"#utility.yul\":16844:16845   */\n      dup2\n        /* \"#utility.yul\":16840:16852   */\n      add\n        /* \"#utility.yul\":16835:16852   */\n      swap1\n      pop\n        /* \"#utility.yul\":16810:17018   */\n      jump(tag_318)\n    tag_320:\n        /* \"#utility.yul\":17046:17052   */\n      dup7\n        /* \"#utility.yul\":17037:17044   */\n      dup4\n        /* \"#utility.yul\":17034:17053   */\n      lt\n        /* \"#utility.yul\":17031:17210   */\n      iszero\n      tag_321\n      jumpi\n        /* \"#utility.yul\":17104:17113   */\n      dup5\n        /* \"#utility.yul\":17099:17102   */\n      dup10\n        /* \"#utility.yul\":17095:17114   */\n      add\n        /* \"#utility.yul\":17089:17115   */\n      mload\n        /* \"#utility.yul\":17147:17195   */\n      tag_322\n        /* \"#utility.yul\":17189:17193   */\n      0x1f\n        /* \"#utility.yul\":17181:17187   */\n      dup10\n        /* \"#utility.yul\":17177:17194   */\n      and\n        /* \"#utility.yul\":17166:17175   */\n      dup3\n        /* \"#utility.yul\":17147:17195   */\n      tag_141\n      jump\t// in\n    tag_322:\n        /* \"#utility.yul\":17139:17145   */\n      dup4\n        /* \"#utility.yul\":17132:17196   */\n      sstore\n        /* \"#utility.yul\":17054:17210   */\n      pop\n        /* \"#utility.yul\":17031:17210   */\n    tag_321:\n        /* \"#utility.yul\":17256:17257   */\n      0x01\n        /* \"#utility.yul\":17252:17253   */\n      0x02\n        /* \"#utility.yul\":17244:17250   */\n      dup9\n        /* \"#utility.yul\":17240:17254   */\n      mul\n        /* \"#utility.yul\":17236:17258   */\n      add\n        /* \"#utility.yul\":17230:17234   */\n      dup9\n        /* \"#utility.yul\":17223:17259   */\n      sstore\n        /* \"#utility.yul\":16658:17269   */\n      pop\n      pop\n      pop\n        /* \"#utility.yul\":16621:17508   */\n    tag_313:\n      pop\n        /* \"#utility.yul\":16211:17514   */\n      pop\n      pop\n      pop\n        /* \"#utility.yul\":16119:17514   */\n      pop\n      pop\n      jump\t// out\n\n    auxdata: 0xa26469706673582212209a304ac8fa86cd50b5d1e8fc16cd9f3d85a6c2582aa90d59a87da17200901f4564736f6c634300081a0033\n}\n",
				"bytecode": {
					"linkReferences": {},
					"object": "608060405268056bc75e2d631000005f555f600155348015601e575f80fd5b5061123f8061002c5f395ff3fe608060405260043610610049575f3560e01c806314e887e81461004d5780631b5ddd4f1461007757806373169cf8146100935780638da5cb5b146100bd578063e60f117f146100e7575b5f80fd5b348015610058575f80fd5b5061006161012e565b60405161006e919061090c565b60405180910390f35b610091600480360381019061008c9190610cdb565b610134565b005b34801561009e575f80fd5b506100a7610318565b6040516100b4919061090c565b60405180910390f35b3480156100c8575f80fd5b506100d161031d565b6040516100de9190610d61565b60405180910390f35b3480156100f2575f80fd5b5061010d60048036038101906101089190610da4565b610342565b6040516101259c9b9a99989796959493929190610e42565b60405180910390f35b60015481565b5f604051806101800160405280835f01518152602001836020015181526020018360400151815260200183606001518152602001836080015181526020018360a0015181526020018360c0015181526020018360e001518152602001836101000151815260200183610120015181526020018361014001518152602001836101600151815250905060035f3373ffffffffffffffffffffffffffffffffffffffff1673ffffffffffffffffffffffffffffffffffffffff1681526020019081526020015f2081908060018154018082558091505060019003905f5260205f2090600c02015f909190919091505f820151815f019081610233919061113a565b50602082015181600101556040820151816002019081610253919061113a565b50606082015181600301556080820151816004019081610273919061113a565b5060a0820151816005019081610289919061113a565b5060c082015181600601908161029f919061113a565b5060e08201518160070190816102b5919061113a565b506101008201518160080190816102cc919061113a565b506101208201518160090190816102e3919061113a565b5061014082015181600a0190816102fa919061113a565b5061016082015181600b019081610311919061113a565b5050505050565b5f5481565b60025f9054906101000a900473ffffffffffffffffffffffffffffffffffffffff1681565b6003602052815f5260405f20818154811061035b575f80fd5b905f5260205f2090600c02015f9150915050805f01805461037b90610f6d565b80601f01602080910402602001604051908101604052809291908181526020018280546103a790610f6d565b80156103f25780601f106103c9576101008083540402835291602001916103f2565b820191905f5260205f20905b8154815290600101906020018083116103d557829003601f168201915b50505050509080600101549080600201805461040d90610f6d565b80601f016020809104026020016040519081016040528092919081815260200182805461043990610f6d565b80156104845780601f1061045b57610100808354040283529160200191610484565b820191905f5260205f20905b81548152906001019060200180831161046757829003601f168201915b50505050509080600301549080600401805461049f90610f6d565b80601f01602080910402602001604051908101604052809291908181526020018280546104cb90610f6d565b80156105165780601f106104ed57610100808354040283529160200191610516565b820191905f5260205f20905b8154815290600101906020018083116104f957829003601f168201915b50505050509080600501805461052b90610f6d565b80601f016020809104026020016040519081016040528092919081815260200182805461055790610f6d565b80156105a25780601f10610579576101008083540402835291602001916105a2565b820191905f5260205f20905b81548152906001019060200180831161058557829003601f168201915b5050505050908060060180546105b790610f6d565b80601f01602080910402602001604051908101604052809291908181526020018280546105e390610f6d565b801561062e5780601f106106055761010080835404028352916020019161062e565b820191905f5260205f20905b81548152906001019060200180831161061157829003601f168201915b50505050509080600701805461064390610f6d565b80601f016020809104026020016040519081016040528092919081815260200182805461066f90610f6d565b80156106ba5780601f10610691576101008083540402835291602001916106ba565b820191905f5260205f20905b81548152906001019060200180831161069d57829003601f168201915b5050505050908060080180546106cf90610f6d565b80601f01602080910402602001604051908101604052809291908181526020018280546106fb90610f6d565b80156107465780601f1061071d57610100808354040283529160200191610746565b820191905f5260205f20905b81548152906001019060200180831161072957829003601f168201915b50505050509080600901805461075b90610f6d565b80601f016020809104026020016040519081016040528092919081815260200182805461078790610f6d565b80156107d25780601f106107a9576101008083540402835291602001916107d2565b820191905f5260205f20905b8154815290600101906020018083116107b557829003601f168201915b50505050509080600a0180546107e790610f6d565b80601f016020809104026020016040519081016040528092919081815260200182805461081390610f6d565b801561085e5780601f106108355761010080835404028352916020019161085e565b820191905f5260205f20905b81548152906001019060200180831161084157829003601f168201915b50505050509080600b01805461087390610f6d565b80601f016020809104026020016040519081016040528092919081815260200182805461089f90610f6d565b80156108ea5780601f106108c1576101008083540402835291602001916108ea565b820191905f5260205f20905b8154815290600101906020018083116108cd57829003601f168201915b505050505090508c565b5f819050919050565b610906816108f4565b82525050565b5f60208201905061091f5f8301846108fd565b92915050565b5f604051905090565b5f80fd5b5f80fd5b5f80fd5b5f601f19601f8301169050919050565b7f4e487b71000000000000000000000000000000000000000000000000000000005f52604160045260245ffd5b6109808261093a565b810181811067ffffffffffffffff8211171561099f5761099e61094a565b5b80604052505050565b5f6109b1610925565b90506109bd8282610977565b919050565b5f80fd5b5f80fd5b5f80fd5b5f67ffffffffffffffff8211156109e8576109e761094a565b5b6109f18261093a565b9050602081019050919050565b828183375f83830152505050565b5f610a1e610a19846109ce565b6109a8565b905082815260208101848484011115610a3a57610a396109ca565b5b610a458482856109fe565b509392505050565b5f82601f830112610a6157610a606109c6565b5b8135610a71848260208601610a0c565b91505092915050565b610a83816108f4565b8114610a8d575f80fd5b50565b5f81359050610a9e81610a7a565b92915050565b5f6101808284031215610aba57610ab9610936565b5b610ac56101806109a8565b90505f82013567ffffffffffffffff811115610ae457610ae36109c2565b5b610af084828501610a4d565b5f830152506020610b0384828501610a90565b602083015250604082013567ffffffffffffffff811115610b2757610b266109c2565b5b610b3384828501610a4d565b6040830152506060610b4784828501610a90565b606083015250608082013567ffffffffffffffff811115610b6b57610b6a6109c2565b5b610b7784828501610a4d565b60808301525060a082013567ffffffffffffffff811115610b9b57610b9a6109c2565b5b610ba784828501610a4d565b60a08301525060c082013567ffffffffffffffff811115610bcb57610bca6109c2565b5b610bd784828501610a4d565b60c08301525060e082013567ffffffffffffffff811115610bfb57610bfa6109c2565b5b610c0784828501610a4d565b60e08301525061010082013567ffffffffffffffff811115610c2c57610c2b6109c2565b5b610c3884828501610a4d565b6101008301525061012082013567ffffffffffffffff811115610c5e57610c5d6109c2565b5b610c6a84828501610a4d565b6101208301525061014082013567ffffffffffffffff811115610c9057610c8f6109c2565b5b610c9c84828501610a4d565b6101408301525061016082013567ffffffffffffffff811115610cc257610cc16109c2565b5b610cce84828501610a4d565b6101608301525092915050565b5f60208284031215610cf057610cef61092e565b5b5f82013567ffffffffffffffff811115610d0d57610d0c610932565b5b610d1984828501610aa4565b91505092915050565b5f73ffffffffffffffffffffffffffffffffffffffff82169050919050565b5f610d4b82610d22565b9050919050565b610d5b81610d41565b82525050565b5f602082019050610d745f830184610d52565b92915050565b610d8381610d41565b8114610d8d575f80fd5b50565b5f81359050610d9e81610d7a565b92915050565b5f8060408385031215610dba57610db961092e565b5b5f610dc785828601610d90565b9250506020610dd885828601610a90565b9150509250929050565b5f81519050919050565b5f82825260208201905092915050565b8281835e5f83830152505050565b5f610e1482610de2565b610e1e8185610dec565b9350610e2e818560208601610dfc565b610e378161093a565b840191505092915050565b5f610180820190508181035f830152610e5b818f610e0a565b9050610e6a602083018e6108fd565b8181036040830152610e7c818d610e0a565b9050610e8b606083018c6108fd565b8181036080830152610e9d818b610e0a565b905081810360a0830152610eb1818a610e0a565b905081810360c0830152610ec58189610e0a565b905081810360e0830152610ed98188610e0a565b9050818103610100830152610eee8187610e0a565b9050818103610120830152610f038186610e0a565b9050818103610140830152610f188185610e0a565b9050818103610160830152610f2d8184610e0a565b90509d9c50505050505050505050505050565b7f4e487b71000000000000000000000000000000000000000000000000000000005f52602260045260245ffd5b5f6002820490506001821680610f8457607f821691505b602082108103610f9757610f96610f40565b5b50919050565b5f819050815f5260205f209050919050565b5f6020601f8301049050919050565b5f82821b905092915050565b5f60088302610ff97fffffffffffffffffffffffffffffffffffffffffffffffffffffffffffffffff82610fbe565b6110038683610fbe565b95508019841693508086168417925050509392505050565b5f819050919050565b5f61103e611039611034846108f4565b61101b565b6108f4565b9050919050565b5f819050919050565b61105783611024565b61106b61106382611045565b848454610fca565b825550505050565b5f90565b61107f611073565b61108a81848461104e565b505050565b5b818110156110ad576110a25f82611077565b600181019050611090565b5050565b601f8211156110f2576110c381610f9d565b6110cc84610faf565b810160208510156110db578190505b6110ef6110e785610faf565b83018261108f565b50505b505050565b5f82821c905092915050565b5f6111125f19846008026110f7565b1980831691505092915050565b5f61112a8383611103565b9150826002028217905092915050565b61114382610de2565b67ffffffffffffffff81111561115c5761115b61094a565b5b6111668254610f6d565b6111718282856110b1565b5f60209050601f8311600181146111a2575f8415611190578287015190505b61119a858261111f565b865550611201565b601f1984166111b086610f9d565b5f5b828110156111d7578489015182556001820191506020850194506020810190506111b2565b868310156111f457848901516111f0601f891682611103565b8355505b6001600288020188555050505b50505050505056fea26469706673582212209a304ac8fa86cd50b5d1e8fc16cd9f3d85a6c2582aa90d59a87da17200901f4564736f6c634300081a0033",
					"opcodes": "PUSH1 0x80 PUSH1 0x40 MSTORE PUSH9 0x56BC75E2D63100000 PUSH0 SSTORE PUSH0 PUSH1 0x1 SSTORE CALLVALUE DUP1 ISZERO PUSH1 0x1E JUMPI PUSH0 DUP1 REVERT JUMPDEST POP PUSH2 0x123F DUP1 PUSH2 0x2C PUSH0 CODECOPY PUSH0 RETURN INVALID PUSH1 0x80 PUSH1 0x40 MSTORE PUSH1 0x4 CALLDATASIZE LT PUSH2 0x49 JUMPI PUSH0 CALLDATALOAD PUSH1 0xE0 SHR DUP1 PUSH4 0x14E887E8 EQ PUSH2 0x4D JUMPI DUP1 PUSH4 0x1B5DDD4F EQ PUSH2 0x77 JUMPI DUP1 PUSH4 0x73169CF8 EQ PUSH2 0x93 JUMPI DUP1 PUSH4 0x8DA5CB5B EQ PUSH2 0xBD JUMPI DUP1 PUSH4 0xE60F117F EQ PUSH2 0xE7 JUMPI JUMPDEST PUSH0 DUP1 REVERT JUMPDEST CALLVALUE DUP1 ISZERO PUSH2 0x58 JUMPI PUSH0 DUP1 REVERT JUMPDEST POP PUSH2 0x61 PUSH2 0x12E JUMP JUMPDEST PUSH1 0x40 MLOAD PUSH2 0x6E SWAP2 SWAP1 PUSH2 0x90C JUMP JUMPDEST PUSH1 0x40 MLOAD DUP1 SWAP2 SUB SWAP1 RETURN JUMPDEST PUSH2 0x91 PUSH1 0x4 DUP1 CALLDATASIZE SUB DUP2 ADD SWAP1 PUSH2 0x8C SWAP2 SWAP1 PUSH2 0xCDB JUMP JUMPDEST PUSH2 0x134 JUMP JUMPDEST STOP JUMPDEST CALLVALUE DUP1 ISZERO PUSH2 0x9E JUMPI PUSH0 DUP1 REVERT JUMPDEST POP PUSH2 0xA7 PUSH2 0x318 JUMP JUMPDEST PUSH1 0x40 MLOAD PUSH2 0xB4 SWAP2 SWAP1 PUSH2 0x90C JUMP JUMPDEST PUSH1 0x40 MLOAD DUP1 SWAP2 SUB SWAP1 RETURN JUMPDEST CALLVALUE DUP1 ISZERO PUSH2 0xC8 JUMPI PUSH0 DUP1 REVERT JUMPDEST POP PUSH2 0xD1 PUSH2 0x31D JUMP JUMPDEST PUSH1 0x40 MLOAD PUSH2 0xDE SWAP2 SWAP1 PUSH2 0xD61 JUMP JUMPDEST PUSH1 0x40 MLOAD DUP1 SWAP2 SUB SWAP1 RETURN JUMPDEST CALLVALUE DUP1 ISZERO PUSH2 0xF2 JUMPI PUSH0 DUP1 REVERT JUMPDEST POP PUSH2 0x10D PUSH1 0x4 DUP1 CALLDATASIZE SUB DUP2 ADD SWAP1 PUSH2 0x108 SWAP2 SWAP1 PUSH2 0xDA4 JUMP JUMPDEST PUSH2 0x342 JUMP JUMPDEST PUSH1 0x40 MLOAD PUSH2 0x125 SWAP13 SWAP12 SWAP11 SWAP10 SWAP9 SWAP8 SWAP7 SWAP6 SWAP5 SWAP4 SWAP3 SWAP2 SWAP1 PUSH2 0xE42 JUMP JUMPDEST PUSH1 0x40 MLOAD DUP1 SWAP2 SUB SWAP1 RETURN JUMPDEST PUSH1 0x1 SLOAD DUP2 JUMP JUMPDEST PUSH0 PUSH1 0x40 MLOAD DUP1 PUSH2 0x180 ADD PUSH1 0x40 MSTORE DUP1 DUP4 PUSH0 ADD MLOAD DUP2 MSTORE PUSH1 0x20 ADD DUP4 PUSH1 0x20 ADD MLOAD DUP2 MSTORE PUSH1 0x20 ADD DUP4 PUSH1 0x40 ADD MLOAD DUP2 MSTORE PUSH1 0x20 ADD DUP4 PUSH1 0x60 ADD MLOAD DUP2 MSTORE PUSH1 0x20 ADD DUP4 PUSH1 0x80 ADD MLOAD DUP2 MSTORE PUSH1 0x20 ADD DUP4 PUSH1 0xA0 ADD MLOAD DUP2 MSTORE PUSH1 0x20 ADD DUP4 PUSH1 0xC0 ADD MLOAD DUP2 MSTORE PUSH1 0x20 ADD DUP4 PUSH1 0xE0 ADD MLOAD DUP2 MSTORE PUSH1 0x20 ADD DUP4 PUSH2 0x100 ADD MLOAD DUP2 MSTORE PUSH1 0x20 ADD DUP4 PUSH2 0x120 ADD MLOAD DUP2 MSTORE PUSH1 0x20 ADD DUP4 PUSH2 0x140 ADD MLOAD DUP2 MSTORE PUSH1 0x20 ADD DUP4 PUSH2 0x160 ADD MLOAD DUP2 MSTORE POP SWAP1 POP PUSH1 0x3 PUSH0 CALLER PUSH20 0xFFFFFFFFFFFFFFFFFFFFFFFFFFFFFFFFFFFFFFFF AND PUSH20 0xFFFFFFFFFFFFFFFFFFFFFFFFFFFFFFFFFFFFFFFF AND DUP2 MSTORE PUSH1 0x20 ADD SWAP1 DUP2 MSTORE PUSH1 0x20 ADD PUSH0 KECCAK256 DUP2 SWAP1 DUP1 PUSH1 0x1 DUP2 SLOAD ADD DUP1 DUP3 SSTORE DUP1 SWAP2 POP POP PUSH1 0x1 SWAP1 SUB SWAP1 PUSH0 MSTORE PUSH1 0x20 PUSH0 KECCAK256 SWAP1 PUSH1 0xC MUL ADD PUSH0 SWAP1 SWAP2 SWAP1 SWAP2 SWAP1 SWAP2 POP PUSH0 DUP3 ADD MLOAD DUP2 PUSH0 ADD SWAP1 DUP2 PUSH2 0x233 SWAP2 SWAP1 PUSH2 0x113A JUMP JUMPDEST POP PUSH1 0x20 DUP3 ADD MLOAD DUP2 PUSH1 0x1 ADD SSTORE PUSH1 0x40 DUP3 ADD MLOAD DUP2 PUSH1 0x2 ADD SWAP1 DUP2 PUSH2 0x253 SWAP2 SWAP1 PUSH2 0x113A JUMP JUMPDEST POP PUSH1 0x60 DUP3 ADD MLOAD DUP2 PUSH1 0x3 ADD SSTORE PUSH1 0x80 DUP3 ADD MLOAD DUP2 PUSH1 0x4 ADD SWAP1 DUP2 PUSH2 0x273 SWAP2 SWAP1 PUSH2 0x113A JUMP JUMPDEST POP PUSH1 0xA0 DUP3 ADD MLOAD DUP2 PUSH1 0x5 ADD SWAP1 DUP2 PUSH2 0x289 SWAP2 SWAP1 PUSH2 0x113A JUMP JUMPDEST POP PUSH1 0xC0 DUP3 ADD MLOAD DUP2 PUSH1 0x6 ADD SWAP1 DUP2 PUSH2 0x29F SWAP2 SWAP1 PUSH2 0x113A JUMP JUMPDEST POP PUSH1 0xE0 DUP3 ADD MLOAD DUP2 PUSH1 0x7 ADD SWAP1 DUP2 PUSH2 0x2B5 SWAP2 SWAP1 PUSH2 0x113A JUMP JUMPDEST POP PUSH2 0x100 DUP3 ADD MLOAD DUP2 PUSH1 0x8 ADD SWAP1 DUP2 PUSH2 0x2CC SWAP2 SWAP1 PUSH2 0x113A JUMP JUMPDEST POP PUSH2 0x120 DUP3 ADD MLOAD DUP2 PUSH1 0x9 ADD SWAP1 DUP2 PUSH2 0x2E3 SWAP2 SWAP1 PUSH2 0x113A JUMP JUMPDEST POP PUSH2 0x140 DUP3 ADD MLOAD DUP2 PUSH1 0xA ADD SWAP1 DUP2 PUSH2 0x2FA SWAP2 SWAP1 PUSH2 0x113A JUMP JUMPDEST POP PUSH2 0x160 DUP3 ADD MLOAD DUP2 PUSH1 0xB ADD SWAP1 DUP2 PUSH2 0x311 SWAP2 SWAP1 PUSH2 0x113A JUMP JUMPDEST POP POP POP POP POP JUMP JUMPDEST PUSH0 SLOAD DUP2 JUMP JUMPDEST PUSH1 0x2 PUSH0 SWAP1 SLOAD SWAP1 PUSH2 0x100 EXP SWAP1 DIV PUSH20 0xFFFFFFFFFFFFFFFFFFFFFFFFFFFFFFFFFFFFFFFF AND DUP2 JUMP JUMPDEST PUSH1 0x3 PUSH1 0x20 MSTORE DUP2 PUSH0 MSTORE PUSH1 0x40 PUSH0 KECCAK256 DUP2 DUP2 SLOAD DUP2 LT PUSH2 0x35B JUMPI PUSH0 DUP1 REVERT JUMPDEST SWAP1 PUSH0 MSTORE PUSH1 0x20 PUSH0 KECCAK256 SWAP1 PUSH1 0xC MUL ADD PUSH0 SWAP2 POP SWAP2 POP POP DUP1 PUSH0 ADD DUP1 SLOAD PUSH2 0x37B SWAP1 PUSH2 0xF6D JUMP JUMPDEST DUP1 PUSH1 0x1F ADD PUSH1 0x20 DUP1 SWAP2 DIV MUL PUSH1 0x20 ADD PUSH1 0x40 MLOAD SWAP1 DUP2 ADD PUSH1 0x40 MSTORE DUP1 SWAP3 SWAP2 SWAP1 DUP2 DUP2 MSTORE PUSH1 0x20 ADD DUP3 DUP1 SLOAD PUSH2 0x3A7 SWAP1 PUSH2 0xF6D JUMP JUMPDEST DUP1 ISZERO PUSH2 0x3F2 JUMPI DUP1 PUSH1 0x1F LT PUSH2 0x3C9 JUMPI PUSH2 0x100 DUP1 DUP4 SLOAD DIV MUL DUP4 MSTORE SWAP2 PUSH1 0x20 ADD SWAP2 PUSH2 0x3F2 JUMP JUMPDEST DUP3 ADD SWAP2 SWAP1 PUSH0 MSTORE PUSH1 0x20 PUSH0 KECCAK256 SWAP1 JUMPDEST DUP2 SLOAD DUP2 MSTORE SWAP1 PUSH1 0x1 ADD SWAP1 PUSH1 0x20 ADD DUP1 DUP4 GT PUSH2 0x3D5 JUMPI DUP3 SWAP1 SUB PUSH1 0x1F AND DUP3 ADD SWAP2 JUMPDEST POP POP POP POP POP SWAP1 DUP1 PUSH1 0x1 ADD SLOAD SWAP1 DUP1 PUSH1 0x2 ADD DUP1 SLOAD PUSH2 0x40D SWAP1 PUSH2 0xF6D JUMP JUMPDEST DUP1 PUSH1 0x1F ADD PUSH1 0x20 DUP1 SWAP2 DIV MUL PUSH1 0x20 ADD PUSH1 0x40 MLOAD SWAP1 DUP2 ADD PUSH1 0x40 MSTORE DUP1 SWAP3 SWAP2 SWAP1 DUP2 DUP2 MSTORE PUSH1 0x20 ADD DUP3 DUP1 SLOAD PUSH2 0x439 SWAP1 PUSH2 0xF6D JUMP JUMPDEST DUP1 ISZERO PUSH2 0x484 JUMPI DUP1 PUSH1 0x1F LT PUSH2 0x45B JUMPI PUSH2 0x100 DUP1 DUP4 SLOAD DIV MUL DUP4 MSTORE SWAP2 PUSH1 0x20 ADD SWAP2 PUSH2 0x484 JUMP JUMPDEST DUP3 ADD SWAP2 SWAP1 PUSH0 MSTORE PUSH1 0x20 PUSH0 KECCAK256 SWAP1 JUMPDEST DUP2 SLOAD DUP2 MSTORE SWAP1 PUSH1 0x1 ADD SWAP1 PUSH1 0x20 ADD DUP1 DUP4 GT PUSH2 0x467 JUMPI DUP3 SWAP1 SUB PUSH1 0x1F AND DUP3 ADD SWAP2 JUMPDEST POP POP POP POP POP SWAP1 DUP1 PUSH1 0x3 ADD SLOAD SWAP1 DUP1 PUSH1 0x4 ADD DUP1 SLOAD PUSH2 0x49F SWAP1 PUSH2 0xF6D JUMP JUMPDEST DUP1 PUSH1 0x1F ADD PUSH1 0x20 DUP1 SWAP2 DIV MUL PUSH1 0x20 ADD PUSH1 0x40 MLOAD SWAP1 DUP2 ADD PUSH1 0x40 MSTORE DUP1 SWAP3 SWAP2 SWAP1 DUP2 DUP2 MSTORE PUSH1 0x20 ADD DUP3 DUP1 SLOAD PUSH2 0x4CB SWAP1 PUSH2 0xF6D JUMP JUMPDEST DUP1 ISZERO PUSH2 0x516 JUMPI DUP1 PUSH1 0x1F LT PUSH2 0x4ED JUMPI PUSH2 0x100 DUP1 DUP4 SLOAD DIV MUL DUP4 MSTORE SWAP2 PUSH1 0x20 ADD SWAP2 PUSH2 0x516 JUMP JUMPDEST DUP3 ADD SWAP2 SWAP1 PUSH0 MSTORE PUSH1 0x20 PUSH0 KECCAK256 SWAP1 JUMPDEST DUP2 SLOAD DUP2 MSTORE SWAP1 PUSH1 0x1 ADD SWAP1 PUSH1 0x20 ADD DUP1 DUP4 GT PUSH2 0x4F9 JUMPI DUP3 SWAP1 SUB PUSH1 0x1F AND DUP3 ADD SWAP2 JUMPDEST POP POP POP POP POP SWAP1 DUP1 PUSH1 0x5 ADD DUP1 SLOAD PUSH2 0x52B SWAP1 PUSH2 0xF6D JUMP JUMPDEST DUP1 PUSH1 0x1F ADD PUSH1 0x20 DUP1 SWAP2 DIV MUL PUSH1 0x20 ADD PUSH1 0x40 MLOAD SWAP1 DUP2 ADD PUSH1 0x40 MSTORE DUP1 SWAP3 SWAP2 SWAP1 DUP2 DUP2 MSTORE PUSH1 0x20 ADD DUP3 DUP1 SLOAD PUSH2 0x557 SWAP1 PUSH2 0xF6D JUMP JUMPDEST DUP1 ISZERO PUSH2 0x5A2 JUMPI DUP1 PUSH1 0x1F LT PUSH2 0x579 JUMPI PUSH2 0x100 DUP1 DUP4 SLOAD DIV MUL DUP4 MSTORE SWAP2 PUSH1 0x20 ADD SWAP2 PUSH2 0x5A2 JUMP JUMPDEST DUP3 ADD SWAP2 SWAP1 PUSH0 MSTORE PUSH1 0x20 PUSH0 KECCAK256 SWAP1 JUMPDEST DUP2 SLOAD DUP2 MSTORE SWAP1 PUSH1 0x1 ADD SWAP1 PUSH1 0x20 ADD DUP1 DUP4 GT PUSH2 0x585 JUMPI DUP3 SWAP1 SUB PUSH1 0x1F AND DUP3 ADD SWAP2 JUMPDEST POP POP POP POP POP SWAP1 DUP1 PUSH1 0x6 ADD DUP1 SLOAD PUSH2 0x5B7 SWAP1 PUSH2 0xF6D JUMP JUMPDEST DUP1 PUSH1 0x1F ADD PUSH1 0x20 DUP1 SWAP2 DIV MUL PUSH1 0x20 ADD PUSH1 0x40 MLOAD SWAP1 DUP2 ADD PUSH1 0x40 MSTORE DUP1 SWAP3 SWAP2 SWAP1 DUP2 DUP2 MSTORE PUSH1 0x20 ADD DUP3 DUP1 SLOAD PUSH2 0x5E3 SWAP1 PUSH2 0xF6D JUMP JUMPDEST DUP1 ISZERO PUSH2 0x62E JUMPI DUP1 PUSH1 0x1F LT PUSH2 0x605 JUMPI PUSH2 0x100 DUP1 DUP4 SLOAD DIV MUL DUP4 MSTORE SWAP2 PUSH1 0x20 ADD SWAP2 PUSH2 0x62E JUMP JUMPDEST DUP3 ADD SWAP2 SWAP1 PUSH0 MSTORE PUSH1 0x20 PUSH0 KECCAK256 SWAP1 JUMPDEST DUP2 SLOAD DUP2 MSTORE SWAP1 PUSH1 0x1 ADD SWAP1 PUSH1 0x20 ADD DUP1 DUP4 GT PUSH2 0x611 JUMPI DUP3 SWAP1 SUB PUSH1 0x1F AND DUP3 ADD SWAP2 JUMPDEST POP POP POP POP POP SWAP1 DUP1 PUSH1 0x7 ADD DUP1 SLOAD PUSH2 0x643 SWAP1 PUSH2 0xF6D JUMP JUMPDEST DUP1 PUSH1 0x1F ADD PUSH1 0x20 DUP1 SWAP2 DIV MUL PUSH1 0x20 ADD PUSH1 0x40 MLOAD SWAP1 DUP2 ADD PUSH1 0x40 MSTORE DUP1 SWAP3 SWAP2 SWAP1 DUP2 DUP2 MSTORE PUSH1 0x20 ADD DUP3 DUP1 SLOAD PUSH2 0x66F SWAP1 PUSH2 0xF6D JUMP JUMPDEST DUP1 ISZERO PUSH2 0x6BA JUMPI DUP1 PUSH1 0x1F LT PUSH2 0x691 JUMPI PUSH2 0x100 DUP1 DUP4 SLOAD DIV MUL DUP4 MSTORE SWAP2 PUSH1 0x20 ADD SWAP2 PUSH2 0x6BA JUMP JUMPDEST DUP3 ADD SWAP2 SWAP1 PUSH0 MSTORE PUSH1 0x20 PUSH0 KECCAK256 SWAP1 JUMPDEST DUP2 SLOAD DUP2 MSTORE SWAP1 PUSH1 0x1 ADD SWAP1 PUSH1 0x20 ADD DUP1 DUP4 GT PUSH2 0x69D JUMPI DUP3 SWAP1 SUB PUSH1 0x1F AND DUP3 ADD SWAP2 JUMPDEST POP POP POP POP POP SWAP1 DUP1 PUSH1 0x8 ADD DUP1 SLOAD PUSH2 0x6CF SWAP1 PUSH2 0xF6D JUMP JUMPDEST DUP1 PUSH1 0x1F ADD PUSH1 0x20 DUP1 SWAP2 DIV MUL PUSH1 0x20 ADD PUSH1 0x40 MLOAD SWAP1 DUP2 ADD PUSH1 0x40 MSTORE DUP1 SWAP3 SWAP2 SWAP1 DUP2 DUP2 MSTORE PUSH1 0x20 ADD DUP3 DUP1 SLOAD PUSH2 0x6FB SWAP1 PUSH2 0xF6D JUMP JUMPDEST DUP1 ISZERO PUSH2 0x746 JUMPI DUP1 PUSH1 0x1F LT PUSH2 0x71D JUMPI PUSH2 0x100 DUP1 DUP4 SLOAD DIV MUL DUP4 MSTORE SWAP2 PUSH1 0x20 ADD SWAP2 PUSH2 0x746 JUMP JUMPDEST DUP3 ADD SWAP2 SWAP1 PUSH0 MSTORE PUSH1 0x20 PUSH0 KECCAK256 SWAP1 JUMPDEST DUP2 SLOAD DUP2 MSTORE SWAP1 PUSH1 0x1 ADD SWAP1 PUSH1 0x20 ADD DUP1 DUP4 GT PUSH2 0x729 JUMPI DUP3 SWAP1 SUB PUSH1 0x1F AND DUP3 ADD SWAP2 JUMPDEST POP POP POP POP POP SWAP1 DUP1 PUSH1 0x9 ADD DUP1 SLOAD PUSH2 0x75B SWAP1 PUSH2 0xF6D JUMP JUMPDEST DUP1 PUSH1 0x1F ADD PUSH1 0x20 DUP1 SWAP2 DIV MUL PUSH1 0x20 ADD PUSH1 0x40 MLOAD SWAP1 DUP2 ADD PUSH1 0x40 MSTORE DUP1 SWAP3 SWAP2 SWAP1 DUP2 DUP2 MSTORE PUSH1 0x20 ADD DUP3 DUP1 SLOAD PUSH2 0x787 SWAP1 PUSH2 0xF6D JUMP JUMPDEST DUP1 ISZERO PUSH2 0x7D2 JUMPI DUP1 PUSH1 0x1F LT PUSH2 0x7A9 JUMPI PUSH2 0x100 DUP1 DUP4 SLOAD DIV MUL DUP4 MSTORE SWAP2 PUSH1 0x20 ADD SWAP2 PUSH2 0x7D2 JUMP JUMPDEST DUP3 ADD SWAP2 SWAP1 PUSH0 MSTORE PUSH1 0x20 PUSH0 KECCAK256 SWAP1 JUMPDEST DUP2 SLOAD DUP2 MSTORE SWAP1 PUSH1 0x1 ADD SWAP1 PUSH1 0x20 ADD DUP1 DUP4 GT PUSH2 0x7B5 JUMPI DUP3 SWAP1 SUB PUSH1 0x1F AND DUP3 ADD SWAP2 JUMPDEST POP POP POP POP POP SWAP1 DUP1 PUSH1 0xA ADD DUP1 SLOAD PUSH2 0x7E7 SWAP1 PUSH2 0xF6D JUMP JUMPDEST DUP1 PUSH1 0x1F ADD PUSH1 0x20 DUP1 SWAP2 DIV MUL PUSH1 0x20 ADD PUSH1 0x40 MLOAD SWAP1 DUP2 ADD PUSH1 0x40 MSTORE DUP1 SWAP3 SWAP2 SWAP1 DUP2 DUP2 MSTORE PUSH1 0x20 ADD DUP3 DUP1 SLOAD PUSH2 0x813 SWAP1 PUSH2 0xF6D JUMP JUMPDEST DUP1 ISZERO PUSH2 0x85E JUMPI DUP1 PUSH1 0x1F LT PUSH2 0x835 JUMPI PUSH2 0x100 DUP1 DUP4 SLOAD DIV MUL DUP4 MSTORE SWAP2 PUSH1 0x20 ADD SWAP2 PUSH2 0x85E JUMP JUMPDEST DUP3 ADD SWAP2 SWAP1 PUSH0 MSTORE PUSH1 0x20 PUSH0 KECCAK256 SWAP1 JUMPDEST DUP2 SLOAD DUP2 MSTORE SWAP1 PUSH1 0x1 ADD SWAP1 PUSH1 0x20 ADD DUP1 DUP4 GT PUSH2 0x841 JUMPI DUP3 SWAP1 SUB PUSH1 0x1F AND DUP3 ADD SWAP2 JUMPDEST POP POP POP POP POP SWAP1 DUP1 PUSH1 0xB ADD DUP1 SLOAD PUSH2 0x873 SWAP1 PUSH2 0xF6D JUMP JUMPDEST DUP1 PUSH1 0x1F ADD PUSH1 0x20 DUP1 SWAP2 DIV MUL PUSH1 0x20 ADD PUSH1 0x40 MLOAD SWAP1 DUP2 ADD PUSH1 0x40 MSTORE DUP1 SWAP3 SWAP2 SWAP1 DUP2 DUP2 MSTORE PUSH1 0x20 ADD DUP3 DUP1 SLOAD PUSH2 0x89F SWAP1 PUSH2 0xF6D JUMP JUMPDEST DUP1 ISZERO PUSH2 0x8EA JUMPI DUP1 PUSH1 0x1F LT PUSH2 0x8C1 JUMPI PUSH2 0x100 DUP1 DUP4 SLOAD DIV MUL DUP4 MSTORE SWAP2 PUSH1 0x20 ADD SWAP2 PUSH2 0x8EA JUMP JUMPDEST DUP3 ADD SWAP2 SWAP1 PUSH0 MSTORE PUSH1 0x20 PUSH0 KECCAK256 SWAP1 JUMPDEST DUP2 SLOAD DUP2 MSTORE SWAP1 PUSH1 0x1 ADD SWAP1 PUSH1 0x20 ADD DUP1 DUP4 GT PUSH2 0x8CD JUMPI DUP3 SWAP1 SUB PUSH1 0x1F AND DUP3 ADD SWAP2 JUMPDEST POP POP POP POP POP SWAP1 POP DUP13 JUMP JUMPDEST PUSH0 DUP2 SWAP1 POP SWAP2 SWAP1 POP JUMP JUMPDEST PUSH2 0x906 DUP2 PUSH2 0x8F4 JUMP JUMPDEST DUP3 MSTORE POP POP JUMP JUMPDEST PUSH0 PUSH1 0x20 DUP3 ADD SWAP1 POP PUSH2 0x91F PUSH0 DUP4 ADD DUP5 PUSH2 0x8FD JUMP JUMPDEST SWAP3 SWAP2 POP POP JUMP JUMPDEST PUSH0 PUSH1 0x40 MLOAD SWAP1 POP SWAP1 JUMP JUMPDEST PUSH0 DUP1 REVERT JUMPDEST PUSH0 DUP1 REVERT JUMPDEST PUSH0 DUP1 REVERT JUMPDEST PUSH0 PUSH1 0x1F NOT PUSH1 0x1F DUP4 ADD AND SWAP1 POP SWAP2 SWAP1 POP JUMP JUMPDEST PUSH32 0x4E487B7100000000000000000000000000000000000000000000000000000000 PUSH0 MSTORE PUSH1 0x41 PUSH1 0x4 MSTORE PUSH1 0x24 PUSH0 REVERT JUMPDEST PUSH2 0x980 DUP3 PUSH2 0x93A JUMP JUMPDEST DUP2 ADD DUP2 DUP2 LT PUSH8 0xFFFFFFFFFFFFFFFF DUP3 GT OR ISZERO PUSH2 0x99F JUMPI PUSH2 0x99E PUSH2 0x94A JUMP JUMPDEST JUMPDEST DUP1 PUSH1 0x40 MSTORE POP POP POP JUMP JUMPDEST PUSH0 PUSH2 0x9B1 PUSH2 0x925 JUMP JUMPDEST SWAP1 POP PUSH2 0x9BD DUP3 DUP3 PUSH2 0x977 JUMP JUMPDEST SWAP2 SWAP1 POP JUMP JUMPDEST PUSH0 DUP1 REVERT JUMPDEST PUSH0 DUP1 REVERT JUMPDEST PUSH0 DUP1 REVERT JUMPDEST PUSH0 PUSH8 0xFFFFFFFFFFFFFFFF DUP3 GT ISZERO PUSH2 0x9E8 JUMPI PUSH2 0x9E7 PUSH2 0x94A JUMP JUMPDEST JUMPDEST PUSH2 0x9F1 DUP3 PUSH2 0x93A JUMP JUMPDEST SWAP1 POP PUSH1 0x20 DUP2 ADD SWAP1 POP SWAP2 SWAP1 POP JUMP JUMPDEST DUP3 DUP2 DUP4 CALLDATACOPY PUSH0 DUP4 DUP4 ADD MSTORE POP POP POP JUMP JUMPDEST PUSH0 PUSH2 0xA1E PUSH2 0xA19 DUP5 PUSH2 0x9CE JUMP JUMPDEST PUSH2 0x9A8 JUMP JUMPDEST SWAP1 POP DUP3 DUP2 MSTORE PUSH1 0x20 DUP2 ADD DUP5 DUP5 DUP5 ADD GT ISZERO PUSH2 0xA3A JUMPI PUSH2 0xA39 PUSH2 0x9CA JUMP JUMPDEST JUMPDEST PUSH2 0xA45 DUP5 DUP3 DUP6 PUSH2 0x9FE JUMP JUMPDEST POP SWAP4 SWAP3 POP POP POP JUMP JUMPDEST PUSH0 DUP3 PUSH1 0x1F DUP4 ADD SLT PUSH2 0xA61 JUMPI PUSH2 0xA60 PUSH2 0x9C6 JUMP JUMPDEST JUMPDEST DUP2 CALLDATALOAD PUSH2 0xA71 DUP5 DUP3 PUSH1 0x20 DUP7 ADD PUSH2 0xA0C JUMP JUMPDEST SWAP2 POP POP SWAP3 SWAP2 POP POP JUMP JUMPDEST PUSH2 0xA83 DUP2 PUSH2 0x8F4 JUMP JUMPDEST DUP2 EQ PUSH2 0xA8D JUMPI PUSH0 DUP1 REVERT JUMPDEST POP JUMP JUMPDEST PUSH0 DUP2 CALLDATALOAD SWAP1 POP PUSH2 0xA9E DUP2 PUSH2 0xA7A JUMP JUMPDEST SWAP3 SWAP2 POP POP JUMP JUMPDEST PUSH0 PUSH2 0x180 DUP3 DUP5 SUB SLT ISZERO PUSH2 0xABA JUMPI PUSH2 0xAB9 PUSH2 0x936 JUMP JUMPDEST JUMPDEST PUSH2 0xAC5 PUSH2 0x180 PUSH2 0x9A8 JUMP JUMPDEST SWAP1 POP PUSH0 DUP3 ADD CALLDATALOAD PUSH8 0xFFFFFFFFFFFFFFFF DUP2 GT ISZERO PUSH2 0xAE4 JUMPI PUSH2 0xAE3 PUSH2 0x9C2 JUMP JUMPDEST JUMPDEST PUSH2 0xAF0 DUP5 DUP3 DUP6 ADD PUSH2 0xA4D JUMP JUMPDEST PUSH0 DUP4 ADD MSTORE POP PUSH1 0x20 PUSH2 0xB03 DUP5 DUP3 DUP6 ADD PUSH2 0xA90 JUMP JUMPDEST PUSH1 0x20 DUP4 ADD MSTORE POP PUSH1 0x40 DUP3 ADD CALLDATALOAD PUSH8 0xFFFFFFFFFFFFFFFF DUP2 GT ISZERO PUSH2 0xB27 JUMPI PUSH2 0xB26 PUSH2 0x9C2 JUMP JUMPDEST JUMPDEST PUSH2 0xB33 DUP5 DUP3 DUP6 ADD PUSH2 0xA4D JUMP JUMPDEST PUSH1 0x40 DUP4 ADD MSTORE POP PUSH1 0x60 PUSH2 0xB47 DUP5 DUP3 DUP6 ADD PUSH2 0xA90 JUMP JUMPDEST PUSH1 0x60 DUP4 ADD MSTORE POP PUSH1 0x80 DUP3 ADD CALLDATALOAD PUSH8 0xFFFFFFFFFFFFFFFF DUP2 GT ISZERO PUSH2 0xB6B JUMPI PUSH2 0xB6A PUSH2 0x9C2 JUMP JUMPDEST JUMPDEST PUSH2 0xB77 DUP5 DUP3 DUP6 ADD PUSH2 0xA4D JUMP JUMPDEST PUSH1 0x80 DUP4 ADD MSTORE POP PUSH1 0xA0 DUP3 ADD CALLDATALOAD PUSH8 0xFFFFFFFFFFFFFFFF DUP2 GT ISZERO PUSH2 0xB9B JUMPI PUSH2 0xB9A PUSH2 0x9C2 JUMP JUMPDEST JUMPDEST PUSH2 0xBA7 DUP5 DUP3 DUP6 ADD PUSH2 0xA4D JUMP JUMPDEST PUSH1 0xA0 DUP4 ADD MSTORE POP PUSH1 0xC0 DUP3 ADD CALLDATALOAD PUSH8 0xFFFFFFFFFFFFFFFF DUP2 GT ISZERO PUSH2 0xBCB JUMPI PUSH2 0xBCA PUSH2 0x9C2 JUMP JUMPDEST JUMPDEST PUSH2 0xBD7 DUP5 DUP3 DUP6 ADD PUSH2 0xA4D JUMP JUMPDEST PUSH1 0xC0 DUP4 ADD MSTORE POP PUSH1 0xE0 DUP3 ADD CALLDATALOAD PUSH8 0xFFFFFFFFFFFFFFFF DUP2 GT ISZERO PUSH2 0xBFB JUMPI PUSH2 0xBFA PUSH2 0x9C2 JUMP JUMPDEST JUMPDEST PUSH2 0xC07 DUP5 DUP3 DUP6 ADD PUSH2 0xA4D JUMP JUMPDEST PUSH1 0xE0 DUP4 ADD MSTORE POP PUSH2 0x100 DUP3 ADD CALLDATALOAD PUSH8 0xFFFFFFFFFFFFFFFF DUP2 GT ISZERO PUSH2 0xC2C JUMPI PUSH2 0xC2B PUSH2 0x9C2 JUMP JUMPDEST JUMPDEST PUSH2 0xC38 DUP5 DUP3 DUP6 ADD PUSH2 0xA4D JUMP JUMPDEST PUSH2 0x100 DUP4 ADD MSTORE POP PUSH2 0x120 DUP3 ADD CALLDATALOAD PUSH8 0xFFFFFFFFFFFFFFFF DUP2 GT ISZERO PUSH2 0xC5E JUMPI PUSH2 0xC5D PUSH2 0x9C2 JUMP JUMPDEST JUMPDEST PUSH2 0xC6A DUP5 DUP3 DUP6 ADD PUSH2 0xA4D JUMP JUMPDEST PUSH2 0x120 DUP4 ADD MSTORE POP PUSH2 0x140 DUP3 ADD CALLDATALOAD PUSH8 0xFFFFFFFFFFFFFFFF DUP2 GT ISZERO PUSH2 0xC90 JUMPI PUSH2 0xC8F PUSH2 0x9C2 JUMP JUMPDEST JUMPDEST PUSH2 0xC9C DUP5 DUP3 DUP6 ADD PUSH2 0xA4D JUMP JUMPDEST PUSH2 0x140 DUP4 ADD MSTORE POP PUSH2 0x160 DUP3 ADD CALLDATALOAD PUSH8 0xFFFFFFFFFFFFFFFF DUP2 GT ISZERO PUSH2 0xCC2 JUMPI PUSH2 0xCC1 PUSH2 0x9C2 JUMP JUMPDEST JUMPDEST PUSH2 0xCCE DUP5 DUP3 DUP6 ADD PUSH2 0xA4D JUMP JUMPDEST PUSH2 0x160 DUP4 ADD MSTORE POP SWAP3 SWAP2 POP POP JUMP JUMPDEST PUSH0 PUSH1 0x20 DUP3 DUP5 SUB SLT ISZERO PUSH2 0xCF0 JUMPI PUSH2 0xCEF PUSH2 0x92E JUMP JUMPDEST JUMPDEST PUSH0 DUP3 ADD CALLDATALOAD PUSH8 0xFFFFFFFFFFFFFFFF DUP2 GT ISZERO PUSH2 0xD0D JUMPI PUSH2 0xD0C PUSH2 0x932 JUMP JUMPDEST JUMPDEST PUSH2 0xD19 DUP5 DUP3 DUP6 ADD PUSH2 0xAA4 JUMP JUMPDEST SWAP2 POP POP SWAP3 SWAP2 POP POP JUMP JUMPDEST PUSH0 PUSH20 0xFFFFFFFFFFFFFFFFFFFFFFFFFFFFFFFFFFFFFFFF DUP3 AND SWAP1 POP SWAP2 SWAP1 POP JUMP JUMPDEST PUSH0 PUSH2 0xD4B DUP3 PUSH2 0xD22 JUMP JUMPDEST SWAP1 POP SWAP2 SWAP1 POP JUMP JUMPDEST PUSH2 0xD5B DUP2 PUSH2 0xD41 JUMP JUMPDEST DUP3 MSTORE POP POP JUMP JUMPDEST PUSH0 PUSH1 0x20 DUP3 ADD SWAP1 POP PUSH2 0xD74 PUSH0 DUP4 ADD DUP5 PUSH2 0xD52 JUMP JUMPDEST SWAP3 SWAP2 POP POP JUMP JUMPDEST PUSH2 0xD83 DUP2 PUSH2 0xD41 JUMP JUMPDEST DUP2 EQ PUSH2 0xD8D JUMPI PUSH0 DUP1 REVERT JUMPDEST POP JUMP JUMPDEST PUSH0 DUP2 CALLDATALOAD SWAP1 POP PUSH2 0xD9E DUP2 PUSH2 0xD7A JUMP JUMPDEST SWAP3 SWAP2 POP POP JUMP JUMPDEST PUSH0 DUP1 PUSH1 0x40 DUP4 DUP6 SUB SLT ISZERO PUSH2 0xDBA JUMPI PUSH2 0xDB9 PUSH2 0x92E JUMP JUMPDEST JUMPDEST PUSH0 PUSH2 0xDC7 DUP6 DUP3 DUP7 ADD PUSH2 0xD90 JUMP JUMPDEST SWAP3 POP POP PUSH1 0x20 PUSH2 0xDD8 DUP6 DUP3 DUP7 ADD PUSH2 0xA90 JUMP JUMPDEST SWAP2 POP POP SWAP3 POP SWAP3 SWAP1 POP JUMP JUMPDEST PUSH0 DUP2 MLOAD SWAP1 POP SWAP2 SWAP1 POP JUMP JUMPDEST PUSH0 DUP3 DUP3 MSTORE PUSH1 0x20 DUP3 ADD SWAP1 POP SWAP3 SWAP2 POP POP JUMP JUMPDEST DUP3 DUP2 DUP4 MCOPY PUSH0 DUP4 DUP4 ADD MSTORE POP POP POP JUMP JUMPDEST PUSH0 PUSH2 0xE14 DUP3 PUSH2 0xDE2 JUMP JUMPDEST PUSH2 0xE1E DUP2 DUP6 PUSH2 0xDEC JUMP JUMPDEST SWAP4 POP PUSH2 0xE2E DUP2 DUP6 PUSH1 0x20 DUP7 ADD PUSH2 0xDFC JUMP JUMPDEST PUSH2 0xE37 DUP2 PUSH2 0x93A JUMP JUMPDEST DUP5 ADD SWAP2 POP POP SWAP3 SWAP2 POP POP JUMP JUMPDEST PUSH0 PUSH2 0x180 DUP3 ADD SWAP1 POP DUP2 DUP2 SUB PUSH0 DUP4 ADD MSTORE PUSH2 0xE5B DUP2 DUP16 PUSH2 0xE0A JUMP JUMPDEST SWAP1 POP PUSH2 0xE6A PUSH1 0x20 DUP4 ADD DUP15 PUSH2 0x8FD JUMP JUMPDEST DUP2 DUP2 SUB PUSH1 0x40 DUP4 ADD MSTORE PUSH2 0xE7C DUP2 DUP14 PUSH2 0xE0A JUMP JUMPDEST SWAP1 POP PUSH2 0xE8B PUSH1 0x60 DUP4 ADD DUP13 PUSH2 0x8FD JUMP JUMPDEST DUP2 DUP2 SUB PUSH1 0x80 DUP4 ADD MSTORE PUSH2 0xE9D DUP2 DUP12 PUSH2 0xE0A JUMP JUMPDEST SWAP1 POP DUP2 DUP2 SUB PUSH1 0xA0 DUP4 ADD MSTORE PUSH2 0xEB1 DUP2 DUP11 PUSH2 0xE0A JUMP JUMPDEST SWAP1 POP DUP2 DUP2 SUB PUSH1 0xC0 DUP4 ADD MSTORE PUSH2 0xEC5 DUP2 DUP10 PUSH2 0xE0A JUMP JUMPDEST SWAP1 POP DUP2 DUP2 SUB PUSH1 0xE0 DUP4 ADD MSTORE PUSH2 0xED9 DUP2 DUP9 PUSH2 0xE0A JUMP JUMPDEST SWAP1 POP DUP2 DUP2 SUB PUSH2 0x100 DUP4 ADD MSTORE PUSH2 0xEEE DUP2 DUP8 PUSH2 0xE0A JUMP JUMPDEST SWAP1 POP DUP2 DUP2 SUB PUSH2 0x120 DUP4 ADD MSTORE PUSH2 0xF03 DUP2 DUP7 PUSH2 0xE0A JUMP JUMPDEST SWAP1 POP DUP2 DUP2 SUB PUSH2 0x140 DUP4 ADD MSTORE PUSH2 0xF18 DUP2 DUP6 PUSH2 0xE0A JUMP JUMPDEST SWAP1 POP DUP2 DUP2 SUB PUSH2 0x160 DUP4 ADD MSTORE PUSH2 0xF2D DUP2 DUP5 PUSH2 0xE0A JUMP JUMPDEST SWAP1 POP SWAP14 SWAP13 POP POP POP POP POP POP POP POP POP POP POP POP POP JUMP JUMPDEST PUSH32 0x4E487B7100000000000000000000000000000000000000000000000000000000 PUSH0 MSTORE PUSH1 0x22 PUSH1 0x4 MSTORE PUSH1 0x24 PUSH0 REVERT JUMPDEST PUSH0 PUSH1 0x2 DUP3 DIV SWAP1 POP PUSH1 0x1 DUP3 AND DUP1 PUSH2 0xF84 JUMPI PUSH1 0x7F DUP3 AND SWAP2 POP JUMPDEST PUSH1 0x20 DUP3 LT DUP2 SUB PUSH2 0xF97 JUMPI PUSH2 0xF96 PUSH2 0xF40 JUMP JUMPDEST JUMPDEST POP SWAP2 SWAP1 POP JUMP JUMPDEST PUSH0 DUP2 SWAP1 POP DUP2 PUSH0 MSTORE PUSH1 0x20 PUSH0 KECCAK256 SWAP1 POP SWAP2 SWAP1 POP JUMP JUMPDEST PUSH0 PUSH1 0x20 PUSH1 0x1F DUP4 ADD DIV SWAP1 POP SWAP2 SWAP1 POP JUMP JUMPDEST PUSH0 DUP3 DUP3 SHL SWAP1 POP SWAP3 SWAP2 POP POP JUMP JUMPDEST PUSH0 PUSH1 0x8 DUP4 MUL PUSH2 0xFF9 PUSH32 0xFFFFFFFFFFFFFFFFFFFFFFFFFFFFFFFFFFFFFFFFFFFFFFFFFFFFFFFFFFFFFFFF DUP3 PUSH2 0xFBE JUMP JUMPDEST PUSH2 0x1003 DUP7 DUP4 PUSH2 0xFBE JUMP JUMPDEST SWAP6 POP DUP1 NOT DUP5 AND SWAP4 POP DUP1 DUP7 AND DUP5 OR SWAP3 POP POP POP SWAP4 SWAP3 POP POP POP JUMP JUMPDEST PUSH0 DUP2 SWAP1 POP SWAP2 SWAP1 POP JUMP JUMPDEST PUSH0 PUSH2 0x103E PUSH2 0x1039 PUSH2 0x1034 DUP5 PUSH2 0x8F4 JUMP JUMPDEST PUSH2 0x101B JUMP JUMPDEST PUSH2 0x8F4 JUMP JUMPDEST SWAP1 POP SWAP2 SWAP1 POP JUMP JUMPDEST PUSH0 DUP2 SWAP1 POP SWAP2 SWAP1 POP JUMP JUMPDEST PUSH2 0x1057 DUP4 PUSH2 0x1024 JUMP JUMPDEST PUSH2 0x106B PUSH2 0x1063 DUP3 PUSH2 0x1045 JUMP JUMPDEST DUP5 DUP5 SLOAD PUSH2 0xFCA JUMP JUMPDEST DUP3 SSTORE POP POP POP POP JUMP JUMPDEST PUSH0 SWAP1 JUMP JUMPDEST PUSH2 0x107F PUSH2 0x1073 JUMP JUMPDEST PUSH2 0x108A DUP2 DUP5 DUP5 PUSH2 0x104E JUMP JUMPDEST POP POP POP JUMP JUMPDEST JUMPDEST DUP2 DUP2 LT ISZERO PUSH2 0x10AD JUMPI PUSH2 0x10A2 PUSH0 DUP3 PUSH2 0x1077 JUMP JUMPDEST PUSH1 0x1 DUP2 ADD SWAP1 POP PUSH2 0x1090 JUMP JUMPDEST POP POP JUMP JUMPDEST PUSH1 0x1F DUP3 GT ISZERO PUSH2 0x10F2 JUMPI PUSH2 0x10C3 DUP2 PUSH2 0xF9D JUMP JUMPDEST PUSH2 0x10CC DUP5 PUSH2 0xFAF JUMP JUMPDEST DUP2 ADD PUSH1 0x20 DUP6 LT ISZERO PUSH2 0x10DB JUMPI DUP2 SWAP1 POP JUMPDEST PUSH2 0x10EF PUSH2 0x10E7 DUP6 PUSH2 0xFAF JUMP JUMPDEST DUP4 ADD DUP3 PUSH2 0x108F JUMP JUMPDEST POP POP JUMPDEST POP POP POP JUMP JUMPDEST PUSH0 DUP3 DUP3 SHR SWAP1 POP SWAP3 SWAP2 POP POP JUMP JUMPDEST PUSH0 PUSH2 0x1112 PUSH0 NOT DUP5 PUSH1 0x8 MUL PUSH2 0x10F7 JUMP JUMPDEST NOT DUP1 DUP4 AND SWAP2 POP POP SWAP3 SWAP2 POP POP JUMP JUMPDEST PUSH0 PUSH2 0x112A DUP4 DUP4 PUSH2 0x1103 JUMP JUMPDEST SWAP2 POP DUP3 PUSH1 0x2 MUL DUP3 OR SWAP1 POP SWAP3 SWAP2 POP POP JUMP JUMPDEST PUSH2 0x1143 DUP3 PUSH2 0xDE2 JUMP JUMPDEST PUSH8 0xFFFFFFFFFFFFFFFF DUP2 GT ISZERO PUSH2 0x115C JUMPI PUSH2 0x115B PUSH2 0x94A JUMP JUMPDEST JUMPDEST PUSH2 0x1166 DUP3 SLOAD PUSH2 0xF6D JUMP JUMPDEST PUSH2 0x1171 DUP3 DUP3 DUP6 PUSH2 0x10B1 JUMP JUMPDEST PUSH0 PUSH1 0x20 SWAP1 POP PUSH1 0x1F DUP4 GT PUSH1 0x1 DUP2 EQ PUSH2 0x11A2 JUMPI PUSH0 DUP5 ISZERO PUSH2 0x1190 JUMPI DUP3 DUP8 ADD MLOAD SWAP1 POP JUMPDEST PUSH2 0x119A DUP6 DUP3 PUSH2 0x111F JUMP JUMPDEST DUP7 SSTORE POP PUSH2 0x1201 JUMP JUMPDEST PUSH1 0x1F NOT DUP5 AND PUSH2 0x11B0 DUP7 PUSH2 0xF9D JUMP JUMPDEST PUSH0 JUMPDEST DUP3 DUP2 LT ISZERO PUSH2 0x11D7 JUMPI DUP5 DUP10 ADD MLOAD DUP3 SSTORE PUSH1 0x1 DUP3 ADD SWAP2 POP PUSH1 0x20 DUP6 ADD SWAP5 POP PUSH1 0x20 DUP2 ADD SWAP1 POP PUSH2 0x11B2 JUMP JUMPDEST DUP7 DUP4 LT ISZERO PUSH2 0x11F4 JUMPI DUP5 DUP10 ADD MLOAD PUSH2 0x11F0 PUSH1 0x1F DUP10 AND DUP3 PUSH2 0x1103 JUMP JUMPDEST DUP4 SSTORE POP JUMPDEST PUSH1 0x1 PUSH1 0x2 DUP9 MUL ADD DUP9 SSTORE POP POP POP JUMPDEST POP POP POP POP POP POP JUMP INVALID LOG2 PUSH5 0x6970667358 0x22 SLT KECCAK256 SWAP11 ADDRESS BLOBBASEFEE 0xC8 STATICCALL DUP7 0xCD POP 0xB5 0xD1 0xE8 0xFC AND 0xCD SWAP16 RETURNDATASIZE DUP6 0xA6 0xC2 PC 0x2A 0xA9 0xD MSIZE 0xA8 PUSH30 0xA17200901F4564736F6C634300081A003300000000000000000000000000 "
				},
				"gasEstimates": {
					"creation": {
						"codeDepositCost": "934200",
						"executionCost": "28076",
						"totalCost": "962276"
					},
					"external": {
						"filingFee()": "2446",
						"filings(address,uint256)": "infinite",
						"owner()": "2552",
						"submitFilingInfo((string,uint256,string,uint256,string,string,string,string,string,string,string,string))": "infinite",
						"transactionCounter()": "2403"
					}
				},
				"methodIdentifiers": {
					"filingFee()": "73169cf8",
					"filings(address,uint256)": "e60f117f",
					"owner()": "8da5cb5b",
					"submitFilingInfo((string,uint256,string,uint256,string,string,string,string,string,string,string,string))": "1b5ddd4f",
					"transactionCounter()": "14e887e8"
				}
			},
			"storageLayout": {
				"storage": [
					{
						"astId": 4,
						"contract": "contracts/1.Filling.sol:Filling",
						"label": "filingFee",
						"offset": 0,
						"slot": "0",
						"type": "t_uint256"
					},
					{
						"astId": 7,
						"contract": "contracts/1.Filling.sol:Filling",
						"label": "transactionCounter",
						"offset": 0,
						"slot": "1",
						"type": "t_uint256"
					},
					{
						"astId": 9,
						"contract": "contracts/1.Filling.sol:Filling",
						"label": "owner",
						"offset": 0,
						"slot": "2",
						"type": "t_address"
					},
					{
						"astId": 40,
						"contract": "contracts/1.Filling.sol:Filling",
						"label": "filings",
						"offset": 0,
						"slot": "3",
						"type": "t_mapping(t_address,t_array(t_struct(FilingInfo)34_storage)dyn_storage)"
					}
				],
				"types": {
					"t_address": {
						"encoding": "inplace",
						"label": "address",
						"numberOfBytes": "20"
					},
					"t_array(t_struct(FilingInfo)34_storage)dyn_storage": {
						"base": "t_struct(FilingInfo)34_storage",
						"encoding": "dynamic_array",
						"label": "struct Filling.FilingInfo[]",
						"numberOfBytes": "32"
					},
					"t_mapping(t_address,t_array(t_struct(FilingInfo)34_storage)dyn_storage)": {
						"encoding": "mapping",
						"key": "t_address",
						"label": "mapping(address => struct Filling.FilingInfo[])",
						"numberOfBytes": "32",
						"value": "t_array(t_struct(FilingInfo)34_storage)dyn_storage"
					},
					"t_string_storage": {
						"encoding": "bytes",
						"label": "string",
						"numberOfBytes": "32"
					},
					"t_struct(FilingInfo)34_storage": {
						"encoding": "inplace",
						"label": "struct Filling.FilingInfo",
						"members": [
							{
								"astId": 11,
								"contract": "contracts/1.Filling.sol:Filling",
								"label": "securedInterestType",
								"offset": 0,
								"slot": "0",
								"type": "t_string_storage"
							},
							{
								"astId": 13,
								"contract": "contracts/1.Filling.sol:Filling",
								"label": "partySize",
								"offset": 0,
								"slot": "1",
								"type": "t_uint256"
							},
							{
								"astId": 15,
								"contract": "contracts/1.Filling.sol:Filling",
								"label": "contractNumber",
								"offset": 0,
								"slot": "2",
								"type": "t_string_storage"
							},
							{
								"astId": 17,
								"contract": "contracts/1.Filling.sol:Filling",
								"label": "valueOfLoan",
								"offset": 0,
								"slot": "3",
								"type": "t_uint256"
							},
							{
								"astId": 19,
								"contract": "contracts/1.Filling.sol:Filling",
								"label": "securingPartyType",
								"offset": 0,
								"slot": "4",
								"type": "t_string_storage"
							},
							{
								"astId": 21,
								"contract": "contracts/1.Filling.sol:Filling",
								"label": "securingPartyFullname",
								"offset": 0,
								"slot": "5",
								"type": "t_string_storage"
							},
							{
								"astId": 23,
								"contract": "contracts/1.Filling.sol:Filling",
								"label": "securingPartyNationalID",
								"offset": 0,
								"slot": "6",
								"type": "t_string_storage"
							},
							{
								"astId": 25,
								"contract": "contracts/1.Filling.sol:Filling",
								"label": "securedPartyName",
								"offset": 0,
								"slot": "7",
								"type": "t_string_storage"
							},
							{
								"astId": 27,
								"contract": "contracts/1.Filling.sol:Filling",
								"label": "securedPartyAddress",
								"offset": 0,
								"slot": "8",
								"type": "t_string_storage"
							},
							{
								"astId": 29,
								"contract": "contracts/1.Filling.sol:Filling",
								"label": "securedPartyCountry",
								"offset": 0,
								"slot": "9",
								"type": "t_string_storage"
							},
							{
								"astId": 31,
								"contract": "contracts/1.Filling.sol:Filling",
								"label": "collateralCategory",
								"offset": 0,
								"slot": "10",
								"type": "t_string_storage"
							},
							{
								"astId": 33,
								"contract": "contracts/1.Filling.sol:Filling",
								"label": "collateralDescription",
								"offset": 0,
								"slot": "11",
								"type": "t_string_storage"
							}
						],
						"numberOfBytes": "384"
					},
					"t_uint256": {
						"encoding": "inplace",
						"label": "uint256",
						"numberOfBytes": "32"
					}
				}
			},
			"userdoc": {
				"kind": "user",
				"methods": {},
				"version": 1
			}
		}
	}
}